{
	"contracts/FundMe_contracts/FundMe.sol": {
		"FundMe": {
			"abi": [
				{
					"inputs": [
						{
							"internalType": "address",
							"name": "",
							"type": "address"
						}
					],
					"name": "addressToAmountFunded",
					"outputs": [
						{
							"internalType": "uint256",
							"name": "",
							"type": "uint256"
						}
					],
					"stateMutability": "view",
					"type": "function"
				},
				{
					"inputs": [],
					"name": "fund",
					"outputs": [],
					"stateMutability": "payable",
					"type": "function"
				},
				{
					"inputs": [
						{
							"internalType": "uint256",
							"name": "",
							"type": "uint256"
						}
					],
					"name": "funders",
					"outputs": [
						{
							"internalType": "address",
							"name": "",
							"type": "address"
						}
					],
					"stateMutability": "view",
					"type": "function"
				},
				{
					"inputs": [],
					"name": "minimumUSD",
					"outputs": [
						{
							"internalType": "uint256",
							"name": "",
							"type": "uint256"
						}
					],
					"stateMutability": "view",
					"type": "function"
				},
				{
					"inputs": [],
					"name": "withdraw",
					"outputs": [],
					"stateMutability": "nonpayable",
					"type": "function"
				}
			],
			"devdoc": {
				"kind": "dev",
				"methods": {},
				"version": 1
			},
			"evm": {
				"assembly": "    /* \"contracts/FundMe_contracts/FundMe.sol\":115:716  contract FundMe {... */\n  mstore(0x40, 0x80)\n    /* \"contracts/FundMe_contracts/FundMe.sol\":212:216  5e18 */\n  0x4563918244f40000\n    /* \"contracts/FundMe_contracts/FundMe.sol\":184:216  uint256 public minimumUSD = 5e18 */\n  0x00\n  sstore\n    /* \"contracts/FundMe_contracts/FundMe.sol\":115:716  contract FundMe {... */\n  callvalue\n  dup1\n  iszero\n  tag_1\n  jumpi\n  revert(0x00, 0x00)\ntag_1:\n  pop\n  dataSize(sub_0)\n  dup1\n  dataOffset(sub_0)\n  0x00\n  codecopy\n  0x00\n  return\nstop\n\nsub_0: assembly {\n        /* \"contracts/FundMe_contracts/FundMe.sol\":115:716  contract FundMe {... */\n      mstore(0x40, 0x80)\n      jumpi(tag_1, lt(calldatasize, 0x04))\n      shr(0xe0, calldataload(0x00))\n      dup1\n      0x3430a88c\n      eq\n      tag_2\n      jumpi\n      dup1\n      0x3ccfd60b\n      eq\n      tag_3\n      jumpi\n      dup1\n      0x3e47d6f3\n      eq\n      tag_4\n      jumpi\n      dup1\n      0xb60d4288\n      eq\n      tag_5\n      jumpi\n      dup1\n      0xdc0d3dff\n      eq\n      tag_6\n      jumpi\n    tag_1:\n      revert(0x00, 0x00)\n        /* \"contracts/FundMe_contracts/FundMe.sol\":184:216  uint256 public minimumUSD = 5e18 */\n    tag_2:\n      callvalue\n      dup1\n      iszero\n      tag_7\n      jumpi\n      revert(0x00, 0x00)\n    tag_7:\n      pop\n      tag_8\n      tag_9\n      jump\t// in\n    tag_8:\n      mload(0x40)\n      tag_10\n      swap2\n      swap1\n      tag_11\n      jump\t// in\n    tag_10:\n      mload(0x40)\n      dup1\n      swap2\n      sub\n      swap1\n      return\n        /* \"contracts/FundMe_contracts/FundMe.sol\":682:711  function withdraw() public {} */\n    tag_3:\n      callvalue\n      dup1\n      iszero\n      tag_12\n      jumpi\n      revert(0x00, 0x00)\n    tag_12:\n      pop\n      tag_13\n      tag_14\n      jump\t// in\n    tag_13:\n      stop\n        /* \"contracts/FundMe_contracts/FundMe.sol\":263:321  mapping( address => uint256 ) public addressToAmountFunded */\n    tag_4:\n      callvalue\n      dup1\n      iszero\n      tag_15\n      jumpi\n      revert(0x00, 0x00)\n    tag_15:\n      pop\n      tag_16\n      0x04\n      dup1\n      calldatasize\n      sub\n      dup2\n      add\n      swap1\n      tag_17\n      swap2\n      swap1\n      tag_18\n      jump\t// in\n    tag_17:\n      tag_19\n      jump\t// in\n    tag_16:\n      mload(0x40)\n      tag_20\n      swap2\n      swap1\n      tag_11\n      jump\t// in\n    tag_20:\n      mload(0x40)\n      dup1\n      swap2\n      sub\n      swap1\n      return\n        /* \"contracts/FundMe_contracts/FundMe.sol\":330:670  function fund() public payable{... */\n    tag_5:\n      tag_21\n      tag_22\n      jump\t// in\n    tag_21:\n      stop\n        /* \"contracts/FundMe_contracts/FundMe.sol\":229:254  address [] public funders */\n    tag_6:\n      callvalue\n      dup1\n      iszero\n      tag_23\n      jumpi\n      revert(0x00, 0x00)\n    tag_23:\n      pop\n      tag_24\n      0x04\n      dup1\n      calldatasize\n      sub\n      dup2\n      add\n      swap1\n      tag_25\n      swap2\n      swap1\n      tag_26\n      jump\t// in\n    tag_25:\n      tag_27\n      jump\t// in\n    tag_24:\n      mload(0x40)\n      tag_28\n      swap2\n      swap1\n      tag_29\n      jump\t// in\n    tag_28:\n      mload(0x40)\n      dup1\n      swap2\n      sub\n      swap1\n      return\n        /* \"contracts/FundMe_contracts/FundMe.sol\":184:216  uint256 public minimumUSD = 5e18 */\n    tag_9:\n      sload(0x00)\n      dup2\n      jump\t// out\n        /* \"contracts/FundMe_contracts/FundMe.sol\":682:711  function withdraw() public {} */\n    tag_14:\n      jump\t// out\n        /* \"contracts/FundMe_contracts/FundMe.sol\":263:321  mapping( address => uint256 ) public addressToAmountFunded */\n    tag_19:\n      mstore(0x20, 0x02)\n      dup1\n      0x00\n      mstore\n      keccak256(0x00, 0x40)\n      0x00\n      swap2\n      pop\n      swap1\n      pop\n      sload\n      dup2\n      jump\t// out\n        /* \"contracts/FundMe_contracts/FundMe.sol\":330:670  function fund() public payable{... */\n    tag_22:\n        /* \"contracts/FundMe_contracts/FundMe.sol\":412:422  minimumUSD */\n      sload(0x00)\n        /* \"contracts/FundMe_contracts/FundMe.sol\":379:408  msg.value.getConvertionRate() */\n      tag_32\n        /* \"contracts/FundMe_contracts/FundMe.sol\":379:388  msg.value */\n      callvalue\n        /* \"contracts/FundMe_contracts/FundMe.sol\":379:406  msg.value.getConvertionRate */\n      tag_33\n        /* \"contracts/FundMe_contracts/FundMe.sol\":379:408  msg.value.getConvertionRate() */\n      jump\t// in\n    tag_32:\n        /* \"contracts/FundMe_contracts/FundMe.sol\":379:422  msg.value.getConvertionRate() >= minimumUSD */\n      lt\n      iszero\n        /* \"contracts/FundMe_contracts/FundMe.sol\":371:460  require(msg.value.getConvertionRate() >= minimumUSD, \"ur sending low value\"/*error msg*/) */\n      tag_34\n      jumpi\n      mload(0x40)\n      0x08c379a000000000000000000000000000000000000000000000000000000000\n      dup2\n      mstore\n      0x04\n      add\n      tag_35\n      swap1\n      tag_36\n      jump\t// in\n    tag_35:\n      mload(0x40)\n      dup1\n      swap2\n      sub\n      swap1\n      revert\n    tag_34:\n        /* \"contracts/FundMe_contracts/FundMe.sol\":545:552  funders */\n      0x01\n        /* \"contracts/FundMe_contracts/FundMe.sol\":558:568  msg.sender */\n      caller\n        /* \"contracts/FundMe_contracts/FundMe.sol\":545:569  funders.push(msg.sender) */\n      swap1\n      dup1\n      0x01\n      dup2\n      sload\n      add\n      dup1\n      dup3\n      sstore\n      dup1\n      swap2\n      pop\n      pop\n      0x01\n      swap1\n      sub\n      swap1\n      0x00\n      mstore\n      keccak256(0x00, 0x20)\n      add\n      0x00\n      swap1\n      swap2\n      swap1\n      swap2\n      swap1\n      swap2\n      0x0100\n      exp\n      dup2\n      sload\n      dup2\n      0xffffffffffffffffffffffffffffffffffffffff\n      mul\n      not\n      and\n      swap1\n      dup4\n      0xffffffffffffffffffffffffffffffffffffffff\n      and\n      mul\n      or\n      swap1\n      sstore\n      pop\n        /* \"contracts/FundMe_contracts/FundMe.sol\":652:661  msg.value */\n      callvalue\n        /* \"contracts/FundMe_contracts/FundMe.sol\":616:637  addressToAmountFunded */\n      0x02\n        /* \"contracts/FundMe_contracts/FundMe.sol\":616:649  addressToAmountFunded[msg.sender] */\n      0x00\n        /* \"contracts/FundMe_contracts/FundMe.sol\":638:648  msg.sender */\n      caller\n        /* \"contracts/FundMe_contracts/FundMe.sol\":616:649  addressToAmountFunded[msg.sender] */\n      0xffffffffffffffffffffffffffffffffffffffff\n      and\n      0xffffffffffffffffffffffffffffffffffffffff\n      and\n      dup2\n      mstore\n      0x20\n      add\n      swap1\n      dup2\n      mstore\n      0x20\n      add\n      0x00\n      keccak256\n      sload\n        /* \"contracts/FundMe_contracts/FundMe.sol\":616:661  addressToAmountFunded[msg.sender] + msg.value */\n      tag_38\n      swap2\n      swap1\n      tag_39\n      jump\t// in\n    tag_38:\n        /* \"contracts/FundMe_contracts/FundMe.sol\":580:601  addressToAmountFunded */\n      0x02\n        /* \"contracts/FundMe_contracts/FundMe.sol\":580:613  addressToAmountFunded[msg.sender] */\n      0x00\n        /* \"contracts/FundMe_contracts/FundMe.sol\":602:612  msg.sender */\n      caller\n        /* \"contracts/FundMe_contracts/FundMe.sol\":580:613  addressToAmountFunded[msg.sender] */\n      0xffffffffffffffffffffffffffffffffffffffff\n      and\n      0xffffffffffffffffffffffffffffffffffffffff\n      and\n      dup2\n      mstore\n      0x20\n      add\n      swap1\n      dup2\n      mstore\n      0x20\n      add\n      0x00\n      keccak256\n        /* \"contracts/FundMe_contracts/FundMe.sol\":580:661  addressToAmountFunded[msg.sender] = addressToAmountFunded[msg.sender] + msg.value */\n      dup2\n      swap1\n      sstore\n      pop\n        /* \"contracts/FundMe_contracts/FundMe.sol\":330:670  function fund() public payable{... */\n      jump\t// out\n        /* \"contracts/FundMe_contracts/FundMe.sol\":229:254  address [] public funders */\n    tag_27:\n      0x01\n      dup2\n      dup2\n      sload\n      dup2\n      lt\n      tag_40\n      jumpi\n      0x00\n      dup1\n      revert\n    tag_40:\n      swap1\n      0x00\n      mstore\n      keccak256(0x00, 0x20)\n      add\n      0x00\n      swap2\n      pop\n      sload\n      swap1\n      0x0100\n      exp\n      swap1\n      div\n      0xffffffffffffffffffffffffffffffffffffffff\n      and\n      dup2\n      jump\t// out\n        /* \"contracts/FundMe_contracts/PriceConverter.sol\":727:958  function getConvertionRate(uint256 ethAmount/*input*/) internal view returns (uint256){... */\n    tag_33:\n        /* \"contracts/FundMe_contracts/PriceConverter.sol\":805:812  uint256 */\n      0x00\n        /* \"contracts/FundMe_contracts/PriceConverter.sol\":824:840  uint256 ethPrice */\n      0x00\n        /* \"contracts/FundMe_contracts/PriceConverter.sol\":843:853  getPrice() */\n      tag_43\n        /* \"contracts/FundMe_contracts/PriceConverter.sol\":843:851  getPrice */\n      tag_44\n        /* \"contracts/FundMe_contracts/PriceConverter.sol\":843:853  getPrice() */\n      jump\t// in\n    tag_43:\n        /* \"contracts/FundMe_contracts/PriceConverter.sol\":824:853  uint256 ethPrice = getPrice() */\n      swap1\n      pop\n        /* \"contracts/FundMe_contracts/PriceConverter.sol\":864:886  uint256 ethAmountInUsd */\n      0x00\n        /* \"contracts/FundMe_contracts/PriceConverter.sol\":914:918  1e18 */\n      0x0de0b6b3a7640000\n        /* \"contracts/FundMe_contracts/PriceConverter.sol\":901:910  ethAmount */\n      dup5\n        /* \"contracts/FundMe_contracts/PriceConverter.sol\":890:898  ethPrice */\n      dup4\n        /* \"contracts/FundMe_contracts/PriceConverter.sol\":890:910  ethPrice * ethAmount */\n      tag_45\n      swap2\n      swap1\n      tag_46\n      jump\t// in\n    tag_45:\n        /* \"contracts/FundMe_contracts/PriceConverter.sol\":889:918  (ethPrice * ethAmount) / 1e18 */\n      tag_47\n      swap2\n      swap1\n      tag_48\n      jump\t// in\n    tag_47:\n        /* \"contracts/FundMe_contracts/PriceConverter.sol\":864:918  uint256 ethAmountInUsd = (ethPrice * ethAmount) / 1e18 */\n      swap1\n      pop\n        /* \"contracts/FundMe_contracts/PriceConverter.sol\":936:950  ethAmountInUsd */\n      dup1\n        /* \"contracts/FundMe_contracts/PriceConverter.sol\":929:950  return ethAmountInUsd */\n      swap3\n      pop\n      pop\n      pop\n        /* \"contracts/FundMe_contracts/PriceConverter.sol\":727:958  function getConvertionRate(uint256 ethAmount/*input*/) internal view returns (uint256){... */\n      swap2\n      swap1\n      pop\n      jump\t// out\n        /* \"contracts/FundMe_contracts/PriceConverter.sol\":208:665  function getPrice() internal view returns (uint256) {... */\n    tag_44:\n        /* \"contracts/FundMe_contracts/PriceConverter.sol\":251:258  uint256 */\n      0x00\n        /* \"contracts/FundMe_contracts/PriceConverter.sol\":406:437  AggregatorV3Interface priceFeed */\n      0x00\n        /* \"contracts/FundMe_contracts/PriceConverter.sol\":462:504  0x694AA1769357215DE4FAC081bf1f309aDC325306 */\n      0x694aa1769357215de4fac081bf1f309adc325306\n        /* \"contracts/FundMe_contracts/PriceConverter.sol\":406:505  AggregatorV3Interface priceFeed = AggregatorV3Interface(0x694AA1769357215DE4FAC081bf1f309aDC325306) */\n      swap1\n      pop\n        /* \"contracts/FundMe_contracts/PriceConverter.sol\":519:532  int256 answer */\n      0x00\n        /* \"contracts/FundMe_contracts/PriceConverter.sol\":540:549  priceFeed */\n      dup2\n        /* \"contracts/FundMe_contracts/PriceConverter.sol\":540:565  priceFeed.latestRoundData */\n      0xffffffffffffffffffffffffffffffffffffffff\n      and\n      0xfeaf968c\n        /* \"contracts/FundMe_contracts/PriceConverter.sol\":540:567  priceFeed.latestRoundData() */\n      mload(0x40)\n      dup2\n      0xffffffff\n      and\n      0xe0\n      shl\n      dup2\n      mstore\n      0x04\n      add\n      0xa0\n      mload(0x40)\n      dup1\n      dup4\n      sub\n      dup2\n      dup7\n      gas\n      staticcall\n      iszero\n      dup1\n      iszero\n      tag_51\n      jumpi\n      returndatacopy(0x00, 0x00, returndatasize)\n      revert(0x00, returndatasize)\n    tag_51:\n      pop\n      pop\n      pop\n      pop\n      mload(0x40)\n      returndatasize\n      not(0x1f)\n      0x1f\n      dup3\n      add\n      and\n      dup3\n      add\n      dup1\n      0x40\n      mstore\n      pop\n      dup2\n      add\n      swap1\n      tag_52\n      swap2\n      swap1\n      tag_53\n      jump\t// in\n    tag_52:\n        /* \"contracts/FundMe_contracts/PriceConverter.sol\":516:567  (, int256 answer,,, ) = priceFeed.latestRoundData() */\n      pop\n      pop\n      pop\n      swap2\n      pop\n      pop\n        /* \"contracts/FundMe_contracts/PriceConverter.sol\":652:656  1e10 */\n      0x02540be400\n        /* \"contracts/FundMe_contracts/PriceConverter.sol\":643:649  answer */\n      dup2\n        /* \"contracts/FundMe_contracts/PriceConverter.sol\":643:656  answer * 1e10 */\n      tag_54\n      swap2\n      swap1\n      tag_55\n      jump\t// in\n    tag_54:\n        /* \"contracts/FundMe_contracts/PriceConverter.sol\":628:657  return uint256(answer * 1e10) */\n      swap3\n      pop\n      pop\n      pop\n        /* \"contracts/FundMe_contracts/PriceConverter.sol\":208:665  function getPrice() internal view returns (uint256) {... */\n      swap1\n      jump\t// out\n        /* \"#utility.yul\":7:84   */\n    tag_56:\n        /* \"#utility.yul\":44:51   */\n      0x00\n        /* \"#utility.yul\":73:78   */\n      dup2\n        /* \"#utility.yul\":62:78   */\n      swap1\n      pop\n        /* \"#utility.yul\":7:84   */\n      swap2\n      swap1\n      pop\n      jump\t// out\n        /* \"#utility.yul\":90:208   */\n    tag_57:\n        /* \"#utility.yul\":177:201   */\n      tag_83\n        /* \"#utility.yul\":195:200   */\n      dup2\n        /* \"#utility.yul\":177:201   */\n      tag_56\n      jump\t// in\n    tag_83:\n        /* \"#utility.yul\":172:175   */\n      dup3\n        /* \"#utility.yul\":165:202   */\n      mstore\n        /* \"#utility.yul\":90:208   */\n      pop\n      pop\n      jump\t// out\n        /* \"#utility.yul\":214:436   */\n    tag_11:\n        /* \"#utility.yul\":307:311   */\n      0x00\n        /* \"#utility.yul\":345:347   */\n      0x20\n        /* \"#utility.yul\":334:343   */\n      dup3\n        /* \"#utility.yul\":330:348   */\n      add\n        /* \"#utility.yul\":322:348   */\n      swap1\n      pop\n        /* \"#utility.yul\":358:429   */\n      tag_85\n        /* \"#utility.yul\":426:427   */\n      0x00\n        /* \"#utility.yul\":415:424   */\n      dup4\n        /* \"#utility.yul\":411:428   */\n      add\n        /* \"#utility.yul\":402:408   */\n      dup5\n        /* \"#utility.yul\":358:429   */\n      tag_57\n      jump\t// in\n    tag_85:\n        /* \"#utility.yul\":214:436   */\n      swap3\n      swap2\n      pop\n      pop\n      jump\t// out\n        /* \"#utility.yul\":523:640   */\n    tag_59:\n        /* \"#utility.yul\":632:633   */\n      0x00\n        /* \"#utility.yul\":629:630   */\n      0x00\n        /* \"#utility.yul\":622:634   */\n      revert\n        /* \"#utility.yul\":769:895   */\n    tag_61:\n        /* \"#utility.yul\":806:813   */\n      0x00\n        /* \"#utility.yul\":846:888   */\n      0xffffffffffffffffffffffffffffffffffffffff\n        /* \"#utility.yul\":839:844   */\n      dup3\n        /* \"#utility.yul\":835:889   */\n      and\n        /* \"#utility.yul\":824:889   */\n      swap1\n      pop\n        /* \"#utility.yul\":769:895   */\n      swap2\n      swap1\n      pop\n      jump\t// out\n        /* \"#utility.yul\":901:997   */\n    tag_62:\n        /* \"#utility.yul\":938:945   */\n      0x00\n        /* \"#utility.yul\":967:991   */\n      tag_91\n        /* \"#utility.yul\":985:990   */\n      dup3\n        /* \"#utility.yul\":967:991   */\n      tag_61\n      jump\t// in\n    tag_91:\n        /* \"#utility.yul\":956:991   */\n      swap1\n      pop\n        /* \"#utility.yul\":901:997   */\n      swap2\n      swap1\n      pop\n      jump\t// out\n        /* \"#utility.yul\":1003:1125   */\n    tag_63:\n        /* \"#utility.yul\":1076:1100   */\n      tag_93\n        /* \"#utility.yul\":1094:1099   */\n      dup2\n        /* \"#utility.yul\":1076:1100   */\n      tag_62\n      jump\t// in\n    tag_93:\n        /* \"#utility.yul\":1069:1074   */\n      dup2\n        /* \"#utility.yul\":1066:1101   */\n      eq\n        /* \"#utility.yul\":1056:1119   */\n      tag_94\n      jumpi\n        /* \"#utility.yul\":1115:1116   */\n      0x00\n        /* \"#utility.yul\":1112:1113   */\n      0x00\n        /* \"#utility.yul\":1105:1117   */\n      revert\n        /* \"#utility.yul\":1056:1119   */\n    tag_94:\n        /* \"#utility.yul\":1003:1125   */\n      pop\n      jump\t// out\n        /* \"#utility.yul\":1131:1270   */\n    tag_64:\n        /* \"#utility.yul\":1177:1182   */\n      0x00\n        /* \"#utility.yul\":1215:1221   */\n      dup2\n        /* \"#utility.yul\":1202:1222   */\n      calldataload\n        /* \"#utility.yul\":1193:1222   */\n      swap1\n      pop\n        /* \"#utility.yul\":1231:1264   */\n      tag_96\n        /* \"#utility.yul\":1258:1263   */\n      dup2\n        /* \"#utility.yul\":1231:1264   */\n      tag_63\n      jump\t// in\n    tag_96:\n        /* \"#utility.yul\":1131:1270   */\n      swap3\n      swap2\n      pop\n      pop\n      jump\t// out\n        /* \"#utility.yul\":1276:1605   */\n    tag_18:\n        /* \"#utility.yul\":1335:1341   */\n      0x00\n        /* \"#utility.yul\":1384:1386   */\n      0x20\n        /* \"#utility.yul\":1372:1381   */\n      dup3\n        /* \"#utility.yul\":1363:1370   */\n      dup5\n        /* \"#utility.yul\":1359:1382   */\n      sub\n        /* \"#utility.yul\":1355:1387   */\n      slt\n        /* \"#utility.yul\":1352:1471   */\n      iszero\n      tag_98\n      jumpi\n        /* \"#utility.yul\":1390:1469   */\n      tag_99\n      tag_59\n      jump\t// in\n    tag_99:\n        /* \"#utility.yul\":1352:1471   */\n    tag_98:\n        /* \"#utility.yul\":1510:1511   */\n      0x00\n        /* \"#utility.yul\":1535:1588   */\n      tag_100\n        /* \"#utility.yul\":1580:1587   */\n      dup5\n        /* \"#utility.yul\":1571:1577   */\n      dup3\n        /* \"#utility.yul\":1560:1569   */\n      dup6\n        /* \"#utility.yul\":1556:1578   */\n      add\n        /* \"#utility.yul\":1535:1588   */\n      tag_64\n      jump\t// in\n    tag_100:\n        /* \"#utility.yul\":1525:1588   */\n      swap2\n      pop\n        /* \"#utility.yul\":1481:1598   */\n      pop\n        /* \"#utility.yul\":1276:1605   */\n      swap3\n      swap2\n      pop\n      pop\n      jump\t// out\n        /* \"#utility.yul\":1611:1733   */\n    tag_65:\n        /* \"#utility.yul\":1684:1708   */\n      tag_102\n        /* \"#utility.yul\":1702:1707   */\n      dup2\n        /* \"#utility.yul\":1684:1708   */\n      tag_56\n      jump\t// in\n    tag_102:\n        /* \"#utility.yul\":1677:1682   */\n      dup2\n        /* \"#utility.yul\":1674:1709   */\n      eq\n        /* \"#utility.yul\":1664:1727   */\n      tag_103\n      jumpi\n        /* \"#utility.yul\":1723:1724   */\n      0x00\n        /* \"#utility.yul\":1720:1721   */\n      0x00\n        /* \"#utility.yul\":1713:1725   */\n      revert\n        /* \"#utility.yul\":1664:1727   */\n    tag_103:\n        /* \"#utility.yul\":1611:1733   */\n      pop\n      jump\t// out\n        /* \"#utility.yul\":1739:1878   */\n    tag_66:\n        /* \"#utility.yul\":1785:1790   */\n      0x00\n        /* \"#utility.yul\":1823:1829   */\n      dup2\n        /* \"#utility.yul\":1810:1830   */\n      calldataload\n        /* \"#utility.yul\":1801:1830   */\n      swap1\n      pop\n        /* \"#utility.yul\":1839:1872   */\n      tag_105\n        /* \"#utility.yul\":1866:1871   */\n      dup2\n        /* \"#utility.yul\":1839:1872   */\n      tag_65\n      jump\t// in\n    tag_105:\n        /* \"#utility.yul\":1739:1878   */\n      swap3\n      swap2\n      pop\n      pop\n      jump\t// out\n        /* \"#utility.yul\":1884:2213   */\n    tag_26:\n        /* \"#utility.yul\":1943:1949   */\n      0x00\n        /* \"#utility.yul\":1992:1994   */\n      0x20\n        /* \"#utility.yul\":1980:1989   */\n      dup3\n        /* \"#utility.yul\":1971:1978   */\n      dup5\n        /* \"#utility.yul\":1967:1990   */\n      sub\n        /* \"#utility.yul\":1963:1995   */\n      slt\n        /* \"#utility.yul\":1960:2079   */\n      iszero\n      tag_107\n      jumpi\n        /* \"#utility.yul\":1998:2077   */\n      tag_108\n      tag_59\n      jump\t// in\n    tag_108:\n        /* \"#utility.yul\":1960:2079   */\n    tag_107:\n        /* \"#utility.yul\":2118:2119   */\n      0x00\n        /* \"#utility.yul\":2143:2196   */\n      tag_109\n        /* \"#utility.yul\":2188:2195   */\n      dup5\n        /* \"#utility.yul\":2179:2185   */\n      dup3\n        /* \"#utility.yul\":2168:2177   */\n      dup6\n        /* \"#utility.yul\":2164:2186   */\n      add\n        /* \"#utility.yul\":2143:2196   */\n      tag_66\n      jump\t// in\n    tag_109:\n        /* \"#utility.yul\":2133:2196   */\n      swap2\n      pop\n        /* \"#utility.yul\":2089:2206   */\n      pop\n        /* \"#utility.yul\":1884:2213   */\n      swap3\n      swap2\n      pop\n      pop\n      jump\t// out\n        /* \"#utility.yul\":2219:2337   */\n    tag_67:\n        /* \"#utility.yul\":2306:2330   */\n      tag_111\n        /* \"#utility.yul\":2324:2329   */\n      dup2\n        /* \"#utility.yul\":2306:2330   */\n      tag_62\n      jump\t// in\n    tag_111:\n        /* \"#utility.yul\":2301:2304   */\n      dup3\n        /* \"#utility.yul\":2294:2331   */\n      mstore\n        /* \"#utility.yul\":2219:2337   */\n      pop\n      pop\n      jump\t// out\n        /* \"#utility.yul\":2343:2565   */\n    tag_29:\n        /* \"#utility.yul\":2436:2440   */\n      0x00\n        /* \"#utility.yul\":2474:2476   */\n      0x20\n        /* \"#utility.yul\":2463:2472   */\n      dup3\n        /* \"#utility.yul\":2459:2477   */\n      add\n        /* \"#utility.yul\":2451:2477   */\n      swap1\n      pop\n        /* \"#utility.yul\":2487:2558   */\n      tag_113\n        /* \"#utility.yul\":2555:2556   */\n      0x00\n        /* \"#utility.yul\":2544:2553   */\n      dup4\n        /* \"#utility.yul\":2540:2557   */\n      add\n        /* \"#utility.yul\":2531:2537   */\n      dup5\n        /* \"#utility.yul\":2487:2558   */\n      tag_67\n      jump\t// in\n    tag_113:\n        /* \"#utility.yul\":2343:2565   */\n      swap3\n      swap2\n      pop\n      pop\n      jump\t// out\n        /* \"#utility.yul\":2571:2740   */\n    tag_68:\n        /* \"#utility.yul\":2655:2666   */\n      0x00\n        /* \"#utility.yul\":2689:2695   */\n      dup3\n        /* \"#utility.yul\":2684:2687   */\n      dup3\n        /* \"#utility.yul\":2677:2696   */\n      mstore\n        /* \"#utility.yul\":2729:2733   */\n      0x20\n        /* \"#utility.yul\":2724:2727   */\n      dup3\n        /* \"#utility.yul\":2720:2734   */\n      add\n        /* \"#utility.yul\":2705:2734   */\n      swap1\n      pop\n        /* \"#utility.yul\":2571:2740   */\n      swap3\n      swap2\n      pop\n      pop\n      jump\t// out\n        /* \"#utility.yul\":2746:2916   */\n    tag_69:\n        /* \"#utility.yul\":2886:2908   */\n      0x75722073656e64696e67206c6f772076616c7565000000000000000000000000\n        /* \"#utility.yul\":2882:2883   */\n      0x00\n        /* \"#utility.yul\":2874:2880   */\n      dup3\n        /* \"#utility.yul\":2870:2884   */\n      add\n        /* \"#utility.yul\":2863:2909   */\n      mstore\n        /* \"#utility.yul\":2746:2916   */\n      pop\n      jump\t// out\n        /* \"#utility.yul\":2922:3288   */\n    tag_70:\n        /* \"#utility.yul\":3064:3067   */\n      0x00\n        /* \"#utility.yul\":3085:3152   */\n      tag_117\n        /* \"#utility.yul\":3149:3151   */\n      0x14\n        /* \"#utility.yul\":3144:3147   */\n      dup4\n        /* \"#utility.yul\":3085:3152   */\n      tag_68\n      jump\t// in\n    tag_117:\n        /* \"#utility.yul\":3078:3152   */\n      swap2\n      pop\n        /* \"#utility.yul\":3161:3254   */\n      tag_118\n        /* \"#utility.yul\":3250:3253   */\n      dup3\n        /* \"#utility.yul\":3161:3254   */\n      tag_69\n      jump\t// in\n    tag_118:\n        /* \"#utility.yul\":3279:3281   */\n      0x20\n        /* \"#utility.yul\":3274:3277   */\n      dup3\n        /* \"#utility.yul\":3270:3282   */\n      add\n        /* \"#utility.yul\":3263:3282   */\n      swap1\n      pop\n        /* \"#utility.yul\":2922:3288   */\n      swap2\n      swap1\n      pop\n      jump\t// out\n        /* \"#utility.yul\":3294:3713   */\n    tag_36:\n        /* \"#utility.yul\":3460:3464   */\n      0x00\n        /* \"#utility.yul\":3498:3500   */\n      0x20\n        /* \"#utility.yul\":3487:3496   */\n      dup3\n        /* \"#utility.yul\":3483:3501   */\n      add\n        /* \"#utility.yul\":3475:3501   */\n      swap1\n      pop\n        /* \"#utility.yul\":3547:3556   */\n      dup2\n        /* \"#utility.yul\":3541:3545   */\n      dup2\n        /* \"#utility.yul\":3537:3557   */\n      sub\n        /* \"#utility.yul\":3533:3534   */\n      0x00\n        /* \"#utility.yul\":3522:3531   */\n      dup4\n        /* \"#utility.yul\":3518:3535   */\n      add\n        /* \"#utility.yul\":3511:3558   */\n      mstore\n        /* \"#utility.yul\":3575:3706   */\n      tag_120\n        /* \"#utility.yul\":3701:3705   */\n      dup2\n        /* \"#utility.yul\":3575:3706   */\n      tag_70\n      jump\t// in\n    tag_120:\n        /* \"#utility.yul\":3567:3706   */\n      swap1\n      pop\n        /* \"#utility.yul\":3294:3713   */\n      swap2\n      swap1\n      pop\n      jump\t// out\n        /* \"#utility.yul\":3719:3899   */\n    tag_71:\n        /* \"#utility.yul\":3767:3844   */\n      0x4e487b7100000000000000000000000000000000000000000000000000000000\n        /* \"#utility.yul\":3764:3765   */\n      0x00\n        /* \"#utility.yul\":3757:3845   */\n      mstore\n        /* \"#utility.yul\":3864:3868   */\n      0x11\n        /* \"#utility.yul\":3861:3862   */\n      0x04\n        /* \"#utility.yul\":3854:3869   */\n      mstore\n        /* \"#utility.yul\":3888:3892   */\n      0x24\n        /* \"#utility.yul\":3885:3886   */\n      0x00\n        /* \"#utility.yul\":3878:3893   */\n      revert\n        /* \"#utility.yul\":3905:4096   */\n    tag_39:\n        /* \"#utility.yul\":3945:3948   */\n      0x00\n        /* \"#utility.yul\":3964:3984   */\n      tag_123\n        /* \"#utility.yul\":3982:3983   */\n      dup3\n        /* \"#utility.yul\":3964:3984   */\n      tag_56\n      jump\t// in\n    tag_123:\n        /* \"#utility.yul\":3959:3984   */\n      swap2\n      pop\n        /* \"#utility.yul\":3998:4018   */\n      tag_124\n        /* \"#utility.yul\":4016:4017   */\n      dup4\n        /* \"#utility.yul\":3998:4018   */\n      tag_56\n      jump\t// in\n    tag_124:\n        /* \"#utility.yul\":3993:4018   */\n      swap3\n      pop\n        /* \"#utility.yul\":4041:4042   */\n      dup3\n        /* \"#utility.yul\":4038:4039   */\n      dup3\n        /* \"#utility.yul\":4034:4043   */\n      add\n        /* \"#utility.yul\":4027:4043   */\n      swap1\n      pop\n        /* \"#utility.yul\":4062:4065   */\n      dup1\n        /* \"#utility.yul\":4059:4060   */\n      dup3\n        /* \"#utility.yul\":4056:4066   */\n      gt\n        /* \"#utility.yul\":4053:4089   */\n      iszero\n      tag_125\n      jumpi\n        /* \"#utility.yul\":4069:4087   */\n      tag_126\n      tag_71\n      jump\t// in\n    tag_126:\n        /* \"#utility.yul\":4053:4089   */\n    tag_125:\n        /* \"#utility.yul\":3905:4096   */\n      swap3\n      swap2\n      pop\n      pop\n      jump\t// out\n        /* \"#utility.yul\":4102:4512   */\n    tag_46:\n        /* \"#utility.yul\":4142:4149   */\n      0x00\n        /* \"#utility.yul\":4165:4185   */\n      tag_128\n        /* \"#utility.yul\":4183:4184   */\n      dup3\n        /* \"#utility.yul\":4165:4185   */\n      tag_56\n      jump\t// in\n    tag_128:\n        /* \"#utility.yul\":4160:4185   */\n      swap2\n      pop\n        /* \"#utility.yul\":4199:4219   */\n      tag_129\n        /* \"#utility.yul\":4217:4218   */\n      dup4\n        /* \"#utility.yul\":4199:4219   */\n      tag_56\n      jump\t// in\n    tag_129:\n        /* \"#utility.yul\":4194:4219   */\n      swap3\n      pop\n        /* \"#utility.yul\":4254:4255   */\n      dup3\n        /* \"#utility.yul\":4251:4252   */\n      dup3\n        /* \"#utility.yul\":4247:4256   */\n      mul\n        /* \"#utility.yul\":4276:4306   */\n      tag_130\n        /* \"#utility.yul\":4294:4305   */\n      dup2\n        /* \"#utility.yul\":4276:4306   */\n      tag_56\n      jump\t// in\n    tag_130:\n        /* \"#utility.yul\":4265:4306   */\n      swap2\n      pop\n        /* \"#utility.yul\":4455:4456   */\n      dup3\n        /* \"#utility.yul\":4446:4453   */\n      dup3\n        /* \"#utility.yul\":4442:4457   */\n      div\n        /* \"#utility.yul\":4439:4440   */\n      dup5\n        /* \"#utility.yul\":4436:4458   */\n      eq\n        /* \"#utility.yul\":4416:4417   */\n      dup4\n        /* \"#utility.yul\":4409:4418   */\n      iszero\n        /* \"#utility.yul\":4389:4472   */\n      or\n        /* \"#utility.yul\":4366:4505   */\n      tag_131\n      jumpi\n        /* \"#utility.yul\":4485:4503   */\n      tag_132\n      tag_71\n      jump\t// in\n    tag_132:\n        /* \"#utility.yul\":4366:4505   */\n    tag_131:\n        /* \"#utility.yul\":4150:4512   */\n      pop\n        /* \"#utility.yul\":4102:4512   */\n      swap3\n      swap2\n      pop\n      pop\n      jump\t// out\n        /* \"#utility.yul\":4518:4698   */\n    tag_72:\n        /* \"#utility.yul\":4566:4643   */\n      0x4e487b7100000000000000000000000000000000000000000000000000000000\n        /* \"#utility.yul\":4563:4564   */\n      0x00\n        /* \"#utility.yul\":4556:4644   */\n      mstore\n        /* \"#utility.yul\":4663:4667   */\n      0x12\n        /* \"#utility.yul\":4660:4661   */\n      0x04\n        /* \"#utility.yul\":4653:4668   */\n      mstore\n        /* \"#utility.yul\":4687:4691   */\n      0x24\n        /* \"#utility.yul\":4684:4685   */\n      0x00\n        /* \"#utility.yul\":4677:4692   */\n      revert\n        /* \"#utility.yul\":4704:4889   */\n    tag_48:\n        /* \"#utility.yul\":4744:4745   */\n      0x00\n        /* \"#utility.yul\":4761:4781   */\n      tag_135\n        /* \"#utility.yul\":4779:4780   */\n      dup3\n        /* \"#utility.yul\":4761:4781   */\n      tag_56\n      jump\t// in\n    tag_135:\n        /* \"#utility.yul\":4756:4781   */\n      swap2\n      pop\n        /* \"#utility.yul\":4795:4815   */\n      tag_136\n        /* \"#utility.yul\":4813:4814   */\n      dup4\n        /* \"#utility.yul\":4795:4815   */\n      tag_56\n      jump\t// in\n    tag_136:\n        /* \"#utility.yul\":4790:4815   */\n      swap3\n      pop\n        /* \"#utility.yul\":4834:4835   */\n      dup3\n        /* \"#utility.yul\":4824:4859   */\n      tag_137\n      jumpi\n        /* \"#utility.yul\":4839:4857   */\n      tag_138\n      tag_72\n      jump\t// in\n    tag_138:\n        /* \"#utility.yul\":4824:4859   */\n    tag_137:\n        /* \"#utility.yul\":4881:4882   */\n      dup3\n        /* \"#utility.yul\":4878:4879   */\n      dup3\n        /* \"#utility.yul\":4874:4883   */\n      div\n        /* \"#utility.yul\":4869:4883   */\n      swap1\n      pop\n        /* \"#utility.yul\":4704:4889   */\n      swap3\n      swap2\n      pop\n      pop\n      jump\t// out\n        /* \"#utility.yul\":4895:5000   */\n    tag_73:\n        /* \"#utility.yul\":4931:4938   */\n      0x00\n        /* \"#utility.yul\":4971:4993   */\n      0xffffffffffffffffffff\n        /* \"#utility.yul\":4964:4969   */\n      dup3\n        /* \"#utility.yul\":4960:4994   */\n      and\n        /* \"#utility.yul\":4949:4994   */\n      swap1\n      pop\n        /* \"#utility.yul\":4895:5000   */\n      swap2\n      swap1\n      pop\n      jump\t// out\n        /* \"#utility.yul\":5006:5126   */\n    tag_74:\n        /* \"#utility.yul\":5078:5101   */\n      tag_141\n        /* \"#utility.yul\":5095:5100   */\n      dup2\n        /* \"#utility.yul\":5078:5101   */\n      tag_73\n      jump\t// in\n    tag_141:\n        /* \"#utility.yul\":5071:5076   */\n      dup2\n        /* \"#utility.yul\":5068:5102   */\n      eq\n        /* \"#utility.yul\":5058:5120   */\n      tag_142\n      jumpi\n        /* \"#utility.yul\":5116:5117   */\n      0x00\n        /* \"#utility.yul\":5113:5114   */\n      0x00\n        /* \"#utility.yul\":5106:5118   */\n      revert\n        /* \"#utility.yul\":5058:5120   */\n    tag_142:\n        /* \"#utility.yul\":5006:5126   */\n      pop\n      jump\t// out\n        /* \"#utility.yul\":5132:5273   */\n    tag_75:\n        /* \"#utility.yul\":5188:5193   */\n      0x00\n        /* \"#utility.yul\":5219:5225   */\n      dup2\n        /* \"#utility.yul\":5213:5226   */\n      mload\n        /* \"#utility.yul\":5204:5226   */\n      swap1\n      pop\n        /* \"#utility.yul\":5235:5267   */\n      tag_144\n        /* \"#utility.yul\":5261:5266   */\n      dup2\n        /* \"#utility.yul\":5235:5267   */\n      tag_74\n      jump\t// in\n    tag_144:\n        /* \"#utility.yul\":5132:5273   */\n      swap3\n      swap2\n      pop\n      pop\n      jump\t// out\n        /* \"#utility.yul\":5279:5355   */\n    tag_76:\n        /* \"#utility.yul\":5315:5322   */\n      0x00\n        /* \"#utility.yul\":5344:5349   */\n      dup2\n        /* \"#utility.yul\":5333:5349   */\n      swap1\n      pop\n        /* \"#utility.yul\":5279:5355   */\n      swap2\n      swap1\n      pop\n      jump\t// out\n        /* \"#utility.yul\":5361:5481   */\n    tag_77:\n        /* \"#utility.yul\":5433:5456   */\n      tag_147\n        /* \"#utility.yul\":5450:5455   */\n      dup2\n        /* \"#utility.yul\":5433:5456   */\n      tag_76\n      jump\t// in\n    tag_147:\n        /* \"#utility.yul\":5426:5431   */\n      dup2\n        /* \"#utility.yul\":5423:5457   */\n      eq\n        /* \"#utility.yul\":5413:5475   */\n      tag_148\n      jumpi\n        /* \"#utility.yul\":5471:5472   */\n      0x00\n        /* \"#utility.yul\":5468:5469   */\n      0x00\n        /* \"#utility.yul\":5461:5473   */\n      revert\n        /* \"#utility.yul\":5413:5475   */\n    tag_148:\n        /* \"#utility.yul\":5361:5481   */\n      pop\n      jump\t// out\n        /* \"#utility.yul\":5487:5628   */\n    tag_78:\n        /* \"#utility.yul\":5543:5548   */\n      0x00\n        /* \"#utility.yul\":5574:5580   */\n      dup2\n        /* \"#utility.yul\":5568:5581   */\n      mload\n        /* \"#utility.yul\":5559:5581   */\n      swap1\n      pop\n        /* \"#utility.yul\":5590:5622   */\n      tag_150\n        /* \"#utility.yul\":5616:5621   */\n      dup2\n        /* \"#utility.yul\":5590:5622   */\n      tag_77\n      jump\t// in\n    tag_150:\n        /* \"#utility.yul\":5487:5628   */\n      swap3\n      swap2\n      pop\n      pop\n      jump\t// out\n        /* \"#utility.yul\":5634:5777   */\n    tag_79:\n        /* \"#utility.yul\":5691:5696   */\n      0x00\n        /* \"#utility.yul\":5722:5728   */\n      dup2\n        /* \"#utility.yul\":5716:5729   */\n      mload\n        /* \"#utility.yul\":5707:5729   */\n      swap1\n      pop\n        /* \"#utility.yul\":5738:5771   */\n      tag_152\n        /* \"#utility.yul\":5765:5770   */\n      dup2\n        /* \"#utility.yul\":5738:5771   */\n      tag_65\n      jump\t// in\n    tag_152:\n        /* \"#utility.yul\":5634:5777   */\n      swap3\n      swap2\n      pop\n      pop\n      jump\t// out\n        /* \"#utility.yul\":5783:6754   */\n    tag_53:\n        /* \"#utility.yul\":5886:5892   */\n      0x00\n        /* \"#utility.yul\":5894:5900   */\n      0x00\n        /* \"#utility.yul\":5902:5908   */\n      0x00\n        /* \"#utility.yul\":5910:5916   */\n      0x00\n        /* \"#utility.yul\":5918:5924   */\n      0x00\n        /* \"#utility.yul\":5967:5970   */\n      0xa0\n        /* \"#utility.yul\":5955:5964   */\n      dup7\n        /* \"#utility.yul\":5946:5953   */\n      dup9\n        /* \"#utility.yul\":5942:5965   */\n      sub\n        /* \"#utility.yul\":5938:5971   */\n      slt\n        /* \"#utility.yul\":5935:6055   */\n      iszero\n      tag_154\n      jumpi\n        /* \"#utility.yul\":5974:6053   */\n      tag_155\n      tag_59\n      jump\t// in\n    tag_155:\n        /* \"#utility.yul\":5935:6055   */\n    tag_154:\n        /* \"#utility.yul\":6094:6095   */\n      0x00\n        /* \"#utility.yul\":6119:6182   */\n      tag_156\n        /* \"#utility.yul\":6174:6181   */\n      dup9\n        /* \"#utility.yul\":6165:6171   */\n      dup3\n        /* \"#utility.yul\":6154:6163   */\n      dup10\n        /* \"#utility.yul\":6150:6172   */\n      add\n        /* \"#utility.yul\":6119:6182   */\n      tag_75\n      jump\t// in\n    tag_156:\n        /* \"#utility.yul\":6109:6182   */\n      swap6\n      pop\n        /* \"#utility.yul\":6065:6192   */\n      pop\n        /* \"#utility.yul\":6231:6233   */\n      0x20\n        /* \"#utility.yul\":6257:6320   */\n      tag_157\n        /* \"#utility.yul\":6312:6319   */\n      dup9\n        /* \"#utility.yul\":6303:6309   */\n      dup3\n        /* \"#utility.yul\":6292:6301   */\n      dup10\n        /* \"#utility.yul\":6288:6310   */\n      add\n        /* \"#utility.yul\":6257:6320   */\n      tag_78\n      jump\t// in\n    tag_157:\n        /* \"#utility.yul\":6247:6320   */\n      swap5\n      pop\n        /* \"#utility.yul\":6202:6330   */\n      pop\n        /* \"#utility.yul\":6369:6371   */\n      0x40\n        /* \"#utility.yul\":6395:6459   */\n      tag_158\n        /* \"#utility.yul\":6451:6458   */\n      dup9\n        /* \"#utility.yul\":6442:6448   */\n      dup3\n        /* \"#utility.yul\":6431:6440   */\n      dup10\n        /* \"#utility.yul\":6427:6449   */\n      add\n        /* \"#utility.yul\":6395:6459   */\n      tag_79\n      jump\t// in\n    tag_158:\n        /* \"#utility.yul\":6385:6459   */\n      swap4\n      pop\n        /* \"#utility.yul\":6340:6469   */\n      pop\n        /* \"#utility.yul\":6508:6510   */\n      0x60\n        /* \"#utility.yul\":6534:6598   */\n      tag_159\n        /* \"#utility.yul\":6590:6597   */\n      dup9\n        /* \"#utility.yul\":6581:6587   */\n      dup3\n        /* \"#utility.yul\":6570:6579   */\n      dup10\n        /* \"#utility.yul\":6566:6588   */\n      add\n        /* \"#utility.yul\":6534:6598   */\n      tag_79\n      jump\t// in\n    tag_159:\n        /* \"#utility.yul\":6524:6598   */\n      swap3\n      pop\n        /* \"#utility.yul\":6479:6608   */\n      pop\n        /* \"#utility.yul\":6647:6650   */\n      0x80\n        /* \"#utility.yul\":6674:6737   */\n      tag_160\n        /* \"#utility.yul\":6729:6736   */\n      dup9\n        /* \"#utility.yul\":6720:6726   */\n      dup3\n        /* \"#utility.yul\":6709:6718   */\n      dup10\n        /* \"#utility.yul\":6705:6727   */\n      add\n        /* \"#utility.yul\":6674:6737   */\n      tag_75\n      jump\t// in\n    tag_160:\n        /* \"#utility.yul\":6664:6737   */\n      swap2\n      pop\n        /* \"#utility.yul\":6618:6747   */\n      pop\n        /* \"#utility.yul\":5783:6754   */\n      swap3\n      swap6\n      pop\n      swap3\n      swap6\n      swap1\n      swap4\n      pop\n      jump\t// out\n        /* \"#utility.yul\":6760:7316   */\n    tag_55:\n        /* \"#utility.yul\":6799:6806   */\n      0x00\n        /* \"#utility.yul\":6822:6841   */\n      tag_162\n        /* \"#utility.yul\":6839:6840   */\n      dup3\n        /* \"#utility.yul\":6822:6841   */\n      tag_76\n      jump\t// in\n    tag_162:\n        /* \"#utility.yul\":6817:6841   */\n      swap2\n      pop\n        /* \"#utility.yul\":6855:6874   */\n      tag_163\n        /* \"#utility.yul\":6872:6873   */\n      dup4\n        /* \"#utility.yul\":6855:6874   */\n      tag_76\n      jump\t// in\n    tag_163:\n        /* \"#utility.yul\":6850:6874   */\n      swap3\n      pop\n        /* \"#utility.yul\":6909:6910   */\n      dup3\n        /* \"#utility.yul\":6906:6907   */\n      dup3\n        /* \"#utility.yul\":6902:6911   */\n      mul\n        /* \"#utility.yul\":6931:6960   */\n      tag_164\n        /* \"#utility.yul\":6948:6959   */\n      dup2\n        /* \"#utility.yul\":6931:6960   */\n      tag_76\n      jump\t// in\n    tag_164:\n        /* \"#utility.yul\":6920:6960   */\n      swap2\n      pop\n        /* \"#utility.yul\":7018:7084   */\n      0x8000000000000000000000000000000000000000000000000000000000000000\n        /* \"#utility.yul\":7015:7016   */\n      dup5\n        /* \"#utility.yul\":7012:7085   */\n      eq\n        /* \"#utility.yul\":7008:7009   */\n      0x00\n        /* \"#utility.yul\":7005:7006   */\n      dup5\n        /* \"#utility.yul\":7001:7010   */\n      slt\n        /* \"#utility.yul\":6997:7086   */\n      and\n        /* \"#utility.yul\":6994:7109   */\n      iszero\n      tag_165\n      jumpi\n        /* \"#utility.yul\":7089:7107   */\n      tag_166\n      tag_71\n      jump\t// in\n    tag_166:\n        /* \"#utility.yul\":6994:7109   */\n    tag_165:\n        /* \"#utility.yul\":7259:7260   */\n      dup3\n        /* \"#utility.yul\":7250:7257   */\n      dup3\n        /* \"#utility.yul\":7245:7261   */\n      sdiv\n        /* \"#utility.yul\":7242:7243   */\n      dup5\n        /* \"#utility.yul\":7239:7262   */\n      eq\n        /* \"#utility.yul\":7219:7220   */\n      dup4\n        /* \"#utility.yul\":7212:7221   */\n      iszero\n        /* \"#utility.yul\":7192:7276   */\n      or\n        /* \"#utility.yul\":7169:7309   */\n      tag_167\n      jumpi\n        /* \"#utility.yul\":7289:7307   */\n      tag_168\n      tag_71\n      jump\t// in\n    tag_168:\n        /* \"#utility.yul\":7169:7309   */\n    tag_167:\n        /* \"#utility.yul\":6807:7316   */\n      pop\n        /* \"#utility.yul\":6760:7316   */\n      swap3\n      swap2\n      pop\n      pop\n      jump\t// out\n\n    auxdata: 0xa2646970667358221220e91f0d6d6cf853c4cf63b9c1ca8a6246c75d1be217b777179ea3b9e5e937d87f64736f6c634300081f0033\n}\n",
				"bytecode": {
					"linkReferences": {},
					"object": "6080604052674563918244f400005f553480156019575f5ffd5b506107d1806100275f395ff3fe608060405260043610610049575f3560e01c80633430a88c1461004d5780633ccfd60b146100775780633e47d6f31461008d578063b60d4288146100c9578063dc0d3dff146100d3575b5f5ffd5b348015610058575f5ffd5b5061006161010f565b60405161006e9190610393565b60405180910390f35b348015610082575f5ffd5b5061008b610114565b005b348015610098575f5ffd5b506100b360048036038101906100ae919061040a565b610116565b6040516100c09190610393565b60405180910390f35b6100d161012b565b005b3480156100de575f5ffd5b506100f960048036038101906100f4919061045f565b610263565b6040516101069190610499565b60405180910390f35b5f5481565b565b6002602052805f5260405f205f915090505481565b5f546101363461029e565b1015610177576040517f08c379a000000000000000000000000000000000000000000000000000000000815260040161016e9061050c565b60405180910390fd5b600133908060018154018082558091505060019003905f5260205f20015f9091909190916101000a81548173ffffffffffffffffffffffffffffffffffffffff021916908373ffffffffffffffffffffffffffffffffffffffff1602179055503460025f3373ffffffffffffffffffffffffffffffffffffffff1673ffffffffffffffffffffffffffffffffffffffff1681526020019081526020015f20546102209190610557565b60025f3373ffffffffffffffffffffffffffffffffffffffff1673ffffffffffffffffffffffffffffffffffffffff1681526020019081526020015f2081905550565b60018181548110610272575f80fd5b905f5260205f20015f915054906101000a900473ffffffffffffffffffffffffffffffffffffffff1681565b5f5f6102a86102d6565b90505f670de0b6b3a764000084836102c0919061058a565b6102ca91906105f8565b90508092505050919050565b5f5f73694aa1769357215de4fac081bf1f309adc32530690505f8173ffffffffffffffffffffffffffffffffffffffff1663feaf968c6040518163ffffffff1660e01b815260040160a060405180830381865afa158015610339573d5f5f3e3d5ffd5b505050506040513d601f19601f8201168201806040525081019061035d91906106ae565b5050509150506402540be400816103749190610725565b9250505090565b5f819050919050565b61038d8161037b565b82525050565b5f6020820190506103a65f830184610384565b92915050565b5f5ffd5b5f73ffffffffffffffffffffffffffffffffffffffff82169050919050565b5f6103d9826103b0565b9050919050565b6103e9816103cf565b81146103f3575f5ffd5b50565b5f81359050610404816103e0565b92915050565b5f6020828403121561041f5761041e6103ac565b5b5f61042c848285016103f6565b91505092915050565b61043e8161037b565b8114610448575f5ffd5b50565b5f8135905061045981610435565b92915050565b5f60208284031215610474576104736103ac565b5b5f6104818482850161044b565b91505092915050565b610493816103cf565b82525050565b5f6020820190506104ac5f83018461048a565b92915050565b5f82825260208201905092915050565b7f75722073656e64696e67206c6f772076616c75650000000000000000000000005f82015250565b5f6104f66014836104b2565b9150610501826104c2565b602082019050919050565b5f6020820190508181035f830152610523816104ea565b9050919050565b7f4e487b71000000000000000000000000000000000000000000000000000000005f52601160045260245ffd5b5f6105618261037b565b915061056c8361037b565b92508282019050808211156105845761058361052a565b5b92915050565b5f6105948261037b565b915061059f8361037b565b92508282026105ad8161037b565b915082820484148315176105c4576105c361052a565b5b5092915050565b7f4e487b71000000000000000000000000000000000000000000000000000000005f52601260045260245ffd5b5f6106028261037b565b915061060d8361037b565b92508261061d5761061c6105cb565b5b828204905092915050565b5f69ffffffffffffffffffff82169050919050565b61064681610628565b8114610650575f5ffd5b50565b5f815190506106618161063d565b92915050565b5f819050919050565b61067981610667565b8114610683575f5ffd5b50565b5f8151905061069481610670565b92915050565b5f815190506106a881610435565b92915050565b5f5f5f5f5f60a086880312156106c7576106c66103ac565b5b5f6106d488828901610653565b95505060206106e588828901610686565b94505060406106f68882890161069a565b93505060606107078882890161069a565b925050608061071888828901610653565b9150509295509295909350565b5f61072f82610667565b915061073a83610667565b925082820261074881610667565b91507f800000000000000000000000000000000000000000000000000000000000000084145f8412161561077f5761077e61052a565b5b82820584148315176107945761079361052a565b5b509291505056fea2646970667358221220e91f0d6d6cf853c4cf63b9c1ca8a6246c75d1be217b777179ea3b9e5e937d87f64736f6c634300081f0033",
					"opcodes": "PUSH1 0x80 PUSH1 0x40 MSTORE PUSH8 0x4563918244F40000 PUSH0 SSTORE CALLVALUE DUP1 ISZERO PUSH1 0x19 JUMPI PUSH0 PUSH0 REVERT JUMPDEST POP PUSH2 0x7D1 DUP1 PUSH2 0x27 PUSH0 CODECOPY PUSH0 RETURN INVALID PUSH1 0x80 PUSH1 0x40 MSTORE PUSH1 0x4 CALLDATASIZE LT PUSH2 0x49 JUMPI PUSH0 CALLDATALOAD PUSH1 0xE0 SHR DUP1 PUSH4 0x3430A88C EQ PUSH2 0x4D JUMPI DUP1 PUSH4 0x3CCFD60B EQ PUSH2 0x77 JUMPI DUP1 PUSH4 0x3E47D6F3 EQ PUSH2 0x8D JUMPI DUP1 PUSH4 0xB60D4288 EQ PUSH2 0xC9 JUMPI DUP1 PUSH4 0xDC0D3DFF EQ PUSH2 0xD3 JUMPI JUMPDEST PUSH0 PUSH0 REVERT JUMPDEST CALLVALUE DUP1 ISZERO PUSH2 0x58 JUMPI PUSH0 PUSH0 REVERT JUMPDEST POP PUSH2 0x61 PUSH2 0x10F JUMP JUMPDEST PUSH1 0x40 MLOAD PUSH2 0x6E SWAP2 SWAP1 PUSH2 0x393 JUMP JUMPDEST PUSH1 0x40 MLOAD DUP1 SWAP2 SUB SWAP1 RETURN JUMPDEST CALLVALUE DUP1 ISZERO PUSH2 0x82 JUMPI PUSH0 PUSH0 REVERT JUMPDEST POP PUSH2 0x8B PUSH2 0x114 JUMP JUMPDEST STOP JUMPDEST CALLVALUE DUP1 ISZERO PUSH2 0x98 JUMPI PUSH0 PUSH0 REVERT JUMPDEST POP PUSH2 0xB3 PUSH1 0x4 DUP1 CALLDATASIZE SUB DUP2 ADD SWAP1 PUSH2 0xAE SWAP2 SWAP1 PUSH2 0x40A JUMP JUMPDEST PUSH2 0x116 JUMP JUMPDEST PUSH1 0x40 MLOAD PUSH2 0xC0 SWAP2 SWAP1 PUSH2 0x393 JUMP JUMPDEST PUSH1 0x40 MLOAD DUP1 SWAP2 SUB SWAP1 RETURN JUMPDEST PUSH2 0xD1 PUSH2 0x12B JUMP JUMPDEST STOP JUMPDEST CALLVALUE DUP1 ISZERO PUSH2 0xDE JUMPI PUSH0 PUSH0 REVERT JUMPDEST POP PUSH2 0xF9 PUSH1 0x4 DUP1 CALLDATASIZE SUB DUP2 ADD SWAP1 PUSH2 0xF4 SWAP2 SWAP1 PUSH2 0x45F JUMP JUMPDEST PUSH2 0x263 JUMP JUMPDEST PUSH1 0x40 MLOAD PUSH2 0x106 SWAP2 SWAP1 PUSH2 0x499 JUMP JUMPDEST PUSH1 0x40 MLOAD DUP1 SWAP2 SUB SWAP1 RETURN JUMPDEST PUSH0 SLOAD DUP2 JUMP JUMPDEST JUMP JUMPDEST PUSH1 0x2 PUSH1 0x20 MSTORE DUP1 PUSH0 MSTORE PUSH1 0x40 PUSH0 KECCAK256 PUSH0 SWAP2 POP SWAP1 POP SLOAD DUP2 JUMP JUMPDEST PUSH0 SLOAD PUSH2 0x136 CALLVALUE PUSH2 0x29E JUMP JUMPDEST LT ISZERO PUSH2 0x177 JUMPI PUSH1 0x40 MLOAD PUSH32 0x8C379A000000000000000000000000000000000000000000000000000000000 DUP2 MSTORE PUSH1 0x4 ADD PUSH2 0x16E SWAP1 PUSH2 0x50C JUMP JUMPDEST PUSH1 0x40 MLOAD DUP1 SWAP2 SUB SWAP1 REVERT JUMPDEST PUSH1 0x1 CALLER SWAP1 DUP1 PUSH1 0x1 DUP2 SLOAD ADD DUP1 DUP3 SSTORE DUP1 SWAP2 POP POP PUSH1 0x1 SWAP1 SUB SWAP1 PUSH0 MSTORE PUSH1 0x20 PUSH0 KECCAK256 ADD PUSH0 SWAP1 SWAP2 SWAP1 SWAP2 SWAP1 SWAP2 PUSH2 0x100 EXP DUP2 SLOAD DUP2 PUSH20 0xFFFFFFFFFFFFFFFFFFFFFFFFFFFFFFFFFFFFFFFF MUL NOT AND SWAP1 DUP4 PUSH20 0xFFFFFFFFFFFFFFFFFFFFFFFFFFFFFFFFFFFFFFFF AND MUL OR SWAP1 SSTORE POP CALLVALUE PUSH1 0x2 PUSH0 CALLER PUSH20 0xFFFFFFFFFFFFFFFFFFFFFFFFFFFFFFFFFFFFFFFF AND PUSH20 0xFFFFFFFFFFFFFFFFFFFFFFFFFFFFFFFFFFFFFFFF AND DUP2 MSTORE PUSH1 0x20 ADD SWAP1 DUP2 MSTORE PUSH1 0x20 ADD PUSH0 KECCAK256 SLOAD PUSH2 0x220 SWAP2 SWAP1 PUSH2 0x557 JUMP JUMPDEST PUSH1 0x2 PUSH0 CALLER PUSH20 0xFFFFFFFFFFFFFFFFFFFFFFFFFFFFFFFFFFFFFFFF AND PUSH20 0xFFFFFFFFFFFFFFFFFFFFFFFFFFFFFFFFFFFFFFFF AND DUP2 MSTORE PUSH1 0x20 ADD SWAP1 DUP2 MSTORE PUSH1 0x20 ADD PUSH0 KECCAK256 DUP2 SWAP1 SSTORE POP JUMP JUMPDEST PUSH1 0x1 DUP2 DUP2 SLOAD DUP2 LT PUSH2 0x272 JUMPI PUSH0 DUP1 REVERT JUMPDEST SWAP1 PUSH0 MSTORE PUSH1 0x20 PUSH0 KECCAK256 ADD PUSH0 SWAP2 POP SLOAD SWAP1 PUSH2 0x100 EXP SWAP1 DIV PUSH20 0xFFFFFFFFFFFFFFFFFFFFFFFFFFFFFFFFFFFFFFFF AND DUP2 JUMP JUMPDEST PUSH0 PUSH0 PUSH2 0x2A8 PUSH2 0x2D6 JUMP JUMPDEST SWAP1 POP PUSH0 PUSH8 0xDE0B6B3A7640000 DUP5 DUP4 PUSH2 0x2C0 SWAP2 SWAP1 PUSH2 0x58A JUMP JUMPDEST PUSH2 0x2CA SWAP2 SWAP1 PUSH2 0x5F8 JUMP JUMPDEST SWAP1 POP DUP1 SWAP3 POP POP POP SWAP2 SWAP1 POP JUMP JUMPDEST PUSH0 PUSH0 PUSH20 0x694AA1769357215DE4FAC081BF1F309ADC325306 SWAP1 POP PUSH0 DUP2 PUSH20 0xFFFFFFFFFFFFFFFFFFFFFFFFFFFFFFFFFFFFFFFF AND PUSH4 0xFEAF968C PUSH1 0x40 MLOAD DUP2 PUSH4 0xFFFFFFFF AND PUSH1 0xE0 SHL DUP2 MSTORE PUSH1 0x4 ADD PUSH1 0xA0 PUSH1 0x40 MLOAD DUP1 DUP4 SUB DUP2 DUP7 GAS STATICCALL ISZERO DUP1 ISZERO PUSH2 0x339 JUMPI RETURNDATASIZE PUSH0 PUSH0 RETURNDATACOPY RETURNDATASIZE PUSH0 REVERT JUMPDEST POP POP POP POP PUSH1 0x40 MLOAD RETURNDATASIZE PUSH1 0x1F NOT PUSH1 0x1F DUP3 ADD AND DUP3 ADD DUP1 PUSH1 0x40 MSTORE POP DUP2 ADD SWAP1 PUSH2 0x35D SWAP2 SWAP1 PUSH2 0x6AE JUMP JUMPDEST POP POP POP SWAP2 POP POP PUSH5 0x2540BE400 DUP2 PUSH2 0x374 SWAP2 SWAP1 PUSH2 0x725 JUMP JUMPDEST SWAP3 POP POP POP SWAP1 JUMP JUMPDEST PUSH0 DUP2 SWAP1 POP SWAP2 SWAP1 POP JUMP JUMPDEST PUSH2 0x38D DUP2 PUSH2 0x37B JUMP JUMPDEST DUP3 MSTORE POP POP JUMP JUMPDEST PUSH0 PUSH1 0x20 DUP3 ADD SWAP1 POP PUSH2 0x3A6 PUSH0 DUP4 ADD DUP5 PUSH2 0x384 JUMP JUMPDEST SWAP3 SWAP2 POP POP JUMP JUMPDEST PUSH0 PUSH0 REVERT JUMPDEST PUSH0 PUSH20 0xFFFFFFFFFFFFFFFFFFFFFFFFFFFFFFFFFFFFFFFF DUP3 AND SWAP1 POP SWAP2 SWAP1 POP JUMP JUMPDEST PUSH0 PUSH2 0x3D9 DUP3 PUSH2 0x3B0 JUMP JUMPDEST SWAP1 POP SWAP2 SWAP1 POP JUMP JUMPDEST PUSH2 0x3E9 DUP2 PUSH2 0x3CF JUMP JUMPDEST DUP2 EQ PUSH2 0x3F3 JUMPI PUSH0 PUSH0 REVERT JUMPDEST POP JUMP JUMPDEST PUSH0 DUP2 CALLDATALOAD SWAP1 POP PUSH2 0x404 DUP2 PUSH2 0x3E0 JUMP JUMPDEST SWAP3 SWAP2 POP POP JUMP JUMPDEST PUSH0 PUSH1 0x20 DUP3 DUP5 SUB SLT ISZERO PUSH2 0x41F JUMPI PUSH2 0x41E PUSH2 0x3AC JUMP JUMPDEST JUMPDEST PUSH0 PUSH2 0x42C DUP5 DUP3 DUP6 ADD PUSH2 0x3F6 JUMP JUMPDEST SWAP2 POP POP SWAP3 SWAP2 POP POP JUMP JUMPDEST PUSH2 0x43E DUP2 PUSH2 0x37B JUMP JUMPDEST DUP2 EQ PUSH2 0x448 JUMPI PUSH0 PUSH0 REVERT JUMPDEST POP JUMP JUMPDEST PUSH0 DUP2 CALLDATALOAD SWAP1 POP PUSH2 0x459 DUP2 PUSH2 0x435 JUMP JUMPDEST SWAP3 SWAP2 POP POP JUMP JUMPDEST PUSH0 PUSH1 0x20 DUP3 DUP5 SUB SLT ISZERO PUSH2 0x474 JUMPI PUSH2 0x473 PUSH2 0x3AC JUMP JUMPDEST JUMPDEST PUSH0 PUSH2 0x481 DUP5 DUP3 DUP6 ADD PUSH2 0x44B JUMP JUMPDEST SWAP2 POP POP SWAP3 SWAP2 POP POP JUMP JUMPDEST PUSH2 0x493 DUP2 PUSH2 0x3CF JUMP JUMPDEST DUP3 MSTORE POP POP JUMP JUMPDEST PUSH0 PUSH1 0x20 DUP3 ADD SWAP1 POP PUSH2 0x4AC PUSH0 DUP4 ADD DUP5 PUSH2 0x48A JUMP JUMPDEST SWAP3 SWAP2 POP POP JUMP JUMPDEST PUSH0 DUP3 DUP3 MSTORE PUSH1 0x20 DUP3 ADD SWAP1 POP SWAP3 SWAP2 POP POP JUMP JUMPDEST PUSH32 0x75722073656E64696E67206C6F772076616C7565000000000000000000000000 PUSH0 DUP3 ADD MSTORE POP JUMP JUMPDEST PUSH0 PUSH2 0x4F6 PUSH1 0x14 DUP4 PUSH2 0x4B2 JUMP JUMPDEST SWAP2 POP PUSH2 0x501 DUP3 PUSH2 0x4C2 JUMP JUMPDEST PUSH1 0x20 DUP3 ADD SWAP1 POP SWAP2 SWAP1 POP JUMP JUMPDEST PUSH0 PUSH1 0x20 DUP3 ADD SWAP1 POP DUP2 DUP2 SUB PUSH0 DUP4 ADD MSTORE PUSH2 0x523 DUP2 PUSH2 0x4EA JUMP JUMPDEST SWAP1 POP SWAP2 SWAP1 POP JUMP JUMPDEST PUSH32 0x4E487B7100000000000000000000000000000000000000000000000000000000 PUSH0 MSTORE PUSH1 0x11 PUSH1 0x4 MSTORE PUSH1 0x24 PUSH0 REVERT JUMPDEST PUSH0 PUSH2 0x561 DUP3 PUSH2 0x37B JUMP JUMPDEST SWAP2 POP PUSH2 0x56C DUP4 PUSH2 0x37B JUMP JUMPDEST SWAP3 POP DUP3 DUP3 ADD SWAP1 POP DUP1 DUP3 GT ISZERO PUSH2 0x584 JUMPI PUSH2 0x583 PUSH2 0x52A JUMP JUMPDEST JUMPDEST SWAP3 SWAP2 POP POP JUMP JUMPDEST PUSH0 PUSH2 0x594 DUP3 PUSH2 0x37B JUMP JUMPDEST SWAP2 POP PUSH2 0x59F DUP4 PUSH2 0x37B JUMP JUMPDEST SWAP3 POP DUP3 DUP3 MUL PUSH2 0x5AD DUP2 PUSH2 0x37B JUMP JUMPDEST SWAP2 POP DUP3 DUP3 DIV DUP5 EQ DUP4 ISZERO OR PUSH2 0x5C4 JUMPI PUSH2 0x5C3 PUSH2 0x52A JUMP JUMPDEST JUMPDEST POP SWAP3 SWAP2 POP POP JUMP JUMPDEST PUSH32 0x4E487B7100000000000000000000000000000000000000000000000000000000 PUSH0 MSTORE PUSH1 0x12 PUSH1 0x4 MSTORE PUSH1 0x24 PUSH0 REVERT JUMPDEST PUSH0 PUSH2 0x602 DUP3 PUSH2 0x37B JUMP JUMPDEST SWAP2 POP PUSH2 0x60D DUP4 PUSH2 0x37B JUMP JUMPDEST SWAP3 POP DUP3 PUSH2 0x61D JUMPI PUSH2 0x61C PUSH2 0x5CB JUMP JUMPDEST JUMPDEST DUP3 DUP3 DIV SWAP1 POP SWAP3 SWAP2 POP POP JUMP JUMPDEST PUSH0 PUSH10 0xFFFFFFFFFFFFFFFFFFFF DUP3 AND SWAP1 POP SWAP2 SWAP1 POP JUMP JUMPDEST PUSH2 0x646 DUP2 PUSH2 0x628 JUMP JUMPDEST DUP2 EQ PUSH2 0x650 JUMPI PUSH0 PUSH0 REVERT JUMPDEST POP JUMP JUMPDEST PUSH0 DUP2 MLOAD SWAP1 POP PUSH2 0x661 DUP2 PUSH2 0x63D JUMP JUMPDEST SWAP3 SWAP2 POP POP JUMP JUMPDEST PUSH0 DUP2 SWAP1 POP SWAP2 SWAP1 POP JUMP JUMPDEST PUSH2 0x679 DUP2 PUSH2 0x667 JUMP JUMPDEST DUP2 EQ PUSH2 0x683 JUMPI PUSH0 PUSH0 REVERT JUMPDEST POP JUMP JUMPDEST PUSH0 DUP2 MLOAD SWAP1 POP PUSH2 0x694 DUP2 PUSH2 0x670 JUMP JUMPDEST SWAP3 SWAP2 POP POP JUMP JUMPDEST PUSH0 DUP2 MLOAD SWAP1 POP PUSH2 0x6A8 DUP2 PUSH2 0x435 JUMP JUMPDEST SWAP3 SWAP2 POP POP JUMP JUMPDEST PUSH0 PUSH0 PUSH0 PUSH0 PUSH0 PUSH1 0xA0 DUP7 DUP9 SUB SLT ISZERO PUSH2 0x6C7 JUMPI PUSH2 0x6C6 PUSH2 0x3AC JUMP JUMPDEST JUMPDEST PUSH0 PUSH2 0x6D4 DUP9 DUP3 DUP10 ADD PUSH2 0x653 JUMP JUMPDEST SWAP6 POP POP PUSH1 0x20 PUSH2 0x6E5 DUP9 DUP3 DUP10 ADD PUSH2 0x686 JUMP JUMPDEST SWAP5 POP POP PUSH1 0x40 PUSH2 0x6F6 DUP9 DUP3 DUP10 ADD PUSH2 0x69A JUMP JUMPDEST SWAP4 POP POP PUSH1 0x60 PUSH2 0x707 DUP9 DUP3 DUP10 ADD PUSH2 0x69A JUMP JUMPDEST SWAP3 POP POP PUSH1 0x80 PUSH2 0x718 DUP9 DUP3 DUP10 ADD PUSH2 0x653 JUMP JUMPDEST SWAP2 POP POP SWAP3 SWAP6 POP SWAP3 SWAP6 SWAP1 SWAP4 POP JUMP JUMPDEST PUSH0 PUSH2 0x72F DUP3 PUSH2 0x667 JUMP JUMPDEST SWAP2 POP PUSH2 0x73A DUP4 PUSH2 0x667 JUMP JUMPDEST SWAP3 POP DUP3 DUP3 MUL PUSH2 0x748 DUP2 PUSH2 0x667 JUMP JUMPDEST SWAP2 POP PUSH32 0x8000000000000000000000000000000000000000000000000000000000000000 DUP5 EQ PUSH0 DUP5 SLT AND ISZERO PUSH2 0x77F JUMPI PUSH2 0x77E PUSH2 0x52A JUMP JUMPDEST JUMPDEST DUP3 DUP3 SDIV DUP5 EQ DUP4 ISZERO OR PUSH2 0x794 JUMPI PUSH2 0x793 PUSH2 0x52A JUMP JUMPDEST JUMPDEST POP SWAP3 SWAP2 POP POP JUMP INVALID LOG2 PUSH5 0x6970667358 0x22 SLT KECCAK256 0xE9 0x1F 0xD PUSH14 0x6CF853C4CF63B9C1CA8A6246C75D SHL 0xE2 OR 0xB7 PUSH24 0x179EA3B9E5E937D87F64736F6C634300081F003300000000 "
				},
				"gasEstimates": {
					"creation": {
						"codeDepositCost": "400200",
						"executionCost": "22539",
						"totalCost": "422739"
					},
					"external": {
						"addressToAmountFunded(address)": "2824",
						"fund()": "infinite",
						"funders(uint256)": "5010",
						"minimumUSD()": "2402",
						"withdraw()": "143"
					}
				},
				"methodIdentifiers": {
					"addressToAmountFunded(address)": "3e47d6f3",
					"fund()": "b60d4288",
					"funders(uint256)": "dc0d3dff",
					"minimumUSD()": "3430a88c",
					"withdraw()": "3ccfd60b"
				}
			},
			"storageLayout": {
				"storage": [
					{
						"astId": 55,
						"contract": "contracts/FundMe_contracts/FundMe.sol:FundMe",
						"label": "minimumUSD",
						"offset": 0,
						"slot": "0",
						"type": "t_uint256"
					},
					{
						"astId": 58,
						"contract": "contracts/FundMe_contracts/FundMe.sol:FundMe",
						"label": "funders",
						"offset": 0,
						"slot": "1",
						"type": "t_array(t_address)dyn_storage"
					},
					{
						"astId": 62,
						"contract": "contracts/FundMe_contracts/FundMe.sol:FundMe",
						"label": "addressToAmountFunded",
						"offset": 0,
						"slot": "2",
						"type": "t_mapping(t_address,t_uint256)"
					}
				],
				"types": {
					"t_address": {
						"encoding": "inplace",
						"label": "address",
						"numberOfBytes": "20"
					},
					"t_array(t_address)dyn_storage": {
						"base": "t_address",
						"encoding": "dynamic_array",
						"label": "address[]",
						"numberOfBytes": "32"
					},
					"t_mapping(t_address,t_uint256)": {
						"encoding": "mapping",
						"key": "t_address",
						"label": "mapping(address => uint256)",
						"numberOfBytes": "32",
						"value": "t_uint256"
					},
					"t_uint256": {
						"encoding": "inplace",
						"label": "uint256",
						"numberOfBytes": "32"
					}
				}
			},
			"userdoc": {
				"kind": "user",
				"methods": {},
				"version": 1
			}
		}
	}
}