{
	"Simple_Storage.sol": {
		"SimpleStorage": {
			"abi": [
				{
					"inputs": [
						{
							"internalType": "string",
							"name": "_name",
							"type": "string"
						},
						{
							"internalType": "uint256",
							"name": "_favNumber",
							"type": "uint256"
						},
						{
							"internalType": "string",
							"name": "_nickName",
							"type": "string"
						}
					],
					"name": "addPerson",
					"outputs": [],
					"stateMutability": "nonpayable",
					"type": "function"
				},
				{
					"inputs": [
						{
							"internalType": "string",
							"name": "_name",
							"type": "string"
						}
					],
					"name": "findNickName",
					"outputs": [
						{
							"internalType": "string",
							"name": "_nickName",
							"type": "string"
						}
					],
					"stateMutability": "view",
					"type": "function"
				},
				{
					"inputs": [
						{
							"internalType": "uint256",
							"name": "",
							"type": "uint256"
						}
					],
					"name": "listOfPeople",
					"outputs": [
						{
							"internalType": "uint256",
							"name": "favNumber",
							"type": "uint256"
						},
						{
							"internalType": "string",
							"name": "name",
							"type": "string"
						},
						{
							"internalType": "string",
							"name": "nickName",
							"type": "string"
						}
					],
					"stateMutability": "view",
					"type": "function"
				},
				{
					"inputs": [
						{
							"internalType": "string",
							"name": "_name",
							"type": "string"
						}
					],
					"name": "nameToFavNumber",
					"outputs": [
						{
							"internalType": "uint256",
							"name": "",
							"type": "uint256"
						}
					],
					"stateMutability": "view",
					"type": "function"
				},
				{
					"inputs": [
						{
							"internalType": "string",
							"name": "_nickName",
							"type": "string"
						}
					],
					"name": "nickNameToFavNum",
					"outputs": [
						{
							"internalType": "uint256",
							"name": "",
							"type": "uint256"
						}
					],
					"stateMutability": "view",
					"type": "function"
				},
				{
					"inputs": [],
					"name": "retrieve",
					"outputs": [
						{
							"internalType": "uint256",
							"name": "",
							"type": "uint256"
						}
					],
					"stateMutability": "view",
					"type": "function"
				},
				{
					"inputs": [
						{
							"internalType": "uint256",
							"name": "_favNumber",
							"type": "uint256"
						}
					],
					"name": "store",
					"outputs": [],
					"stateMutability": "nonpayable",
					"type": "function"
				}
			],
			"devdoc": {
				"kind": "dev",
				"methods": {},
				"version": 1
			},
			"evm": {
				"assembly": "    /* \"Simple_Storage.sol\":62:1326  contract SimpleStorage {... */\n  mstore(0x40, 0x80)\n  callvalue\n  dup1\n  iszero\n  tag_1\n  jumpi\n  revert(0x00, 0x00)\ntag_1:\n  pop\n  dataSize(sub_0)\n  dup1\n  dataOffset(sub_0)\n  0x00\n  codecopy\n  0x00\n  return\nstop\n\nsub_0: assembly {\n        /* \"Simple_Storage.sol\":62:1326  contract SimpleStorage {... */\n      mstore(0x40, 0x80)\n      callvalue\n      dup1\n      iszero\n      tag_1\n      jumpi\n      revert(0x00, 0x00)\n    tag_1:\n      pop\n      jumpi(tag_2, lt(calldatasize, 0x04))\n      shr(0xe0, calldataload(0x00))\n      dup1\n      0x43ec8f47\n      gt\n      tag_10\n      jumpi\n      dup1\n      0x43ec8f47\n      eq\n      tag_6\n      jumpi\n      dup1\n      0x6057361d\n      eq\n      tag_7\n      jumpi\n      dup1\n      0xe5cdfa80\n      eq\n      tag_8\n      jumpi\n      dup1\n      0xfda3fd13\n      eq\n      tag_9\n      jumpi\n      jump(tag_2)\n    tag_10:\n      dup1\n      0x2e64cec1\n      eq\n      tag_3\n      jumpi\n      dup1\n      0x2ebce631\n      eq\n      tag_4\n      jumpi\n      dup1\n      0x3861c1d6\n      eq\n      tag_5\n      jumpi\n    tag_2:\n      revert(0x00, 0x00)\n        /* \"Simple_Storage.sol\":867:954  function retrieve() public view returns (uint256) {... */\n    tag_3:\n      tag_11\n      tag_12\n      jump\t// in\n    tag_11:\n      mload(0x40)\n      tag_13\n      swap2\n      swap1\n      tag_14\n      jump\t// in\n    tag_13:\n      mload(0x40)\n      dup1\n      swap2\n      sub\n      swap1\n      return\n        /* \"Simple_Storage.sol\":342:370  Person[] public listOfPeople */\n    tag_4:\n      tag_15\n      0x04\n      dup1\n      calldatasize\n      sub\n      dup2\n      add\n      swap1\n      tag_16\n      swap2\n      swap1\n      tag_17\n      jump\t// in\n    tag_16:\n      tag_18\n      jump\t// in\n    tag_15:\n      mload(0x40)\n      tag_19\n      swap4\n      swap3\n      swap2\n      swap1\n      tag_20\n      jump\t// in\n    tag_19:\n      mload(0x40)\n      dup1\n      swap2\n      sub\n      swap1\n      return\n        /* \"Simple_Storage.sol\":1016:1322  function addPerson(string memory _name, uint256 _favNumber, string memory _nickName) public {... */\n    tag_5:\n      tag_21\n      0x04\n      dup1\n      calldatasize\n      sub\n      dup2\n      add\n      swap1\n      tag_22\n      swap2\n      swap1\n      tag_23\n      jump\t// in\n    tag_22:\n      tag_24\n      jump\t// in\n    tag_21:\n      stop\n        /* \"Simple_Storage.sol\":506:561  mapping(string _name => uint256) public nameToFavNumber */\n    tag_6:\n      tag_25\n      0x04\n      dup1\n      calldatasize\n      sub\n      dup2\n      add\n      swap1\n      tag_26\n      swap2\n      swap1\n      tag_27\n      jump\t// in\n    tag_26:\n      tag_28\n      jump\t// in\n    tag_25:\n      mload(0x40)\n      tag_29\n      swap2\n      swap1\n      tag_14\n      jump\t// in\n    tag_29:\n      mload(0x40)\n      dup1\n      swap2\n      sub\n      swap1\n      return\n        /* \"Simple_Storage.sol\":705:791  function store (uint256 _favNumber) public {... */\n    tag_7:\n      tag_30\n      0x04\n      dup1\n      calldatasize\n      sub\n      dup2\n      add\n      swap1\n      tag_31\n      swap2\n      swap1\n      tag_17\n      jump\t// in\n    tag_31:\n      tag_32\n      jump\t// in\n    tag_30:\n      stop\n        /* \"Simple_Storage.sol\":635:696  mapping(string _name => string _nickName) public findNickName */\n    tag_8:\n      tag_33\n      0x04\n      dup1\n      calldatasize\n      sub\n      dup2\n      add\n      swap1\n      tag_34\n      swap2\n      swap1\n      tag_27\n      jump\t// in\n    tag_34:\n      tag_35\n      jump\t// in\n    tag_33:\n      mload(0x40)\n      tag_36\n      swap2\n      swap1\n      tag_37\n      jump\t// in\n    tag_36:\n      mload(0x40)\n      dup1\n      swap2\n      sub\n      swap1\n      return\n        /* \"Simple_Storage.sol\":568:628  mapping(string _nickName => uint256) public nickNameToFavNum */\n    tag_9:\n      tag_38\n      0x04\n      dup1\n      calldatasize\n      sub\n      dup2\n      add\n      swap1\n      tag_39\n      swap2\n      swap1\n      tag_27\n      jump\t// in\n    tag_39:\n      tag_40\n      jump\t// in\n    tag_38:\n      mload(0x40)\n      tag_41\n      swap2\n      swap1\n      tag_14\n      jump\t// in\n    tag_41:\n      mload(0x40)\n      dup1\n      swap2\n      sub\n      swap1\n      return\n        /* \"Simple_Storage.sol\":867:954  function retrieve() public view returns (uint256) {... */\n    tag_12:\n        /* \"Simple_Storage.sol\":908:915  uint256 */\n      0x00\n        /* \"Simple_Storage.sol\":935:946  myFavNumber */\n      sload(0x00)\n        /* \"Simple_Storage.sol\":928:946  return myFavNumber */\n      swap1\n      pop\n        /* \"Simple_Storage.sol\":867:954  function retrieve() public view returns (uint256) {... */\n      swap1\n      jump\t// out\n        /* \"Simple_Storage.sol\":342:370  Person[] public listOfPeople */\n    tag_18:\n      0x01\n      dup2\n      dup2\n      sload\n      dup2\n      lt\n      tag_43\n      jumpi\n      0x00\n      dup1\n      revert\n    tag_43:\n      swap1\n      0x00\n      mstore\n      keccak256(0x00, 0x20)\n      swap1\n      0x03\n      mul\n      add\n      0x00\n      swap2\n      pop\n      swap1\n      pop\n      dup1\n      0x00\n      add\n      sload\n      swap1\n      dup1\n      0x01\n      add\n      dup1\n      sload\n      tag_45\n      swap1\n      tag_46\n      jump\t// in\n    tag_45:\n      dup1\n      0x1f\n      add\n      0x20\n      dup1\n      swap2\n      div\n      mul\n      0x20\n      add\n      mload(0x40)\n      swap1\n      dup2\n      add\n      0x40\n      mstore\n      dup1\n      swap3\n      swap2\n      swap1\n      dup2\n      dup2\n      mstore\n      0x20\n      add\n      dup3\n      dup1\n      sload\n      tag_47\n      swap1\n      tag_46\n      jump\t// in\n    tag_47:\n      dup1\n      iszero\n      tag_48\n      jumpi\n      dup1\n      0x1f\n      lt\n      tag_49\n      jumpi\n      0x0100\n      dup1\n      dup4\n      sload\n      div\n      mul\n      dup4\n      mstore\n      swap2\n      0x20\n      add\n      swap2\n      jump(tag_48)\n    tag_49:\n      dup3\n      add\n      swap2\n      swap1\n      0x00\n      mstore\n      keccak256(0x00, 0x20)\n      swap1\n    tag_50:\n      dup2\n      sload\n      dup2\n      mstore\n      swap1\n      0x01\n      add\n      swap1\n      0x20\n      add\n      dup1\n      dup4\n      gt\n      tag_50\n      jumpi\n      dup3\n      swap1\n      sub\n      0x1f\n      and\n      dup3\n      add\n      swap2\n    tag_48:\n      pop\n      pop\n      pop\n      pop\n      pop\n      swap1\n      dup1\n      0x02\n      add\n      dup1\n      sload\n      tag_51\n      swap1\n      tag_46\n      jump\t// in\n    tag_51:\n      dup1\n      0x1f\n      add\n      0x20\n      dup1\n      swap2\n      div\n      mul\n      0x20\n      add\n      mload(0x40)\n      swap1\n      dup2\n      add\n      0x40\n      mstore\n      dup1\n      swap3\n      swap2\n      swap1\n      dup2\n      dup2\n      mstore\n      0x20\n      add\n      dup3\n      dup1\n      sload\n      tag_52\n      swap1\n      tag_46\n      jump\t// in\n    tag_52:\n      dup1\n      iszero\n      tag_53\n      jumpi\n      dup1\n      0x1f\n      lt\n      tag_54\n      jumpi\n      0x0100\n      dup1\n      dup4\n      sload\n      div\n      mul\n      dup4\n      mstore\n      swap2\n      0x20\n      add\n      swap2\n      jump(tag_53)\n    tag_54:\n      dup3\n      add\n      swap2\n      swap1\n      0x00\n      mstore\n      keccak256(0x00, 0x20)\n      swap1\n    tag_55:\n      dup2\n      sload\n      dup2\n      mstore\n      swap1\n      0x01\n      add\n      swap1\n      0x20\n      add\n      dup1\n      dup4\n      gt\n      tag_55\n      jumpi\n      dup3\n      swap1\n      sub\n      0x1f\n      and\n      dup3\n      add\n      swap2\n    tag_53:\n      pop\n      pop\n      pop\n      pop\n      pop\n      swap1\n      pop\n      dup4\n      jump\t// out\n        /* \"Simple_Storage.sol\":1016:1322  function addPerson(string memory _name, uint256 _favNumber, string memory _nickName) public {... */\n    tag_24:\n        /* \"Simple_Storage.sol\":1119:1131  listOfPeople */\n      0x01\n        /* \"Simple_Storage.sol\":1138:1173  Person(_favNumber,_name, _nickName) */\n      mload(0x40)\n      dup1\n      0x60\n      add\n      0x40\n      mstore\n      dup1\n        /* \"Simple_Storage.sol\":1145:1155  _favNumber */\n      dup5\n        /* \"Simple_Storage.sol\":1138:1173  Person(_favNumber,_name, _nickName) */\n      dup2\n      mstore\n      0x20\n      add\n        /* \"Simple_Storage.sol\":1156:1161  _name */\n      dup6\n        /* \"Simple_Storage.sol\":1138:1173  Person(_favNumber,_name, _nickName) */\n      dup2\n      mstore\n      0x20\n      add\n        /* \"Simple_Storage.sol\":1163:1172  _nickName */\n      dup4\n        /* \"Simple_Storage.sol\":1138:1173  Person(_favNumber,_name, _nickName) */\n      dup2\n      mstore\n      pop\n        /* \"Simple_Storage.sol\":1119:1174  listOfPeople.push( Person(_favNumber,_name, _nickName)) */\n      swap1\n      dup1\n      0x01\n      dup2\n      sload\n      add\n      dup1\n      dup3\n      sstore\n      dup1\n      swap2\n      pop\n      pop\n      0x01\n      swap1\n      sub\n      swap1\n      0x00\n      mstore\n      keccak256(0x00, 0x20)\n      swap1\n      0x03\n      mul\n      add\n      0x00\n      swap1\n      swap2\n      swap1\n      swap2\n      swap1\n      swap2\n      pop\n      0x00\n      dup3\n      add\n      mload\n      dup2\n      0x00\n      add\n      sstore\n      0x20\n      dup3\n      add\n      mload\n      dup2\n      0x01\n      add\n      swap1\n      dup2\n      tag_58\n      swap2\n      swap1\n      tag_59\n      jump\t// in\n    tag_58:\n      pop\n      0x40\n      dup3\n      add\n      mload\n      dup2\n      0x02\n      add\n      swap1\n      dup2\n      tag_60\n      swap2\n      swap1\n      tag_59\n      jump\t// in\n    tag_60:\n      pop\n      pop\n      pop\n        /* \"Simple_Storage.sol\":1211:1221  _favNumber */\n      dup2\n        /* \"Simple_Storage.sol\":1185:1200  nameToFavNumber */\n      0x02\n        /* \"Simple_Storage.sol\":1202:1207  _name */\n      dup5\n        /* \"Simple_Storage.sol\":1185:1208  nameToFavNumber [_name] */\n      mload(0x40)\n      tag_61\n      swap2\n      swap1\n      tag_62\n      jump\t// in\n    tag_61:\n      swap1\n      dup2\n      mstore\n      0x20\n      add\n      mload(0x40)\n      dup1\n      swap2\n      sub\n      swap1\n      keccak256\n        /* \"Simple_Storage.sol\":1185:1221  nameToFavNumber [_name] = _favNumber */\n      dup2\n      swap1\n      sstore\n      pop\n        /* \"Simple_Storage.sol\":1262:1272  _favNumber */\n      dup2\n        /* \"Simple_Storage.sol\":1232:1248  nickNameToFavNum */\n      0x03\n        /* \"Simple_Storage.sol\":1249:1258  _nickName */\n      dup3\n        /* \"Simple_Storage.sol\":1232:1259  nickNameToFavNum[_nickName] */\n      mload(0x40)\n      tag_63\n      swap2\n      swap1\n      tag_62\n      jump\t// in\n    tag_63:\n      swap1\n      dup2\n      mstore\n      0x20\n      add\n      mload(0x40)\n      dup1\n      swap2\n      sub\n      swap1\n      keccak256\n        /* \"Simple_Storage.sol\":1232:1272  nickNameToFavNum[_nickName] = _favNumber */\n      dup2\n      swap1\n      sstore\n      pop\n        /* \"Simple_Storage.sol\":1305:1314  _nickName */\n      dup1\n        /* \"Simple_Storage.sol\":1283:1295  findNickName */\n      0x04\n        /* \"Simple_Storage.sol\":1296:1301  _name */\n      dup5\n        /* \"Simple_Storage.sol\":1283:1302  findNickName[_name] */\n      mload(0x40)\n      tag_64\n      swap2\n      swap1\n      tag_62\n      jump\t// in\n    tag_64:\n      swap1\n      dup2\n      mstore\n      0x20\n      add\n      mload(0x40)\n      dup1\n      swap2\n      sub\n      swap1\n      keccak256\n        /* \"Simple_Storage.sol\":1283:1314  findNickName[_name] = _nickName */\n      swap1\n      dup2\n      tag_65\n      swap2\n      swap1\n      tag_59\n      jump\t// in\n    tag_65:\n      pop\n        /* \"Simple_Storage.sol\":1016:1322  function addPerson(string memory _name, uint256 _favNumber, string memory _nickName) public {... */\n      pop\n      pop\n      pop\n      jump\t// out\n        /* \"Simple_Storage.sol\":506:561  mapping(string _name => uint256) public nameToFavNumber */\n    tag_28:\n      0x02\n      dup2\n      dup1\n      mload\n      0x20\n      dup2\n      add\n      dup3\n      add\n      dup1\n      mload\n      dup5\n      dup3\n      mstore\n      0x20\n      dup4\n      add\n      0x20\n      dup6\n      add\n      keccak256\n      dup2\n      dup4\n      mstore\n      dup1\n      swap6\n      pop\n      pop\n      pop\n      pop\n      pop\n      pop\n      0x00\n      swap2\n      pop\n      swap1\n      pop\n      sload\n      dup2\n      jump\t// out\n        /* \"Simple_Storage.sol\":705:791  function store (uint256 _favNumber) public {... */\n    tag_32:\n        /* \"Simple_Storage.sol\":773:783  _favNumber */\n      dup1\n        /* \"Simple_Storage.sol\":759:770  myFavNumber */\n      0x00\n        /* \"Simple_Storage.sol\":759:783  myFavNumber = _favNumber */\n      dup2\n      swap1\n      sstore\n      pop\n        /* \"Simple_Storage.sol\":705:791  function store (uint256 _favNumber) public {... */\n      pop\n      jump\t// out\n        /* \"Simple_Storage.sol\":635:696  mapping(string _name => string _nickName) public findNickName */\n    tag_35:\n      0x04\n      dup2\n      dup1\n      mload\n      0x20\n      dup2\n      add\n      dup3\n      add\n      dup1\n      mload\n      dup5\n      dup3\n      mstore\n      0x20\n      dup4\n      add\n      0x20\n      dup6\n      add\n      keccak256\n      dup2\n      dup4\n      mstore\n      dup1\n      swap6\n      pop\n      pop\n      pop\n      pop\n      pop\n      pop\n      0x00\n      swap2\n      pop\n      swap1\n      pop\n      dup1\n      sload\n      tag_67\n      swap1\n      tag_46\n      jump\t// in\n    tag_67:\n      dup1\n      0x1f\n      add\n      0x20\n      dup1\n      swap2\n      div\n      mul\n      0x20\n      add\n      mload(0x40)\n      swap1\n      dup2\n      add\n      0x40\n      mstore\n      dup1\n      swap3\n      swap2\n      swap1\n      dup2\n      dup2\n      mstore\n      0x20\n      add\n      dup3\n      dup1\n      sload\n      tag_68\n      swap1\n      tag_46\n      jump\t// in\n    tag_68:\n      dup1\n      iszero\n      tag_69\n      jumpi\n      dup1\n      0x1f\n      lt\n      tag_70\n      jumpi\n      0x0100\n      dup1\n      dup4\n      sload\n      div\n      mul\n      dup4\n      mstore\n      swap2\n      0x20\n      add\n      swap2\n      jump(tag_69)\n    tag_70:\n      dup3\n      add\n      swap2\n      swap1\n      0x00\n      mstore\n      keccak256(0x00, 0x20)\n      swap1\n    tag_71:\n      dup2\n      sload\n      dup2\n      mstore\n      swap1\n      0x01\n      add\n      swap1\n      0x20\n      add\n      dup1\n      dup4\n      gt\n      tag_71\n      jumpi\n      dup3\n      swap1\n      sub\n      0x1f\n      and\n      dup3\n      add\n      swap2\n    tag_69:\n      pop\n      pop\n      pop\n      pop\n      pop\n      dup2\n      jump\t// out\n        /* \"Simple_Storage.sol\":568:628  mapping(string _nickName => uint256) public nickNameToFavNum */\n    tag_40:\n      0x03\n      dup2\n      dup1\n      mload\n      0x20\n      dup2\n      add\n      dup3\n      add\n      dup1\n      mload\n      dup5\n      dup3\n      mstore\n      0x20\n      dup4\n      add\n      0x20\n      dup6\n      add\n      keccak256\n      dup2\n      dup4\n      mstore\n      dup1\n      swap6\n      pop\n      pop\n      pop\n      pop\n      pop\n      pop\n      0x00\n      swap2\n      pop\n      swap1\n      pop\n      sload\n      dup2\n      jump\t// out\n        /* \"#utility.yul\":7:84   */\n    tag_72:\n        /* \"#utility.yul\":44:51   */\n      0x00\n        /* \"#utility.yul\":73:78   */\n      dup2\n        /* \"#utility.yul\":62:78   */\n      swap1\n      pop\n        /* \"#utility.yul\":7:84   */\n      swap2\n      swap1\n      pop\n      jump\t// out\n        /* \"#utility.yul\":90:208   */\n    tag_73:\n        /* \"#utility.yul\":177:201   */\n      tag_114\n        /* \"#utility.yul\":195:200   */\n      dup2\n        /* \"#utility.yul\":177:201   */\n      tag_72\n      jump\t// in\n    tag_114:\n        /* \"#utility.yul\":172:175   */\n      dup3\n        /* \"#utility.yul\":165:202   */\n      mstore\n        /* \"#utility.yul\":90:208   */\n      pop\n      pop\n      jump\t// out\n        /* \"#utility.yul\":214:436   */\n    tag_14:\n        /* \"#utility.yul\":307:311   */\n      0x00\n        /* \"#utility.yul\":345:347   */\n      0x20\n        /* \"#utility.yul\":334:343   */\n      dup3\n        /* \"#utility.yul\":330:348   */\n      add\n        /* \"#utility.yul\":322:348   */\n      swap1\n      pop\n        /* \"#utility.yul\":358:429   */\n      tag_116\n        /* \"#utility.yul\":426:427   */\n      0x00\n        /* \"#utility.yul\":415:424   */\n      dup4\n        /* \"#utility.yul\":411:428   */\n      add\n        /* \"#utility.yul\":402:408   */\n      dup5\n        /* \"#utility.yul\":358:429   */\n      tag_73\n      jump\t// in\n    tag_116:\n        /* \"#utility.yul\":214:436   */\n      swap3\n      swap2\n      pop\n      pop\n      jump\t// out\n        /* \"#utility.yul\":442:517   */\n    tag_74:\n        /* \"#utility.yul\":475:481   */\n      0x00\n        /* \"#utility.yul\":508:510   */\n      0x40\n        /* \"#utility.yul\":502:511   */\n      mload\n        /* \"#utility.yul\":492:511   */\n      swap1\n      pop\n        /* \"#utility.yul\":442:517   */\n      swap1\n      jump\t// out\n        /* \"#utility.yul\":523:640   */\n    tag_75:\n        /* \"#utility.yul\":632:633   */\n      0x00\n        /* \"#utility.yul\":629:630   */\n      0x00\n        /* \"#utility.yul\":622:634   */\n      revert\n        /* \"#utility.yul\":646:763   */\n    tag_76:\n        /* \"#utility.yul\":755:756   */\n      0x00\n        /* \"#utility.yul\":752:753   */\n      0x00\n        /* \"#utility.yul\":745:757   */\n      revert\n        /* \"#utility.yul\":769:891   */\n    tag_77:\n        /* \"#utility.yul\":842:866   */\n      tag_121\n        /* \"#utility.yul\":860:865   */\n      dup2\n        /* \"#utility.yul\":842:866   */\n      tag_72\n      jump\t// in\n    tag_121:\n        /* \"#utility.yul\":835:840   */\n      dup2\n        /* \"#utility.yul\":832:867   */\n      eq\n        /* \"#utility.yul\":822:885   */\n      tag_122\n      jumpi\n        /* \"#utility.yul\":881:882   */\n      0x00\n        /* \"#utility.yul\":878:879   */\n      0x00\n        /* \"#utility.yul\":871:883   */\n      revert\n        /* \"#utility.yul\":822:885   */\n    tag_122:\n        /* \"#utility.yul\":769:891   */\n      pop\n      jump\t// out\n        /* \"#utility.yul\":897:1036   */\n    tag_78:\n        /* \"#utility.yul\":943:948   */\n      0x00\n        /* \"#utility.yul\":981:987   */\n      dup2\n        /* \"#utility.yul\":968:988   */\n      calldataload\n        /* \"#utility.yul\":959:988   */\n      swap1\n      pop\n        /* \"#utility.yul\":997:1030   */\n      tag_124\n        /* \"#utility.yul\":1024:1029   */\n      dup2\n        /* \"#utility.yul\":997:1030   */\n      tag_77\n      jump\t// in\n    tag_124:\n        /* \"#utility.yul\":897:1036   */\n      swap3\n      swap2\n      pop\n      pop\n      jump\t// out\n        /* \"#utility.yul\":1042:1371   */\n    tag_17:\n        /* \"#utility.yul\":1101:1107   */\n      0x00\n        /* \"#utility.yul\":1150:1152   */\n      0x20\n        /* \"#utility.yul\":1138:1147   */\n      dup3\n        /* \"#utility.yul\":1129:1136   */\n      dup5\n        /* \"#utility.yul\":1125:1148   */\n      sub\n        /* \"#utility.yul\":1121:1153   */\n      slt\n        /* \"#utility.yul\":1118:1237   */\n      iszero\n      tag_126\n      jumpi\n        /* \"#utility.yul\":1156:1235   */\n      tag_127\n      tag_75\n      jump\t// in\n    tag_127:\n        /* \"#utility.yul\":1118:1237   */\n    tag_126:\n        /* \"#utility.yul\":1276:1277   */\n      0x00\n        /* \"#utility.yul\":1301:1354   */\n      tag_128\n        /* \"#utility.yul\":1346:1353   */\n      dup5\n        /* \"#utility.yul\":1337:1343   */\n      dup3\n        /* \"#utility.yul\":1326:1335   */\n      dup6\n        /* \"#utility.yul\":1322:1344   */\n      add\n        /* \"#utility.yul\":1301:1354   */\n      tag_78\n      jump\t// in\n    tag_128:\n        /* \"#utility.yul\":1291:1354   */\n      swap2\n      pop\n        /* \"#utility.yul\":1247:1364   */\n      pop\n        /* \"#utility.yul\":1042:1371   */\n      swap3\n      swap2\n      pop\n      pop\n      jump\t// out\n        /* \"#utility.yul\":1377:1476   */\n    tag_79:\n        /* \"#utility.yul\":1429:1435   */\n      0x00\n        /* \"#utility.yul\":1463:1468   */\n      dup2\n        /* \"#utility.yul\":1457:1469   */\n      mload\n        /* \"#utility.yul\":1447:1469   */\n      swap1\n      pop\n        /* \"#utility.yul\":1377:1476   */\n      swap2\n      swap1\n      pop\n      jump\t// out\n        /* \"#utility.yul\":1482:1651   */\n    tag_80:\n        /* \"#utility.yul\":1566:1577   */\n      0x00\n        /* \"#utility.yul\":1600:1606   */\n      dup3\n        /* \"#utility.yul\":1595:1598   */\n      dup3\n        /* \"#utility.yul\":1588:1607   */\n      mstore\n        /* \"#utility.yul\":1640:1644   */\n      0x20\n        /* \"#utility.yul\":1635:1638   */\n      dup3\n        /* \"#utility.yul\":1631:1645   */\n      add\n        /* \"#utility.yul\":1616:1645   */\n      swap1\n      pop\n        /* \"#utility.yul\":1482:1651   */\n      swap3\n      swap2\n      pop\n      pop\n      jump\t// out\n        /* \"#utility.yul\":1657:1796   */\n    tag_81:\n        /* \"#utility.yul\":1746:1752   */\n      dup3\n        /* \"#utility.yul\":1741:1744   */\n      dup2\n        /* \"#utility.yul\":1736:1739   */\n      dup4\n        /* \"#utility.yul\":1730:1753   */\n      mcopy\n        /* \"#utility.yul\":1787:1788   */\n      0x00\n        /* \"#utility.yul\":1778:1784   */\n      dup4\n        /* \"#utility.yul\":1773:1776   */\n      dup4\n        /* \"#utility.yul\":1769:1785   */\n      add\n        /* \"#utility.yul\":1762:1789   */\n      mstore\n        /* \"#utility.yul\":1657:1796   */\n      pop\n      pop\n      pop\n      jump\t// out\n        /* \"#utility.yul\":1802:1904   */\n    tag_82:\n        /* \"#utility.yul\":1843:1849   */\n      0x00\n        /* \"#utility.yul\":1894:1896   */\n      0x1f\n        /* \"#utility.yul\":1890:1897   */\n      not\n        /* \"#utility.yul\":1885:1887   */\n      0x1f\n        /* \"#utility.yul\":1878:1883   */\n      dup4\n        /* \"#utility.yul\":1874:1888   */\n      add\n        /* \"#utility.yul\":1870:1898   */\n      and\n        /* \"#utility.yul\":1860:1898   */\n      swap1\n      pop\n        /* \"#utility.yul\":1802:1904   */\n      swap2\n      swap1\n      pop\n      jump\t// out\n        /* \"#utility.yul\":1910:2287   */\n    tag_83:\n        /* \"#utility.yul\":1998:2001   */\n      0x00\n        /* \"#utility.yul\":2026:2065   */\n      tag_134\n        /* \"#utility.yul\":2059:2064   */\n      dup3\n        /* \"#utility.yul\":2026:2065   */\n      tag_79\n      jump\t// in\n    tag_134:\n        /* \"#utility.yul\":2081:2152   */\n      tag_135\n        /* \"#utility.yul\":2145:2151   */\n      dup2\n        /* \"#utility.yul\":2140:2143   */\n      dup6\n        /* \"#utility.yul\":2081:2152   */\n      tag_80\n      jump\t// in\n    tag_135:\n        /* \"#utility.yul\":2074:2152   */\n      swap4\n      pop\n        /* \"#utility.yul\":2161:2226   */\n      tag_136\n        /* \"#utility.yul\":2219:2225   */\n      dup2\n        /* \"#utility.yul\":2214:2217   */\n      dup6\n        /* \"#utility.yul\":2207:2211   */\n      0x20\n        /* \"#utility.yul\":2200:2205   */\n      dup7\n        /* \"#utility.yul\":2196:2212   */\n      add\n        /* \"#utility.yul\":2161:2226   */\n      tag_81\n      jump\t// in\n    tag_136:\n        /* \"#utility.yul\":2251:2280   */\n      tag_137\n        /* \"#utility.yul\":2273:2279   */\n      dup2\n        /* \"#utility.yul\":2251:2280   */\n      tag_82\n      jump\t// in\n    tag_137:\n        /* \"#utility.yul\":2246:2249   */\n      dup5\n        /* \"#utility.yul\":2242:2281   */\n      add\n        /* \"#utility.yul\":2235:2281   */\n      swap2\n      pop\n        /* \"#utility.yul\":2002:2287   */\n      pop\n        /* \"#utility.yul\":1910:2287   */\n      swap3\n      swap2\n      pop\n      pop\n      jump\t// out\n        /* \"#utility.yul\":2293:2917   */\n    tag_20:\n        /* \"#utility.yul\":2482:2486   */\n      0x00\n        /* \"#utility.yul\":2520:2522   */\n      0x60\n        /* \"#utility.yul\":2509:2518   */\n      dup3\n        /* \"#utility.yul\":2505:2523   */\n      add\n        /* \"#utility.yul\":2497:2523   */\n      swap1\n      pop\n        /* \"#utility.yul\":2533:2604   */\n      tag_139\n        /* \"#utility.yul\":2601:2602   */\n      0x00\n        /* \"#utility.yul\":2590:2599   */\n      dup4\n        /* \"#utility.yul\":2586:2603   */\n      add\n        /* \"#utility.yul\":2577:2583   */\n      dup7\n        /* \"#utility.yul\":2533:2604   */\n      tag_73\n      jump\t// in\n    tag_139:\n        /* \"#utility.yul\":2651:2660   */\n      dup2\n        /* \"#utility.yul\":2645:2649   */\n      dup2\n        /* \"#utility.yul\":2641:2661   */\n      sub\n        /* \"#utility.yul\":2636:2638   */\n      0x20\n        /* \"#utility.yul\":2625:2634   */\n      dup4\n        /* \"#utility.yul\":2621:2639   */\n      add\n        /* \"#utility.yul\":2614:2662   */\n      mstore\n        /* \"#utility.yul\":2679:2757   */\n      tag_140\n        /* \"#utility.yul\":2752:2756   */\n      dup2\n        /* \"#utility.yul\":2743:2749   */\n      dup6\n        /* \"#utility.yul\":2679:2757   */\n      tag_83\n      jump\t// in\n    tag_140:\n        /* \"#utility.yul\":2671:2757   */\n      swap1\n      pop\n        /* \"#utility.yul\":2804:2813   */\n      dup2\n        /* \"#utility.yul\":2798:2802   */\n      dup2\n        /* \"#utility.yul\":2794:2814   */\n      sub\n        /* \"#utility.yul\":2789:2791   */\n      0x40\n        /* \"#utility.yul\":2778:2787   */\n      dup4\n        /* \"#utility.yul\":2774:2792   */\n      add\n        /* \"#utility.yul\":2767:2815   */\n      mstore\n        /* \"#utility.yul\":2832:2910   */\n      tag_141\n        /* \"#utility.yul\":2905:2909   */\n      dup2\n        /* \"#utility.yul\":2896:2902   */\n      dup5\n        /* \"#utility.yul\":2832:2910   */\n      tag_83\n      jump\t// in\n    tag_141:\n        /* \"#utility.yul\":2824:2910   */\n      swap1\n      pop\n        /* \"#utility.yul\":2293:2917   */\n      swap5\n      swap4\n      pop\n      pop\n      pop\n      pop\n      jump\t// out\n        /* \"#utility.yul\":2923:3040   */\n    tag_84:\n        /* \"#utility.yul\":3032:3033   */\n      0x00\n        /* \"#utility.yul\":3029:3030   */\n      0x00\n        /* \"#utility.yul\":3022:3034   */\n      revert\n        /* \"#utility.yul\":3046:3163   */\n    tag_85:\n        /* \"#utility.yul\":3155:3156   */\n      0x00\n        /* \"#utility.yul\":3152:3153   */\n      0x00\n        /* \"#utility.yul\":3145:3157   */\n      revert\n        /* \"#utility.yul\":3169:3349   */\n    tag_86:\n        /* \"#utility.yul\":3217:3294   */\n      0x4e487b7100000000000000000000000000000000000000000000000000000000\n        /* \"#utility.yul\":3214:3215   */\n      0x00\n        /* \"#utility.yul\":3207:3295   */\n      mstore\n        /* \"#utility.yul\":3314:3318   */\n      0x41\n        /* \"#utility.yul\":3311:3312   */\n      0x04\n        /* \"#utility.yul\":3304:3319   */\n      mstore\n        /* \"#utility.yul\":3338:3342   */\n      0x24\n        /* \"#utility.yul\":3335:3336   */\n      0x00\n        /* \"#utility.yul\":3328:3343   */\n      revert\n        /* \"#utility.yul\":3355:3636   */\n    tag_87:\n        /* \"#utility.yul\":3438:3465   */\n      tag_146\n        /* \"#utility.yul\":3460:3464   */\n      dup3\n        /* \"#utility.yul\":3438:3465   */\n      tag_82\n      jump\t// in\n    tag_146:\n        /* \"#utility.yul\":3430:3436   */\n      dup2\n        /* \"#utility.yul\":3426:3466   */\n      add\n        /* \"#utility.yul\":3568:3574   */\n      dup2\n        /* \"#utility.yul\":3556:3566   */\n      dup2\n        /* \"#utility.yul\":3553:3575   */\n      lt\n        /* \"#utility.yul\":3532:3550   */\n      0xffffffffffffffff\n        /* \"#utility.yul\":3520:3530   */\n      dup3\n        /* \"#utility.yul\":3517:3551   */\n      gt\n        /* \"#utility.yul\":3514:3576   */\n      or\n        /* \"#utility.yul\":3511:3599   */\n      iszero\n      tag_147\n      jumpi\n        /* \"#utility.yul\":3579:3597   */\n      tag_148\n      tag_86\n      jump\t// in\n    tag_148:\n        /* \"#utility.yul\":3511:3599   */\n    tag_147:\n        /* \"#utility.yul\":3619:3629   */\n      dup1\n        /* \"#utility.yul\":3615:3617   */\n      0x40\n        /* \"#utility.yul\":3608:3630   */\n      mstore\n        /* \"#utility.yul\":3398:3636   */\n      pop\n        /* \"#utility.yul\":3355:3636   */\n      pop\n      pop\n      jump\t// out\n        /* \"#utility.yul\":3642:3771   */\n    tag_88:\n        /* \"#utility.yul\":3676:3682   */\n      0x00\n        /* \"#utility.yul\":3703:3723   */\n      tag_150\n      tag_74\n      jump\t// in\n    tag_150:\n        /* \"#utility.yul\":3693:3723   */\n      swap1\n      pop\n        /* \"#utility.yul\":3732:3765   */\n      tag_151\n        /* \"#utility.yul\":3760:3764   */\n      dup3\n        /* \"#utility.yul\":3752:3758   */\n      dup3\n        /* \"#utility.yul\":3732:3765   */\n      tag_87\n      jump\t// in\n    tag_151:\n        /* \"#utility.yul\":3642:3771   */\n      swap2\n      swap1\n      pop\n      jump\t// out\n        /* \"#utility.yul\":3777:4085   */\n    tag_89:\n        /* \"#utility.yul\":3839:3843   */\n      0x00\n        /* \"#utility.yul\":3929:3947   */\n      0xffffffffffffffff\n        /* \"#utility.yul\":3921:3927   */\n      dup3\n        /* \"#utility.yul\":3918:3948   */\n      gt\n        /* \"#utility.yul\":3915:3971   */\n      iszero\n      tag_153\n      jumpi\n        /* \"#utility.yul\":3951:3969   */\n      tag_154\n      tag_86\n      jump\t// in\n    tag_154:\n        /* \"#utility.yul\":3915:3971   */\n    tag_153:\n        /* \"#utility.yul\":3989:4018   */\n      tag_155\n        /* \"#utility.yul\":4011:4017   */\n      dup3\n        /* \"#utility.yul\":3989:4018   */\n      tag_82\n      jump\t// in\n    tag_155:\n        /* \"#utility.yul\":3981:4018   */\n      swap1\n      pop\n        /* \"#utility.yul\":4073:4077   */\n      0x20\n        /* \"#utility.yul\":4067:4071   */\n      dup2\n        /* \"#utility.yul\":4063:4078   */\n      add\n        /* \"#utility.yul\":4055:4078   */\n      swap1\n      pop\n        /* \"#utility.yul\":3777:4085   */\n      swap2\n      swap1\n      pop\n      jump\t// out\n        /* \"#utility.yul\":4091:4239   */\n    tag_90:\n        /* \"#utility.yul\":4189:4195   */\n      dup3\n        /* \"#utility.yul\":4184:4187   */\n      dup2\n        /* \"#utility.yul\":4179:4182   */\n      dup4\n        /* \"#utility.yul\":4166:4196   */\n      calldatacopy\n        /* \"#utility.yul\":4230:4231   */\n      0x00\n        /* \"#utility.yul\":4221:4227   */\n      dup4\n        /* \"#utility.yul\":4216:4219   */\n      dup4\n        /* \"#utility.yul\":4212:4228   */\n      add\n        /* \"#utility.yul\":4205:4232   */\n      mstore\n        /* \"#utility.yul\":4091:4239   */\n      pop\n      pop\n      pop\n      jump\t// out\n        /* \"#utility.yul\":4245:4670   */\n    tag_91:\n        /* \"#utility.yul\":4323:4328   */\n      0x00\n        /* \"#utility.yul\":4348:4414   */\n      tag_158\n        /* \"#utility.yul\":4364:4413   */\n      tag_159\n        /* \"#utility.yul\":4406:4412   */\n      dup5\n        /* \"#utility.yul\":4364:4413   */\n      tag_89\n      jump\t// in\n    tag_159:\n        /* \"#utility.yul\":4348:4414   */\n      tag_88\n      jump\t// in\n    tag_158:\n        /* \"#utility.yul\":4339:4414   */\n      swap1\n      pop\n        /* \"#utility.yul\":4437:4443   */\n      dup3\n        /* \"#utility.yul\":4430:4435   */\n      dup2\n        /* \"#utility.yul\":4423:4444   */\n      mstore\n        /* \"#utility.yul\":4475:4479   */\n      0x20\n        /* \"#utility.yul\":4468:4473   */\n      dup2\n        /* \"#utility.yul\":4464:4480   */\n      add\n        /* \"#utility.yul\":4513:4516   */\n      dup5\n        /* \"#utility.yul\":4504:4510   */\n      dup5\n        /* \"#utility.yul\":4499:4502   */\n      dup5\n        /* \"#utility.yul\":4495:4511   */\n      add\n        /* \"#utility.yul\":4492:4517   */\n      gt\n        /* \"#utility.yul\":4489:4601   */\n      iszero\n      tag_160\n      jumpi\n        /* \"#utility.yul\":4520:4599   */\n      tag_161\n      tag_85\n      jump\t// in\n    tag_161:\n        /* \"#utility.yul\":4489:4601   */\n    tag_160:\n        /* \"#utility.yul\":4610:4664   */\n      tag_162\n        /* \"#utility.yul\":4657:4663   */\n      dup5\n        /* \"#utility.yul\":4652:4655   */\n      dup3\n        /* \"#utility.yul\":4647:4650   */\n      dup6\n        /* \"#utility.yul\":4610:4664   */\n      tag_90\n      jump\t// in\n    tag_162:\n        /* \"#utility.yul\":4329:4670   */\n      pop\n        /* \"#utility.yul\":4245:4670   */\n      swap4\n      swap3\n      pop\n      pop\n      pop\n      jump\t// out\n        /* \"#utility.yul\":4690:5030   */\n    tag_92:\n        /* \"#utility.yul\":4746:4751   */\n      0x00\n        /* \"#utility.yul\":4795:4798   */\n      dup3\n        /* \"#utility.yul\":4788:4792   */\n      0x1f\n        /* \"#utility.yul\":4780:4786   */\n      dup4\n        /* \"#utility.yul\":4776:4793   */\n      add\n        /* \"#utility.yul\":4772:4799   */\n      slt\n        /* \"#utility.yul\":4762:4884   */\n      tag_164\n      jumpi\n        /* \"#utility.yul\":4803:4882   */\n      tag_165\n      tag_84\n      jump\t// in\n    tag_165:\n        /* \"#utility.yul\":4762:4884   */\n    tag_164:\n        /* \"#utility.yul\":4920:4926   */\n      dup2\n        /* \"#utility.yul\":4907:4927   */\n      calldataload\n        /* \"#utility.yul\":4945:5024   */\n      tag_166\n        /* \"#utility.yul\":5020:5023   */\n      dup5\n        /* \"#utility.yul\":5012:5018   */\n      dup3\n        /* \"#utility.yul\":5005:5009   */\n      0x20\n        /* \"#utility.yul\":4997:5003   */\n      dup7\n        /* \"#utility.yul\":4993:5010   */\n      add\n        /* \"#utility.yul\":4945:5024   */\n      tag_91\n      jump\t// in\n    tag_166:\n        /* \"#utility.yul\":4936:5024   */\n      swap2\n      pop\n        /* \"#utility.yul\":4752:5030   */\n      pop\n        /* \"#utility.yul\":4690:5030   */\n      swap3\n      swap2\n      pop\n      pop\n      jump\t// out\n        /* \"#utility.yul\":5036:6015   */\n    tag_23:\n        /* \"#utility.yul\":5133:5139   */\n      0x00\n        /* \"#utility.yul\":5141:5147   */\n      0x00\n        /* \"#utility.yul\":5149:5155   */\n      0x00\n        /* \"#utility.yul\":5198:5200   */\n      0x60\n        /* \"#utility.yul\":5186:5195   */\n      dup5\n        /* \"#utility.yul\":5177:5184   */\n      dup7\n        /* \"#utility.yul\":5173:5196   */\n      sub\n        /* \"#utility.yul\":5169:5201   */\n      slt\n        /* \"#utility.yul\":5166:5285   */\n      iszero\n      tag_168\n      jumpi\n        /* \"#utility.yul\":5204:5283   */\n      tag_169\n      tag_75\n      jump\t// in\n    tag_169:\n        /* \"#utility.yul\":5166:5285   */\n    tag_168:\n        /* \"#utility.yul\":5352:5353   */\n      0x00\n        /* \"#utility.yul\":5341:5350   */\n      dup5\n        /* \"#utility.yul\":5337:5354   */\n      add\n        /* \"#utility.yul\":5324:5355   */\n      calldataload\n        /* \"#utility.yul\":5382:5400   */\n      0xffffffffffffffff\n        /* \"#utility.yul\":5374:5380   */\n      dup2\n        /* \"#utility.yul\":5371:5401   */\n      gt\n        /* \"#utility.yul\":5368:5485   */\n      iszero\n      tag_170\n      jumpi\n        /* \"#utility.yul\":5404:5483   */\n      tag_171\n      tag_76\n      jump\t// in\n    tag_171:\n        /* \"#utility.yul\":5368:5485   */\n    tag_170:\n        /* \"#utility.yul\":5509:5572   */\n      tag_172\n        /* \"#utility.yul\":5564:5571   */\n      dup7\n        /* \"#utility.yul\":5555:5561   */\n      dup3\n        /* \"#utility.yul\":5544:5553   */\n      dup8\n        /* \"#utility.yul\":5540:5562   */\n      add\n        /* \"#utility.yul\":5509:5572   */\n      tag_92\n      jump\t// in\n    tag_172:\n        /* \"#utility.yul\":5499:5572   */\n      swap4\n      pop\n        /* \"#utility.yul\":5295:5582   */\n      pop\n        /* \"#utility.yul\":5621:5623   */\n      0x20\n        /* \"#utility.yul\":5647:5700   */\n      tag_173\n        /* \"#utility.yul\":5692:5699   */\n      dup7\n        /* \"#utility.yul\":5683:5689   */\n      dup3\n        /* \"#utility.yul\":5672:5681   */\n      dup8\n        /* \"#utility.yul\":5668:5690   */\n      add\n        /* \"#utility.yul\":5647:5700   */\n      tag_78\n      jump\t// in\n    tag_173:\n        /* \"#utility.yul\":5637:5700   */\n      swap3\n      pop\n        /* \"#utility.yul\":5592:5710   */\n      pop\n        /* \"#utility.yul\":5777:5779   */\n      0x40\n        /* \"#utility.yul\":5766:5775   */\n      dup5\n        /* \"#utility.yul\":5762:5780   */\n      add\n        /* \"#utility.yul\":5749:5781   */\n      calldataload\n        /* \"#utility.yul\":5808:5826   */\n      0xffffffffffffffff\n        /* \"#utility.yul\":5800:5806   */\n      dup2\n        /* \"#utility.yul\":5797:5827   */\n      gt\n        /* \"#utility.yul\":5794:5911   */\n      iszero\n      tag_174\n      jumpi\n        /* \"#utility.yul\":5830:5909   */\n      tag_175\n      tag_76\n      jump\t// in\n    tag_175:\n        /* \"#utility.yul\":5794:5911   */\n    tag_174:\n        /* \"#utility.yul\":5935:5998   */\n      tag_176\n        /* \"#utility.yul\":5990:5997   */\n      dup7\n        /* \"#utility.yul\":5981:5987   */\n      dup3\n        /* \"#utility.yul\":5970:5979   */\n      dup8\n        /* \"#utility.yul\":5966:5988   */\n      add\n        /* \"#utility.yul\":5935:5998   */\n      tag_92\n      jump\t// in\n    tag_176:\n        /* \"#utility.yul\":5925:5998   */\n      swap2\n      pop\n        /* \"#utility.yul\":5720:6008   */\n      pop\n        /* \"#utility.yul\":5036:6015   */\n      swap3\n      pop\n      swap3\n      pop\n      swap3\n      jump\t// out\n        /* \"#utility.yul\":6021:6530   */\n    tag_27:\n        /* \"#utility.yul\":6090:6096   */\n      0x00\n        /* \"#utility.yul\":6139:6141   */\n      0x20\n        /* \"#utility.yul\":6127:6136   */\n      dup3\n        /* \"#utility.yul\":6118:6125   */\n      dup5\n        /* \"#utility.yul\":6114:6137   */\n      sub\n        /* \"#utility.yul\":6110:6142   */\n      slt\n        /* \"#utility.yul\":6107:6226   */\n      iszero\n      tag_178\n      jumpi\n        /* \"#utility.yul\":6145:6224   */\n      tag_179\n      tag_75\n      jump\t// in\n    tag_179:\n        /* \"#utility.yul\":6107:6226   */\n    tag_178:\n        /* \"#utility.yul\":6293:6294   */\n      0x00\n        /* \"#utility.yul\":6282:6291   */\n      dup3\n        /* \"#utility.yul\":6278:6295   */\n      add\n        /* \"#utility.yul\":6265:6296   */\n      calldataload\n        /* \"#utility.yul\":6323:6341   */\n      0xffffffffffffffff\n        /* \"#utility.yul\":6315:6321   */\n      dup2\n        /* \"#utility.yul\":6312:6342   */\n      gt\n        /* \"#utility.yul\":6309:6426   */\n      iszero\n      tag_180\n      jumpi\n        /* \"#utility.yul\":6345:6424   */\n      tag_181\n      tag_76\n      jump\t// in\n    tag_181:\n        /* \"#utility.yul\":6309:6426   */\n    tag_180:\n        /* \"#utility.yul\":6450:6513   */\n      tag_182\n        /* \"#utility.yul\":6505:6512   */\n      dup5\n        /* \"#utility.yul\":6496:6502   */\n      dup3\n        /* \"#utility.yul\":6485:6494   */\n      dup6\n        /* \"#utility.yul\":6481:6503   */\n      add\n        /* \"#utility.yul\":6450:6513   */\n      tag_92\n      jump\t// in\n    tag_182:\n        /* \"#utility.yul\":6440:6513   */\n      swap2\n      pop\n        /* \"#utility.yul\":6236:6523   */\n      pop\n        /* \"#utility.yul\":6021:6530   */\n      swap3\n      swap2\n      pop\n      pop\n      jump\t// out\n        /* \"#utility.yul\":6536:6849   */\n    tag_37:\n        /* \"#utility.yul\":6649:6653   */\n      0x00\n        /* \"#utility.yul\":6687:6689   */\n      0x20\n        /* \"#utility.yul\":6676:6685   */\n      dup3\n        /* \"#utility.yul\":6672:6690   */\n      add\n        /* \"#utility.yul\":6664:6690   */\n      swap1\n      pop\n        /* \"#utility.yul\":6736:6745   */\n      dup2\n        /* \"#utility.yul\":6730:6734   */\n      dup2\n        /* \"#utility.yul\":6726:6746   */\n      sub\n        /* \"#utility.yul\":6722:6723   */\n      0x00\n        /* \"#utility.yul\":6711:6720   */\n      dup4\n        /* \"#utility.yul\":6707:6724   */\n      add\n        /* \"#utility.yul\":6700:6747   */\n      mstore\n        /* \"#utility.yul\":6764:6842   */\n      tag_184\n        /* \"#utility.yul\":6837:6841   */\n      dup2\n        /* \"#utility.yul\":6828:6834   */\n      dup5\n        /* \"#utility.yul\":6764:6842   */\n      tag_83\n      jump\t// in\n    tag_184:\n        /* \"#utility.yul\":6756:6842   */\n      swap1\n      pop\n        /* \"#utility.yul\":6536:6849   */\n      swap3\n      swap2\n      pop\n      pop\n      jump\t// out\n        /* \"#utility.yul\":6855:7035   */\n    tag_93:\n        /* \"#utility.yul\":6903:6980   */\n      0x4e487b7100000000000000000000000000000000000000000000000000000000\n        /* \"#utility.yul\":6900:6901   */\n      0x00\n        /* \"#utility.yul\":6893:6981   */\n      mstore\n        /* \"#utility.yul\":7000:7004   */\n      0x22\n        /* \"#utility.yul\":6997:6998   */\n      0x04\n        /* \"#utility.yul\":6990:7005   */\n      mstore\n        /* \"#utility.yul\":7024:7028   */\n      0x24\n        /* \"#utility.yul\":7021:7022   */\n      0x00\n        /* \"#utility.yul\":7014:7029   */\n      revert\n        /* \"#utility.yul\":7041:7361   */\n    tag_46:\n        /* \"#utility.yul\":7085:7091   */\n      0x00\n        /* \"#utility.yul\":7122:7123   */\n      0x02\n        /* \"#utility.yul\":7116:7120   */\n      dup3\n        /* \"#utility.yul\":7112:7124   */\n      div\n        /* \"#utility.yul\":7102:7124   */\n      swap1\n      pop\n        /* \"#utility.yul\":7169:7170   */\n      0x01\n        /* \"#utility.yul\":7163:7167   */\n      dup3\n        /* \"#utility.yul\":7159:7171   */\n      and\n        /* \"#utility.yul\":7190:7208   */\n      dup1\n        /* \"#utility.yul\":7180:7261   */\n      tag_187\n      jumpi\n        /* \"#utility.yul\":7246:7250   */\n      0x7f\n        /* \"#utility.yul\":7238:7244   */\n      dup3\n        /* \"#utility.yul\":7234:7251   */\n      and\n        /* \"#utility.yul\":7224:7251   */\n      swap2\n      pop\n        /* \"#utility.yul\":7180:7261   */\n    tag_187:\n        /* \"#utility.yul\":7308:7310   */\n      0x20\n        /* \"#utility.yul\":7300:7306   */\n      dup3\n        /* \"#utility.yul\":7297:7311   */\n      lt\n        /* \"#utility.yul\":7277:7295   */\n      dup2\n        /* \"#utility.yul\":7274:7312   */\n      sub\n        /* \"#utility.yul\":7271:7355   */\n      tag_188\n      jumpi\n        /* \"#utility.yul\":7327:7345   */\n      tag_189\n      tag_93\n      jump\t// in\n    tag_189:\n        /* \"#utility.yul\":7271:7355   */\n    tag_188:\n        /* \"#utility.yul\":7092:7361   */\n      pop\n        /* \"#utility.yul\":7041:7361   */\n      swap2\n      swap1\n      pop\n      jump\t// out\n        /* \"#utility.yul\":7367:7508   */\n    tag_94:\n        /* \"#utility.yul\":7416:7420   */\n      0x00\n        /* \"#utility.yul\":7439:7442   */\n      dup2\n        /* \"#utility.yul\":7431:7442   */\n      swap1\n      pop\n        /* \"#utility.yul\":7462:7465   */\n      dup2\n        /* \"#utility.yul\":7459:7460   */\n      0x00\n        /* \"#utility.yul\":7452:7466   */\n      mstore\n        /* \"#utility.yul\":7496:7500   */\n      0x20\n        /* \"#utility.yul\":7493:7494   */\n      0x00\n        /* \"#utility.yul\":7483:7501   */\n      keccak256\n        /* \"#utility.yul\":7475:7501   */\n      swap1\n      pop\n        /* \"#utility.yul\":7367:7508   */\n      swap2\n      swap1\n      pop\n      jump\t// out\n        /* \"#utility.yul\":7514:7607   */\n    tag_95:\n        /* \"#utility.yul\":7551:7557   */\n      0x00\n        /* \"#utility.yul\":7598:7600   */\n      0x20\n        /* \"#utility.yul\":7593:7595   */\n      0x1f\n        /* \"#utility.yul\":7586:7591   */\n      dup4\n        /* \"#utility.yul\":7582:7596   */\n      add\n        /* \"#utility.yul\":7578:7601   */\n      div\n        /* \"#utility.yul\":7568:7601   */\n      swap1\n      pop\n        /* \"#utility.yul\":7514:7607   */\n      swap2\n      swap1\n      pop\n      jump\t// out\n        /* \"#utility.yul\":7613:7720   */\n    tag_96:\n        /* \"#utility.yul\":7657:7665   */\n      0x00\n        /* \"#utility.yul\":7707:7712   */\n      dup3\n        /* \"#utility.yul\":7701:7705   */\n      dup3\n        /* \"#utility.yul\":7697:7713   */\n      shl\n        /* \"#utility.yul\":7676:7713   */\n      swap1\n      pop\n        /* \"#utility.yul\":7613:7720   */\n      swap3\n      swap2\n      pop\n      pop\n      jump\t// out\n        /* \"#utility.yul\":7726:8119   */\n    tag_97:\n        /* \"#utility.yul\":7795:7801   */\n      0x00\n        /* \"#utility.yul\":7845:7846   */\n      0x08\n        /* \"#utility.yul\":7833:7843   */\n      dup4\n        /* \"#utility.yul\":7829:7847   */\n      mul\n        /* \"#utility.yul\":7868:7965   */\n      tag_194\n        /* \"#utility.yul\":7898:7964   */\n      0xffffffffffffffffffffffffffffffffffffffffffffffffffffffffffffffff\n        /* \"#utility.yul\":7887:7896   */\n      dup3\n        /* \"#utility.yul\":7868:7965   */\n      tag_96\n      jump\t// in\n    tag_194:\n        /* \"#utility.yul\":7986:8025   */\n      tag_195\n        /* \"#utility.yul\":8016:8024   */\n      dup7\n        /* \"#utility.yul\":8005:8014   */\n      dup4\n        /* \"#utility.yul\":7986:8025   */\n      tag_96\n      jump\t// in\n    tag_195:\n        /* \"#utility.yul\":7974:8025   */\n      swap6\n      pop\n        /* \"#utility.yul\":8058:8062   */\n      dup1\n        /* \"#utility.yul\":8054:8063   */\n      not\n        /* \"#utility.yul\":8047:8052   */\n      dup5\n        /* \"#utility.yul\":8043:8064   */\n      and\n        /* \"#utility.yul\":8034:8064   */\n      swap4\n      pop\n        /* \"#utility.yul\":8107:8111   */\n      dup1\n        /* \"#utility.yul\":8097:8105   */\n      dup7\n        /* \"#utility.yul\":8093:8112   */\n      and\n        /* \"#utility.yul\":8086:8091   */\n      dup5\n        /* \"#utility.yul\":8083:8113   */\n      or\n        /* \"#utility.yul\":8073:8113   */\n      swap3\n      pop\n        /* \"#utility.yul\":7802:8119   */\n      pop\n      pop\n        /* \"#utility.yul\":7726:8119   */\n      swap4\n      swap3\n      pop\n      pop\n      pop\n      jump\t// out\n        /* \"#utility.yul\":8125:8185   */\n    tag_98:\n        /* \"#utility.yul\":8153:8156   */\n      0x00\n        /* \"#utility.yul\":8174:8179   */\n      dup2\n        /* \"#utility.yul\":8167:8179   */\n      swap1\n      pop\n        /* \"#utility.yul\":8125:8185   */\n      swap2\n      swap1\n      pop\n      jump\t// out\n        /* \"#utility.yul\":8191:8333   */\n    tag_99:\n        /* \"#utility.yul\":8241:8250   */\n      0x00\n        /* \"#utility.yul\":8274:8327   */\n      tag_198\n        /* \"#utility.yul\":8292:8326   */\n      tag_199\n        /* \"#utility.yul\":8301:8325   */\n      tag_200\n        /* \"#utility.yul\":8319:8324   */\n      dup5\n        /* \"#utility.yul\":8301:8325   */\n      tag_72\n      jump\t// in\n    tag_200:\n        /* \"#utility.yul\":8292:8326   */\n      tag_98\n      jump\t// in\n    tag_199:\n        /* \"#utility.yul\":8274:8327   */\n      tag_72\n      jump\t// in\n    tag_198:\n        /* \"#utility.yul\":8261:8327   */\n      swap1\n      pop\n        /* \"#utility.yul\":8191:8333   */\n      swap2\n      swap1\n      pop\n      jump\t// out\n        /* \"#utility.yul\":8339:8414   */\n    tag_100:\n        /* \"#utility.yul\":8382:8385   */\n      0x00\n        /* \"#utility.yul\":8403:8408   */\n      dup2\n        /* \"#utility.yul\":8396:8408   */\n      swap1\n      pop\n        /* \"#utility.yul\":8339:8414   */\n      swap2\n      swap1\n      pop\n      jump\t// out\n        /* \"#utility.yul\":8420:8689   */\n    tag_101:\n        /* \"#utility.yul\":8530:8569   */\n      tag_203\n        /* \"#utility.yul\":8561:8568   */\n      dup4\n        /* \"#utility.yul\":8530:8569   */\n      tag_99\n      jump\t// in\n    tag_203:\n        /* \"#utility.yul\":8591:8682   */\n      tag_204\n        /* \"#utility.yul\":8640:8681   */\n      tag_205\n        /* \"#utility.yul\":8664:8680   */\n      dup3\n        /* \"#utility.yul\":8640:8681   */\n      tag_100\n      jump\t// in\n    tag_205:\n        /* \"#utility.yul\":8632:8638   */\n      dup5\n        /* \"#utility.yul\":8625:8629   */\n      dup5\n        /* \"#utility.yul\":8619:8630   */\n      sload\n        /* \"#utility.yul\":8591:8682   */\n      tag_97\n      jump\t// in\n    tag_204:\n        /* \"#utility.yul\":8585:8589   */\n      dup3\n        /* \"#utility.yul\":8578:8683   */\n      sstore\n        /* \"#utility.yul\":8496:8689   */\n      pop\n        /* \"#utility.yul\":8420:8689   */\n      pop\n      pop\n      pop\n      jump\t// out\n        /* \"#utility.yul\":8695:8768   */\n    tag_102:\n        /* \"#utility.yul\":8740:8743   */\n      0x00\n        /* \"#utility.yul\":8761:8762   */\n      0x00\n        /* \"#utility.yul\":8754:8762   */\n      swap1\n      pop\n        /* \"#utility.yul\":8695:8768   */\n      swap1\n      jump\t// out\n        /* \"#utility.yul\":8774:8963   */\n    tag_103:\n        /* \"#utility.yul\":8851:8883   */\n      tag_208\n      tag_102\n      jump\t// in\n    tag_208:\n        /* \"#utility.yul\":8892:8957   */\n      tag_209\n        /* \"#utility.yul\":8950:8956   */\n      dup2\n        /* \"#utility.yul\":8942:8948   */\n      dup5\n        /* \"#utility.yul\":8936:8940   */\n      dup5\n        /* \"#utility.yul\":8892:8957   */\n      tag_101\n      jump\t// in\n    tag_209:\n        /* \"#utility.yul\":8827:8963   */\n      pop\n        /* \"#utility.yul\":8774:8963   */\n      pop\n      pop\n      jump\t// out\n        /* \"#utility.yul\":8969:9155   */\n    tag_104:\n        /* \"#utility.yul\":9029:9149   */\n    tag_211:\n        /* \"#utility.yul\":9046:9049   */\n      dup2\n        /* \"#utility.yul\":9039:9044   */\n      dup2\n        /* \"#utility.yul\":9036:9050   */\n      lt\n        /* \"#utility.yul\":9029:9149   */\n      iszero\n      tag_213\n      jumpi\n        /* \"#utility.yul\":9100:9139   */\n      tag_214\n        /* \"#utility.yul\":9137:9138   */\n      0x00\n        /* \"#utility.yul\":9130:9135   */\n      dup3\n        /* \"#utility.yul\":9100:9139   */\n      tag_103\n      jump\t// in\n    tag_214:\n        /* \"#utility.yul\":9073:9074   */\n      0x01\n        /* \"#utility.yul\":9066:9071   */\n      dup2\n        /* \"#utility.yul\":9062:9075   */\n      add\n        /* \"#utility.yul\":9053:9075   */\n      swap1\n      pop\n        /* \"#utility.yul\":9029:9149   */\n      jump(tag_211)\n    tag_213:\n        /* \"#utility.yul\":8969:9155   */\n      pop\n      pop\n      jump\t// out\n        /* \"#utility.yul\":9161:9704   */\n    tag_105:\n        /* \"#utility.yul\":9262:9264   */\n      0x1f\n        /* \"#utility.yul\":9257:9260   */\n      dup3\n        /* \"#utility.yul\":9254:9265   */\n      gt\n        /* \"#utility.yul\":9251:9697   */\n      iszero\n      tag_216\n      jumpi\n        /* \"#utility.yul\":9296:9334   */\n      tag_217\n        /* \"#utility.yul\":9328:9333   */\n      dup2\n        /* \"#utility.yul\":9296:9334   */\n      tag_94\n      jump\t// in\n    tag_217:\n        /* \"#utility.yul\":9380:9409   */\n      tag_218\n        /* \"#utility.yul\":9398:9408   */\n      dup5\n        /* \"#utility.yul\":9380:9409   */\n      tag_95\n      jump\t// in\n    tag_218:\n        /* \"#utility.yul\":9370:9378   */\n      dup2\n        /* \"#utility.yul\":9366:9410   */\n      add\n        /* \"#utility.yul\":9563:9565   */\n      0x20\n        /* \"#utility.yul\":9551:9561   */\n      dup6\n        /* \"#utility.yul\":9548:9566   */\n      lt\n        /* \"#utility.yul\":9545:9594   */\n      iszero\n      tag_219\n      jumpi\n        /* \"#utility.yul\":9584:9592   */\n      dup2\n        /* \"#utility.yul\":9569:9592   */\n      swap1\n      pop\n        /* \"#utility.yul\":9545:9594   */\n    tag_219:\n        /* \"#utility.yul\":9607:9687   */\n      tag_220\n        /* \"#utility.yul\":9663:9685   */\n      tag_221\n        /* \"#utility.yul\":9681:9684   */\n      dup6\n        /* \"#utility.yul\":9663:9685   */\n      tag_95\n      jump\t// in\n    tag_221:\n        /* \"#utility.yul\":9653:9661   */\n      dup4\n        /* \"#utility.yul\":9649:9686   */\n      add\n        /* \"#utility.yul\":9636:9647   */\n      dup3\n        /* \"#utility.yul\":9607:9687   */\n      tag_104\n      jump\t// in\n    tag_220:\n        /* \"#utility.yul\":9266:9697   */\n      pop\n      pop\n        /* \"#utility.yul\":9251:9697   */\n    tag_216:\n        /* \"#utility.yul\":9161:9704   */\n      pop\n      pop\n      pop\n      jump\t// out\n        /* \"#utility.yul\":9710:9827   */\n    tag_106:\n        /* \"#utility.yul\":9764:9772   */\n      0x00\n        /* \"#utility.yul\":9814:9819   */\n      dup3\n        /* \"#utility.yul\":9808:9812   */\n      dup3\n        /* \"#utility.yul\":9804:9820   */\n      shr\n        /* \"#utility.yul\":9783:9820   */\n      swap1\n      pop\n        /* \"#utility.yul\":9710:9827   */\n      swap3\n      swap2\n      pop\n      pop\n      jump\t// out\n        /* \"#utility.yul\":9833:10002   */\n    tag_107:\n        /* \"#utility.yul\":9877:9883   */\n      0x00\n        /* \"#utility.yul\":9910:9961   */\n      tag_224\n        /* \"#utility.yul\":9958:9959   */\n      0x00\n        /* \"#utility.yul\":9954:9960   */\n      not\n        /* \"#utility.yul\":9946:9951   */\n      dup5\n        /* \"#utility.yul\":9943:9944   */\n      0x08\n        /* \"#utility.yul\":9939:9952   */\n      mul\n        /* \"#utility.yul\":9910:9961   */\n      tag_106\n      jump\t// in\n    tag_224:\n        /* \"#utility.yul\":9906:9962   */\n      not\n        /* \"#utility.yul\":9991:9995   */\n      dup1\n        /* \"#utility.yul\":9985:9989   */\n      dup4\n        /* \"#utility.yul\":9981:9996   */\n      and\n        /* \"#utility.yul\":9971:9996   */\n      swap2\n      pop\n        /* \"#utility.yul\":9884:10002   */\n      pop\n        /* \"#utility.yul\":9833:10002   */\n      swap3\n      swap2\n      pop\n      pop\n      jump\t// out\n        /* \"#utility.yul\":10007:10302   */\n    tag_108:\n        /* \"#utility.yul\":10083:10087   */\n      0x00\n        /* \"#utility.yul\":10229:10258   */\n      tag_226\n        /* \"#utility.yul\":10254:10257   */\n      dup4\n        /* \"#utility.yul\":10248:10252   */\n      dup4\n        /* \"#utility.yul\":10229:10258   */\n      tag_107\n      jump\t// in\n    tag_226:\n        /* \"#utility.yul\":10221:10258   */\n      swap2\n      pop\n        /* \"#utility.yul\":10291:10294   */\n      dup3\n        /* \"#utility.yul\":10288:10289   */\n      0x02\n        /* \"#utility.yul\":10284:10295   */\n      mul\n        /* \"#utility.yul\":10278:10282   */\n      dup3\n        /* \"#utility.yul\":10275:10296   */\n      or\n        /* \"#utility.yul\":10267:10296   */\n      swap1\n      pop\n        /* \"#utility.yul\":10007:10302   */\n      swap3\n      swap2\n      pop\n      pop\n      jump\t// out\n        /* \"#utility.yul\":10307:11702   */\n    tag_59:\n        /* \"#utility.yul\":10424:10461   */\n      tag_228\n        /* \"#utility.yul\":10457:10460   */\n      dup3\n        /* \"#utility.yul\":10424:10461   */\n      tag_79\n      jump\t// in\n    tag_228:\n        /* \"#utility.yul\":10526:10544   */\n      0xffffffffffffffff\n        /* \"#utility.yul\":10518:10524   */\n      dup2\n        /* \"#utility.yul\":10515:10545   */\n      gt\n        /* \"#utility.yul\":10512:10568   */\n      iszero\n      tag_229\n      jumpi\n        /* \"#utility.yul\":10548:10566   */\n      tag_230\n      tag_86\n      jump\t// in\n    tag_230:\n        /* \"#utility.yul\":10512:10568   */\n    tag_229:\n        /* \"#utility.yul\":10592:10630   */\n      tag_231\n        /* \"#utility.yul\":10624:10628   */\n      dup3\n        /* \"#utility.yul\":10618:10629   */\n      sload\n        /* \"#utility.yul\":10592:10630   */\n      tag_46\n      jump\t// in\n    tag_231:\n        /* \"#utility.yul\":10677:10744   */\n      tag_232\n        /* \"#utility.yul\":10737:10743   */\n      dup3\n        /* \"#utility.yul\":10729:10735   */\n      dup3\n        /* \"#utility.yul\":10723:10727   */\n      dup6\n        /* \"#utility.yul\":10677:10744   */\n      tag_105\n      jump\t// in\n    tag_232:\n        /* \"#utility.yul\":10771:10772   */\n      0x00\n        /* \"#utility.yul\":10795:10799   */\n      0x20\n        /* \"#utility.yul\":10782:10799   */\n      swap1\n      pop\n        /* \"#utility.yul\":10827:10829   */\n      0x1f\n        /* \"#utility.yul\":10819:10825   */\n      dup4\n        /* \"#utility.yul\":10816:10830   */\n      gt\n        /* \"#utility.yul\":10844:10845   */\n      0x01\n        /* \"#utility.yul\":10839:11457   */\n      dup2\n      eq\n      tag_234\n      jumpi\n        /* \"#utility.yul\":11501:11502   */\n      0x00\n        /* \"#utility.yul\":11518:11524   */\n      dup5\n        /* \"#utility.yul\":11515:11592   */\n      iszero\n      tag_235\n      jumpi\n        /* \"#utility.yul\":11567:11576   */\n      dup3\n        /* \"#utility.yul\":11562:11565   */\n      dup8\n        /* \"#utility.yul\":11558:11577   */\n      add\n        /* \"#utility.yul\":11552:11578   */\n      mload\n        /* \"#utility.yul\":11543:11578   */\n      swap1\n      pop\n        /* \"#utility.yul\":11515:11592   */\n    tag_235:\n        /* \"#utility.yul\":11618:11685   */\n      tag_236\n        /* \"#utility.yul\":11678:11684   */\n      dup6\n        /* \"#utility.yul\":11671:11676   */\n      dup3\n        /* \"#utility.yul\":11618:11685   */\n      tag_108\n      jump\t// in\n    tag_236:\n        /* \"#utility.yul\":11612:11616   */\n      dup7\n        /* \"#utility.yul\":11605:11686   */\n      sstore\n        /* \"#utility.yul\":11474:11696   */\n      pop\n        /* \"#utility.yul\":10809:11696   */\n      jump(tag_233)\n        /* \"#utility.yul\":10839:11457   */\n    tag_234:\n        /* \"#utility.yul\":10891:10895   */\n      0x1f\n        /* \"#utility.yul\":10887:10896   */\n      not\n        /* \"#utility.yul\":10879:10885   */\n      dup5\n        /* \"#utility.yul\":10875:10897   */\n      and\n        /* \"#utility.yul\":10925:10962   */\n      tag_237\n        /* \"#utility.yul\":10957:10961   */\n      dup7\n        /* \"#utility.yul\":10925:10962   */\n      tag_94\n      jump\t// in\n    tag_237:\n        /* \"#utility.yul\":10984:10985   */\n      0x00\n        /* \"#utility.yul\":10998:11206   */\n    tag_238:\n        /* \"#utility.yul\":11012:11019   */\n      dup3\n        /* \"#utility.yul\":11009:11010   */\n      dup2\n        /* \"#utility.yul\":11006:11020   */\n      lt\n        /* \"#utility.yul\":10998:11206   */\n      iszero\n      tag_240\n      jumpi\n        /* \"#utility.yul\":11091:11100   */\n      dup5\n        /* \"#utility.yul\":11086:11089   */\n      dup10\n        /* \"#utility.yul\":11082:11101   */\n      add\n        /* \"#utility.yul\":11076:11102   */\n      mload\n        /* \"#utility.yul\":11068:11074   */\n      dup3\n        /* \"#utility.yul\":11061:11103   */\n      sstore\n        /* \"#utility.yul\":11142:11143   */\n      0x01\n        /* \"#utility.yul\":11134:11140   */\n      dup3\n        /* \"#utility.yul\":11130:11144   */\n      add\n        /* \"#utility.yul\":11120:11144   */\n      swap2\n      pop\n        /* \"#utility.yul\":11189:11191   */\n      0x20\n        /* \"#utility.yul\":11178:11187   */\n      dup6\n        /* \"#utility.yul\":11174:11192   */\n      add\n        /* \"#utility.yul\":11161:11192   */\n      swap5\n      pop\n        /* \"#utility.yul\":11035:11039   */\n      0x20\n        /* \"#utility.yul\":11032:11033   */\n      dup2\n        /* \"#utility.yul\":11028:11040   */\n      add\n        /* \"#utility.yul\":11023:11040   */\n      swap1\n      pop\n        /* \"#utility.yul\":10998:11206   */\n      jump(tag_238)\n    tag_240:\n        /* \"#utility.yul\":11234:11240   */\n      dup7\n        /* \"#utility.yul\":11225:11232   */\n      dup4\n        /* \"#utility.yul\":11222:11241   */\n      lt\n        /* \"#utility.yul\":11219:11398   */\n      iszero\n      tag_241\n      jumpi\n        /* \"#utility.yul\":11292:11301   */\n      dup5\n        /* \"#utility.yul\":11287:11290   */\n      dup10\n        /* \"#utility.yul\":11283:11302   */\n      add\n        /* \"#utility.yul\":11277:11303   */\n      mload\n        /* \"#utility.yul\":11335:11383   */\n      tag_242\n        /* \"#utility.yul\":11377:11381   */\n      0x1f\n        /* \"#utility.yul\":11369:11375   */\n      dup10\n        /* \"#utility.yul\":11365:11382   */\n      and\n        /* \"#utility.yul\":11354:11363   */\n      dup3\n        /* \"#utility.yul\":11335:11383   */\n      tag_107\n      jump\t// in\n    tag_242:\n        /* \"#utility.yul\":11327:11333   */\n      dup4\n        /* \"#utility.yul\":11320:11384   */\n      sstore\n        /* \"#utility.yul\":11242:11398   */\n      pop\n        /* \"#utility.yul\":11219:11398   */\n    tag_241:\n        /* \"#utility.yul\":11444:11445   */\n      0x01\n        /* \"#utility.yul\":11440:11441   */\n      0x02\n        /* \"#utility.yul\":11432:11438   */\n      dup9\n        /* \"#utility.yul\":11428:11442   */\n      mul\n        /* \"#utility.yul\":11424:11446   */\n      add\n        /* \"#utility.yul\":11418:11422   */\n      dup9\n        /* \"#utility.yul\":11411:11447   */\n      sstore\n        /* \"#utility.yul\":10846:11457   */\n      pop\n      pop\n      pop\n        /* \"#utility.yul\":10809:11696   */\n    tag_233:\n      pop\n        /* \"#utility.yul\":10399:11702   */\n      pop\n      pop\n      pop\n        /* \"#utility.yul\":10307:11702   */\n      pop\n      pop\n      jump\t// out\n        /* \"#utility.yul\":11708:11856   */\n    tag_109:\n        /* \"#utility.yul\":11810:11821   */\n      0x00\n        /* \"#utility.yul\":11847:11850   */\n      dup2\n        /* \"#utility.yul\":11832:11850   */\n      swap1\n      pop\n        /* \"#utility.yul\":11708:11856   */\n      swap3\n      swap2\n      pop\n      pop\n      jump\t// out\n        /* \"#utility.yul\":11862:12252   */\n    tag_110:\n        /* \"#utility.yul\":11968:11971   */\n      0x00\n        /* \"#utility.yul\":11996:12035   */\n      tag_245\n        /* \"#utility.yul\":12029:12034   */\n      dup3\n        /* \"#utility.yul\":11996:12035   */\n      tag_79\n      jump\t// in\n    tag_245:\n        /* \"#utility.yul\":12051:12140   */\n      tag_246\n        /* \"#utility.yul\":12133:12139   */\n      dup2\n        /* \"#utility.yul\":12128:12131   */\n      dup6\n        /* \"#utility.yul\":12051:12140   */\n      tag_109\n      jump\t// in\n    tag_246:\n        /* \"#utility.yul\":12044:12140   */\n      swap4\n      pop\n        /* \"#utility.yul\":12149:12214   */\n      tag_247\n        /* \"#utility.yul\":12207:12213   */\n      dup2\n        /* \"#utility.yul\":12202:12205   */\n      dup6\n        /* \"#utility.yul\":12195:12199   */\n      0x20\n        /* \"#utility.yul\":12188:12193   */\n      dup7\n        /* \"#utility.yul\":12184:12200   */\n      add\n        /* \"#utility.yul\":12149:12214   */\n      tag_81\n      jump\t// in\n    tag_247:\n        /* \"#utility.yul\":12239:12245   */\n      dup1\n        /* \"#utility.yul\":12234:12237   */\n      dup5\n        /* \"#utility.yul\":12230:12246   */\n      add\n        /* \"#utility.yul\":12223:12246   */\n      swap2\n      pop\n        /* \"#utility.yul\":11972:12252   */\n      pop\n        /* \"#utility.yul\":11862:12252   */\n      swap3\n      swap2\n      pop\n      pop\n      jump\t// out\n        /* \"#utility.yul\":12258:12533   */\n    tag_62:\n        /* \"#utility.yul\":12390:12393   */\n      0x00\n        /* \"#utility.yul\":12412:12507   */\n      tag_249\n        /* \"#utility.yul\":12503:12506   */\n      dup3\n        /* \"#utility.yul\":12494:12500   */\n      dup5\n        /* \"#utility.yul\":12412:12507   */\n      tag_110\n      jump\t// in\n    tag_249:\n        /* \"#utility.yul\":12405:12507   */\n      swap2\n      pop\n        /* \"#utility.yul\":12524:12527   */\n      dup2\n        /* \"#utility.yul\":12517:12527   */\n      swap1\n      pop\n        /* \"#utility.yul\":12258:12533   */\n      swap3\n      swap2\n      pop\n      pop\n      jump\t// out\n\n    auxdata: 0xa2646970667358221220ea8f6c4adf79e5d08678e73bbb69c816d62bbc05fb09bf00bbb1779c5377fa9b64736f6c634300081f0033\n}\n",
				"bytecode": {
					"linkReferences": {},
					"object": "6080604052348015600e575f5ffd5b50610b9d8061001c5f395ff3fe608060405234801561000f575f5ffd5b506004361061007b575f3560e01c806343ec8f471161005957806343ec8f47146100eb5780636057361d1461011b578063e5cdfa8014610137578063fda3fd13146101675761007b565b80632e64cec11461007f5780632ebce6311461009d5780633861c1d6146100cf575b5f5ffd5b610087610197565b60405161009491906104fe565b60405180910390f35b6100b760048036038101906100b29190610552565b61019f565b6040516100c6939291906105ed565b60405180910390f35b6100e960048036038101906100e4919061075c565b6102e0565b005b610105600480360381019061010091906107e4565b6103d0565b60405161011291906104fe565b60405180910390f35b61013560048036038101906101309190610552565b6103fd565b005b610151600480360381019061014c91906107e4565b610406565b60405161015e919061082b565b60405180910390f35b610181600480360381019061017c91906107e4565b6104b9565b60405161018e91906104fe565b60405180910390f35b5f5f54905090565b600181815481106101ae575f80fd5b905f5260205f2090600302015f91509050805f0154908060010180546101d390610878565b80601f01602080910402602001604051908101604052809291908181526020018280546101ff90610878565b801561024a5780601f106102215761010080835404028352916020019161024a565b820191905f5260205f20905b81548152906001019060200180831161022d57829003601f168201915b50505050509080600201805461025f90610878565b80601f016020809104026020016040519081016040528092919081815260200182805461028b90610878565b80156102d65780601f106102ad576101008083540402835291602001916102d6565b820191905f5260205f20905b8154815290600101906020018083116102b957829003601f168201915b5050505050905083565b6001604051806060016040528084815260200185815260200183815250908060018154018082558091505060019003905f5260205f2090600302015f909190919091505f820151815f015560208201518160010190816103409190610a48565b5060408201518160020190816103569190610a48565b5050508160028460405161036a9190610b51565b9081526020016040518091039020819055508160038260405161038d9190610b51565b908152602001604051809103902081905550806004846040516103b09190610b51565b908152602001604051809103902090816103ca9190610a48565b50505050565b6002818051602081018201805184825260208301602085012081835280955050505050505f915090505481565b805f8190555050565b6004818051602081018201805184825260208301602085012081835280955050505050505f91509050805461043a90610878565b80601f016020809104026020016040519081016040528092919081815260200182805461046690610878565b80156104b15780601f10610488576101008083540402835291602001916104b1565b820191905f5260205f20905b81548152906001019060200180831161049457829003601f168201915b505050505081565b6003818051602081018201805184825260208301602085012081835280955050505050505f915090505481565b5f819050919050565b6104f8816104e6565b82525050565b5f6020820190506105115f8301846104ef565b92915050565b5f604051905090565b5f5ffd5b5f5ffd5b610531816104e6565b811461053b575f5ffd5b50565b5f8135905061054c81610528565b92915050565b5f6020828403121561056757610566610520565b5b5f6105748482850161053e565b91505092915050565b5f81519050919050565b5f82825260208201905092915050565b8281835e5f83830152505050565b5f601f19601f8301169050919050565b5f6105bf8261057d565b6105c98185610587565b93506105d9818560208601610597565b6105e2816105a5565b840191505092915050565b5f6060820190506106005f8301866104ef565b818103602083015261061281856105b5565b9050818103604083015261062681846105b5565b9050949350505050565b5f5ffd5b5f5ffd5b7f4e487b71000000000000000000000000000000000000000000000000000000005f52604160045260245ffd5b61066e826105a5565b810181811067ffffffffffffffff8211171561068d5761068c610638565b5b80604052505050565b5f61069f610517565b90506106ab8282610665565b919050565b5f67ffffffffffffffff8211156106ca576106c9610638565b5b6106d3826105a5565b9050602081019050919050565b828183375f83830152505050565b5f6107006106fb846106b0565b610696565b90508281526020810184848401111561071c5761071b610634565b5b6107278482856106e0565b509392505050565b5f82601f83011261074357610742610630565b5b81356107538482602086016106ee565b91505092915050565b5f5f5f6060848603121561077357610772610520565b5b5f84013567ffffffffffffffff8111156107905761078f610524565b5b61079c8682870161072f565b93505060206107ad8682870161053e565b925050604084013567ffffffffffffffff8111156107ce576107cd610524565b5b6107da8682870161072f565b9150509250925092565b5f602082840312156107f9576107f8610520565b5b5f82013567ffffffffffffffff81111561081657610815610524565b5b6108228482850161072f565b91505092915050565b5f6020820190508181035f83015261084381846105b5565b905092915050565b7f4e487b71000000000000000000000000000000000000000000000000000000005f52602260045260245ffd5b5f600282049050600182168061088f57607f821691505b6020821081036108a2576108a161084b565b5b50919050565b5f819050815f5260205f209050919050565b5f6020601f8301049050919050565b5f82821b905092915050565b5f600883026109047fffffffffffffffffffffffffffffffffffffffffffffffffffffffffffffffff826108c9565b61090e86836108c9565b95508019841693508086168417925050509392505050565b5f819050919050565b5f61094961094461093f846104e6565b610926565b6104e6565b9050919050565b5f819050919050565b6109628361092f565b61097661096e82610950565b8484546108d5565b825550505050565b5f5f905090565b61098d61097e565b610998818484610959565b505050565b5b818110156109bb576109b05f82610985565b60018101905061099e565b5050565b601f821115610a00576109d1816108a8565b6109da846108ba565b810160208510156109e9578190505b6109fd6109f5856108ba565b83018261099d565b50505b505050565b5f82821c905092915050565b5f610a205f1984600802610a05565b1980831691505092915050565b5f610a388383610a11565b9150826002028217905092915050565b610a518261057d565b67ffffffffffffffff811115610a6a57610a69610638565b5b610a748254610878565b610a7f8282856109bf565b5f60209050601f831160018114610ab0575f8415610a9e578287015190505b610aa88582610a2d565b865550610b0f565b601f198416610abe866108a8565b5f5b82811015610ae557848901518255600182019150602085019450602081019050610ac0565b86831015610b025784890151610afe601f891682610a11565b8355505b6001600288020188555050505b505050505050565b5f81905092915050565b5f610b2b8261057d565b610b358185610b17565b9350610b45818560208601610597565b80840191505092915050565b5f610b5c8284610b21565b91508190509291505056fea2646970667358221220ea8f6c4adf79e5d08678e73bbb69c816d62bbc05fb09bf00bbb1779c5377fa9b64736f6c634300081f0033",
					"opcodes": "PUSH1 0x80 PUSH1 0x40 MSTORE CALLVALUE DUP1 ISZERO PUSH1 0xE JUMPI PUSH0 PUSH0 REVERT JUMPDEST POP PUSH2 0xB9D DUP1 PUSH2 0x1C PUSH0 CODECOPY PUSH0 RETURN INVALID PUSH1 0x80 PUSH1 0x40 MSTORE CALLVALUE DUP1 ISZERO PUSH2 0xF JUMPI PUSH0 PUSH0 REVERT JUMPDEST POP PUSH1 0x4 CALLDATASIZE LT PUSH2 0x7B JUMPI PUSH0 CALLDATALOAD PUSH1 0xE0 SHR DUP1 PUSH4 0x43EC8F47 GT PUSH2 0x59 JUMPI DUP1 PUSH4 0x43EC8F47 EQ PUSH2 0xEB JUMPI DUP1 PUSH4 0x6057361D EQ PUSH2 0x11B JUMPI DUP1 PUSH4 0xE5CDFA80 EQ PUSH2 0x137 JUMPI DUP1 PUSH4 0xFDA3FD13 EQ PUSH2 0x167 JUMPI PUSH2 0x7B JUMP JUMPDEST DUP1 PUSH4 0x2E64CEC1 EQ PUSH2 0x7F JUMPI DUP1 PUSH4 0x2EBCE631 EQ PUSH2 0x9D JUMPI DUP1 PUSH4 0x3861C1D6 EQ PUSH2 0xCF JUMPI JUMPDEST PUSH0 PUSH0 REVERT JUMPDEST PUSH2 0x87 PUSH2 0x197 JUMP JUMPDEST PUSH1 0x40 MLOAD PUSH2 0x94 SWAP2 SWAP1 PUSH2 0x4FE JUMP JUMPDEST PUSH1 0x40 MLOAD DUP1 SWAP2 SUB SWAP1 RETURN JUMPDEST PUSH2 0xB7 PUSH1 0x4 DUP1 CALLDATASIZE SUB DUP2 ADD SWAP1 PUSH2 0xB2 SWAP2 SWAP1 PUSH2 0x552 JUMP JUMPDEST PUSH2 0x19F JUMP JUMPDEST PUSH1 0x40 MLOAD PUSH2 0xC6 SWAP4 SWAP3 SWAP2 SWAP1 PUSH2 0x5ED JUMP JUMPDEST PUSH1 0x40 MLOAD DUP1 SWAP2 SUB SWAP1 RETURN JUMPDEST PUSH2 0xE9 PUSH1 0x4 DUP1 CALLDATASIZE SUB DUP2 ADD SWAP1 PUSH2 0xE4 SWAP2 SWAP1 PUSH2 0x75C JUMP JUMPDEST PUSH2 0x2E0 JUMP JUMPDEST STOP JUMPDEST PUSH2 0x105 PUSH1 0x4 DUP1 CALLDATASIZE SUB DUP2 ADD SWAP1 PUSH2 0x100 SWAP2 SWAP1 PUSH2 0x7E4 JUMP JUMPDEST PUSH2 0x3D0 JUMP JUMPDEST PUSH1 0x40 MLOAD PUSH2 0x112 SWAP2 SWAP1 PUSH2 0x4FE JUMP JUMPDEST PUSH1 0x40 MLOAD DUP1 SWAP2 SUB SWAP1 RETURN JUMPDEST PUSH2 0x135 PUSH1 0x4 DUP1 CALLDATASIZE SUB DUP2 ADD SWAP1 PUSH2 0x130 SWAP2 SWAP1 PUSH2 0x552 JUMP JUMPDEST PUSH2 0x3FD JUMP JUMPDEST STOP JUMPDEST PUSH2 0x151 PUSH1 0x4 DUP1 CALLDATASIZE SUB DUP2 ADD SWAP1 PUSH2 0x14C SWAP2 SWAP1 PUSH2 0x7E4 JUMP JUMPDEST PUSH2 0x406 JUMP JUMPDEST PUSH1 0x40 MLOAD PUSH2 0x15E SWAP2 SWAP1 PUSH2 0x82B JUMP JUMPDEST PUSH1 0x40 MLOAD DUP1 SWAP2 SUB SWAP1 RETURN JUMPDEST PUSH2 0x181 PUSH1 0x4 DUP1 CALLDATASIZE SUB DUP2 ADD SWAP1 PUSH2 0x17C SWAP2 SWAP1 PUSH2 0x7E4 JUMP JUMPDEST PUSH2 0x4B9 JUMP JUMPDEST PUSH1 0x40 MLOAD PUSH2 0x18E SWAP2 SWAP1 PUSH2 0x4FE JUMP JUMPDEST PUSH1 0x40 MLOAD DUP1 SWAP2 SUB SWAP1 RETURN JUMPDEST PUSH0 PUSH0 SLOAD SWAP1 POP SWAP1 JUMP JUMPDEST PUSH1 0x1 DUP2 DUP2 SLOAD DUP2 LT PUSH2 0x1AE JUMPI PUSH0 DUP1 REVERT JUMPDEST SWAP1 PUSH0 MSTORE PUSH1 0x20 PUSH0 KECCAK256 SWAP1 PUSH1 0x3 MUL ADD PUSH0 SWAP2 POP SWAP1 POP DUP1 PUSH0 ADD SLOAD SWAP1 DUP1 PUSH1 0x1 ADD DUP1 SLOAD PUSH2 0x1D3 SWAP1 PUSH2 0x878 JUMP JUMPDEST DUP1 PUSH1 0x1F ADD PUSH1 0x20 DUP1 SWAP2 DIV MUL PUSH1 0x20 ADD PUSH1 0x40 MLOAD SWAP1 DUP2 ADD PUSH1 0x40 MSTORE DUP1 SWAP3 SWAP2 SWAP1 DUP2 DUP2 MSTORE PUSH1 0x20 ADD DUP3 DUP1 SLOAD PUSH2 0x1FF SWAP1 PUSH2 0x878 JUMP JUMPDEST DUP1 ISZERO PUSH2 0x24A JUMPI DUP1 PUSH1 0x1F LT PUSH2 0x221 JUMPI PUSH2 0x100 DUP1 DUP4 SLOAD DIV MUL DUP4 MSTORE SWAP2 PUSH1 0x20 ADD SWAP2 PUSH2 0x24A JUMP JUMPDEST DUP3 ADD SWAP2 SWAP1 PUSH0 MSTORE PUSH1 0x20 PUSH0 KECCAK256 SWAP1 JUMPDEST DUP2 SLOAD DUP2 MSTORE SWAP1 PUSH1 0x1 ADD SWAP1 PUSH1 0x20 ADD DUP1 DUP4 GT PUSH2 0x22D JUMPI DUP3 SWAP1 SUB PUSH1 0x1F AND DUP3 ADD SWAP2 JUMPDEST POP POP POP POP POP SWAP1 DUP1 PUSH1 0x2 ADD DUP1 SLOAD PUSH2 0x25F SWAP1 PUSH2 0x878 JUMP JUMPDEST DUP1 PUSH1 0x1F ADD PUSH1 0x20 DUP1 SWAP2 DIV MUL PUSH1 0x20 ADD PUSH1 0x40 MLOAD SWAP1 DUP2 ADD PUSH1 0x40 MSTORE DUP1 SWAP3 SWAP2 SWAP1 DUP2 DUP2 MSTORE PUSH1 0x20 ADD DUP3 DUP1 SLOAD PUSH2 0x28B SWAP1 PUSH2 0x878 JUMP JUMPDEST DUP1 ISZERO PUSH2 0x2D6 JUMPI DUP1 PUSH1 0x1F LT PUSH2 0x2AD JUMPI PUSH2 0x100 DUP1 DUP4 SLOAD DIV MUL DUP4 MSTORE SWAP2 PUSH1 0x20 ADD SWAP2 PUSH2 0x2D6 JUMP JUMPDEST DUP3 ADD SWAP2 SWAP1 PUSH0 MSTORE PUSH1 0x20 PUSH0 KECCAK256 SWAP1 JUMPDEST DUP2 SLOAD DUP2 MSTORE SWAP1 PUSH1 0x1 ADD SWAP1 PUSH1 0x20 ADD DUP1 DUP4 GT PUSH2 0x2B9 JUMPI DUP3 SWAP1 SUB PUSH1 0x1F AND DUP3 ADD SWAP2 JUMPDEST POP POP POP POP POP SWAP1 POP DUP4 JUMP JUMPDEST PUSH1 0x1 PUSH1 0x40 MLOAD DUP1 PUSH1 0x60 ADD PUSH1 0x40 MSTORE DUP1 DUP5 DUP2 MSTORE PUSH1 0x20 ADD DUP6 DUP2 MSTORE PUSH1 0x20 ADD DUP4 DUP2 MSTORE POP SWAP1 DUP1 PUSH1 0x1 DUP2 SLOAD ADD DUP1 DUP3 SSTORE DUP1 SWAP2 POP POP PUSH1 0x1 SWAP1 SUB SWAP1 PUSH0 MSTORE PUSH1 0x20 PUSH0 KECCAK256 SWAP1 PUSH1 0x3 MUL ADD PUSH0 SWAP1 SWAP2 SWAP1 SWAP2 SWAP1 SWAP2 POP PUSH0 DUP3 ADD MLOAD DUP2 PUSH0 ADD SSTORE PUSH1 0x20 DUP3 ADD MLOAD DUP2 PUSH1 0x1 ADD SWAP1 DUP2 PUSH2 0x340 SWAP2 SWAP1 PUSH2 0xA48 JUMP JUMPDEST POP PUSH1 0x40 DUP3 ADD MLOAD DUP2 PUSH1 0x2 ADD SWAP1 DUP2 PUSH2 0x356 SWAP2 SWAP1 PUSH2 0xA48 JUMP JUMPDEST POP POP POP DUP2 PUSH1 0x2 DUP5 PUSH1 0x40 MLOAD PUSH2 0x36A SWAP2 SWAP1 PUSH2 0xB51 JUMP JUMPDEST SWAP1 DUP2 MSTORE PUSH1 0x20 ADD PUSH1 0x40 MLOAD DUP1 SWAP2 SUB SWAP1 KECCAK256 DUP2 SWAP1 SSTORE POP DUP2 PUSH1 0x3 DUP3 PUSH1 0x40 MLOAD PUSH2 0x38D SWAP2 SWAP1 PUSH2 0xB51 JUMP JUMPDEST SWAP1 DUP2 MSTORE PUSH1 0x20 ADD PUSH1 0x40 MLOAD DUP1 SWAP2 SUB SWAP1 KECCAK256 DUP2 SWAP1 SSTORE POP DUP1 PUSH1 0x4 DUP5 PUSH1 0x40 MLOAD PUSH2 0x3B0 SWAP2 SWAP1 PUSH2 0xB51 JUMP JUMPDEST SWAP1 DUP2 MSTORE PUSH1 0x20 ADD PUSH1 0x40 MLOAD DUP1 SWAP2 SUB SWAP1 KECCAK256 SWAP1 DUP2 PUSH2 0x3CA SWAP2 SWAP1 PUSH2 0xA48 JUMP JUMPDEST POP POP POP POP JUMP JUMPDEST PUSH1 0x2 DUP2 DUP1 MLOAD PUSH1 0x20 DUP2 ADD DUP3 ADD DUP1 MLOAD DUP5 DUP3 MSTORE PUSH1 0x20 DUP4 ADD PUSH1 0x20 DUP6 ADD KECCAK256 DUP2 DUP4 MSTORE DUP1 SWAP6 POP POP POP POP POP POP PUSH0 SWAP2 POP SWAP1 POP SLOAD DUP2 JUMP JUMPDEST DUP1 PUSH0 DUP2 SWAP1 SSTORE POP POP JUMP JUMPDEST PUSH1 0x4 DUP2 DUP1 MLOAD PUSH1 0x20 DUP2 ADD DUP3 ADD DUP1 MLOAD DUP5 DUP3 MSTORE PUSH1 0x20 DUP4 ADD PUSH1 0x20 DUP6 ADD KECCAK256 DUP2 DUP4 MSTORE DUP1 SWAP6 POP POP POP POP POP POP PUSH0 SWAP2 POP SWAP1 POP DUP1 SLOAD PUSH2 0x43A SWAP1 PUSH2 0x878 JUMP JUMPDEST DUP1 PUSH1 0x1F ADD PUSH1 0x20 DUP1 SWAP2 DIV MUL PUSH1 0x20 ADD PUSH1 0x40 MLOAD SWAP1 DUP2 ADD PUSH1 0x40 MSTORE DUP1 SWAP3 SWAP2 SWAP1 DUP2 DUP2 MSTORE PUSH1 0x20 ADD DUP3 DUP1 SLOAD PUSH2 0x466 SWAP1 PUSH2 0x878 JUMP JUMPDEST DUP1 ISZERO PUSH2 0x4B1 JUMPI DUP1 PUSH1 0x1F LT PUSH2 0x488 JUMPI PUSH2 0x100 DUP1 DUP4 SLOAD DIV MUL DUP4 MSTORE SWAP2 PUSH1 0x20 ADD SWAP2 PUSH2 0x4B1 JUMP JUMPDEST DUP3 ADD SWAP2 SWAP1 PUSH0 MSTORE PUSH1 0x20 PUSH0 KECCAK256 SWAP1 JUMPDEST DUP2 SLOAD DUP2 MSTORE SWAP1 PUSH1 0x1 ADD SWAP1 PUSH1 0x20 ADD DUP1 DUP4 GT PUSH2 0x494 JUMPI DUP3 SWAP1 SUB PUSH1 0x1F AND DUP3 ADD SWAP2 JUMPDEST POP POP POP POP POP DUP2 JUMP JUMPDEST PUSH1 0x3 DUP2 DUP1 MLOAD PUSH1 0x20 DUP2 ADD DUP3 ADD DUP1 MLOAD DUP5 DUP3 MSTORE PUSH1 0x20 DUP4 ADD PUSH1 0x20 DUP6 ADD KECCAK256 DUP2 DUP4 MSTORE DUP1 SWAP6 POP POP POP POP POP POP PUSH0 SWAP2 POP SWAP1 POP SLOAD DUP2 JUMP JUMPDEST PUSH0 DUP2 SWAP1 POP SWAP2 SWAP1 POP JUMP JUMPDEST PUSH2 0x4F8 DUP2 PUSH2 0x4E6 JUMP JUMPDEST DUP3 MSTORE POP POP JUMP JUMPDEST PUSH0 PUSH1 0x20 DUP3 ADD SWAP1 POP PUSH2 0x511 PUSH0 DUP4 ADD DUP5 PUSH2 0x4EF JUMP JUMPDEST SWAP3 SWAP2 POP POP JUMP JUMPDEST PUSH0 PUSH1 0x40 MLOAD SWAP1 POP SWAP1 JUMP JUMPDEST PUSH0 PUSH0 REVERT JUMPDEST PUSH0 PUSH0 REVERT JUMPDEST PUSH2 0x531 DUP2 PUSH2 0x4E6 JUMP JUMPDEST DUP2 EQ PUSH2 0x53B JUMPI PUSH0 PUSH0 REVERT JUMPDEST POP JUMP JUMPDEST PUSH0 DUP2 CALLDATALOAD SWAP1 POP PUSH2 0x54C DUP2 PUSH2 0x528 JUMP JUMPDEST SWAP3 SWAP2 POP POP JUMP JUMPDEST PUSH0 PUSH1 0x20 DUP3 DUP5 SUB SLT ISZERO PUSH2 0x567 JUMPI PUSH2 0x566 PUSH2 0x520 JUMP JUMPDEST JUMPDEST PUSH0 PUSH2 0x574 DUP5 DUP3 DUP6 ADD PUSH2 0x53E JUMP JUMPDEST SWAP2 POP POP SWAP3 SWAP2 POP POP JUMP JUMPDEST PUSH0 DUP2 MLOAD SWAP1 POP SWAP2 SWAP1 POP JUMP JUMPDEST PUSH0 DUP3 DUP3 MSTORE PUSH1 0x20 DUP3 ADD SWAP1 POP SWAP3 SWAP2 POP POP JUMP JUMPDEST DUP3 DUP2 DUP4 MCOPY PUSH0 DUP4 DUP4 ADD MSTORE POP POP POP JUMP JUMPDEST PUSH0 PUSH1 0x1F NOT PUSH1 0x1F DUP4 ADD AND SWAP1 POP SWAP2 SWAP1 POP JUMP JUMPDEST PUSH0 PUSH2 0x5BF DUP3 PUSH2 0x57D JUMP JUMPDEST PUSH2 0x5C9 DUP2 DUP6 PUSH2 0x587 JUMP JUMPDEST SWAP4 POP PUSH2 0x5D9 DUP2 DUP6 PUSH1 0x20 DUP7 ADD PUSH2 0x597 JUMP JUMPDEST PUSH2 0x5E2 DUP2 PUSH2 0x5A5 JUMP JUMPDEST DUP5 ADD SWAP2 POP POP SWAP3 SWAP2 POP POP JUMP JUMPDEST PUSH0 PUSH1 0x60 DUP3 ADD SWAP1 POP PUSH2 0x600 PUSH0 DUP4 ADD DUP7 PUSH2 0x4EF JUMP JUMPDEST DUP2 DUP2 SUB PUSH1 0x20 DUP4 ADD MSTORE PUSH2 0x612 DUP2 DUP6 PUSH2 0x5B5 JUMP JUMPDEST SWAP1 POP DUP2 DUP2 SUB PUSH1 0x40 DUP4 ADD MSTORE PUSH2 0x626 DUP2 DUP5 PUSH2 0x5B5 JUMP JUMPDEST SWAP1 POP SWAP5 SWAP4 POP POP POP POP JUMP JUMPDEST PUSH0 PUSH0 REVERT JUMPDEST PUSH0 PUSH0 REVERT JUMPDEST PUSH32 0x4E487B7100000000000000000000000000000000000000000000000000000000 PUSH0 MSTORE PUSH1 0x41 PUSH1 0x4 MSTORE PUSH1 0x24 PUSH0 REVERT JUMPDEST PUSH2 0x66E DUP3 PUSH2 0x5A5 JUMP JUMPDEST DUP2 ADD DUP2 DUP2 LT PUSH8 0xFFFFFFFFFFFFFFFF DUP3 GT OR ISZERO PUSH2 0x68D JUMPI PUSH2 0x68C PUSH2 0x638 JUMP JUMPDEST JUMPDEST DUP1 PUSH1 0x40 MSTORE POP POP POP JUMP JUMPDEST PUSH0 PUSH2 0x69F PUSH2 0x517 JUMP JUMPDEST SWAP1 POP PUSH2 0x6AB DUP3 DUP3 PUSH2 0x665 JUMP JUMPDEST SWAP2 SWAP1 POP JUMP JUMPDEST PUSH0 PUSH8 0xFFFFFFFFFFFFFFFF DUP3 GT ISZERO PUSH2 0x6CA JUMPI PUSH2 0x6C9 PUSH2 0x638 JUMP JUMPDEST JUMPDEST PUSH2 0x6D3 DUP3 PUSH2 0x5A5 JUMP JUMPDEST SWAP1 POP PUSH1 0x20 DUP2 ADD SWAP1 POP SWAP2 SWAP1 POP JUMP JUMPDEST DUP3 DUP2 DUP4 CALLDATACOPY PUSH0 DUP4 DUP4 ADD MSTORE POP POP POP JUMP JUMPDEST PUSH0 PUSH2 0x700 PUSH2 0x6FB DUP5 PUSH2 0x6B0 JUMP JUMPDEST PUSH2 0x696 JUMP JUMPDEST SWAP1 POP DUP3 DUP2 MSTORE PUSH1 0x20 DUP2 ADD DUP5 DUP5 DUP5 ADD GT ISZERO PUSH2 0x71C JUMPI PUSH2 0x71B PUSH2 0x634 JUMP JUMPDEST JUMPDEST PUSH2 0x727 DUP5 DUP3 DUP6 PUSH2 0x6E0 JUMP JUMPDEST POP SWAP4 SWAP3 POP POP POP JUMP JUMPDEST PUSH0 DUP3 PUSH1 0x1F DUP4 ADD SLT PUSH2 0x743 JUMPI PUSH2 0x742 PUSH2 0x630 JUMP JUMPDEST JUMPDEST DUP2 CALLDATALOAD PUSH2 0x753 DUP5 DUP3 PUSH1 0x20 DUP7 ADD PUSH2 0x6EE JUMP JUMPDEST SWAP2 POP POP SWAP3 SWAP2 POP POP JUMP JUMPDEST PUSH0 PUSH0 PUSH0 PUSH1 0x60 DUP5 DUP7 SUB SLT ISZERO PUSH2 0x773 JUMPI PUSH2 0x772 PUSH2 0x520 JUMP JUMPDEST JUMPDEST PUSH0 DUP5 ADD CALLDATALOAD PUSH8 0xFFFFFFFFFFFFFFFF DUP2 GT ISZERO PUSH2 0x790 JUMPI PUSH2 0x78F PUSH2 0x524 JUMP JUMPDEST JUMPDEST PUSH2 0x79C DUP7 DUP3 DUP8 ADD PUSH2 0x72F JUMP JUMPDEST SWAP4 POP POP PUSH1 0x20 PUSH2 0x7AD DUP7 DUP3 DUP8 ADD PUSH2 0x53E JUMP JUMPDEST SWAP3 POP POP PUSH1 0x40 DUP5 ADD CALLDATALOAD PUSH8 0xFFFFFFFFFFFFFFFF DUP2 GT ISZERO PUSH2 0x7CE JUMPI PUSH2 0x7CD PUSH2 0x524 JUMP JUMPDEST JUMPDEST PUSH2 0x7DA DUP7 DUP3 DUP8 ADD PUSH2 0x72F JUMP JUMPDEST SWAP2 POP POP SWAP3 POP SWAP3 POP SWAP3 JUMP JUMPDEST PUSH0 PUSH1 0x20 DUP3 DUP5 SUB SLT ISZERO PUSH2 0x7F9 JUMPI PUSH2 0x7F8 PUSH2 0x520 JUMP JUMPDEST JUMPDEST PUSH0 DUP3 ADD CALLDATALOAD PUSH8 0xFFFFFFFFFFFFFFFF DUP2 GT ISZERO PUSH2 0x816 JUMPI PUSH2 0x815 PUSH2 0x524 JUMP JUMPDEST JUMPDEST PUSH2 0x822 DUP5 DUP3 DUP6 ADD PUSH2 0x72F JUMP JUMPDEST SWAP2 POP POP SWAP3 SWAP2 POP POP JUMP JUMPDEST PUSH0 PUSH1 0x20 DUP3 ADD SWAP1 POP DUP2 DUP2 SUB PUSH0 DUP4 ADD MSTORE PUSH2 0x843 DUP2 DUP5 PUSH2 0x5B5 JUMP JUMPDEST SWAP1 POP SWAP3 SWAP2 POP POP JUMP JUMPDEST PUSH32 0x4E487B7100000000000000000000000000000000000000000000000000000000 PUSH0 MSTORE PUSH1 0x22 PUSH1 0x4 MSTORE PUSH1 0x24 PUSH0 REVERT JUMPDEST PUSH0 PUSH1 0x2 DUP3 DIV SWAP1 POP PUSH1 0x1 DUP3 AND DUP1 PUSH2 0x88F JUMPI PUSH1 0x7F DUP3 AND SWAP2 POP JUMPDEST PUSH1 0x20 DUP3 LT DUP2 SUB PUSH2 0x8A2 JUMPI PUSH2 0x8A1 PUSH2 0x84B JUMP JUMPDEST JUMPDEST POP SWAP2 SWAP1 POP JUMP JUMPDEST PUSH0 DUP2 SWAP1 POP DUP2 PUSH0 MSTORE PUSH1 0x20 PUSH0 KECCAK256 SWAP1 POP SWAP2 SWAP1 POP JUMP JUMPDEST PUSH0 PUSH1 0x20 PUSH1 0x1F DUP4 ADD DIV SWAP1 POP SWAP2 SWAP1 POP JUMP JUMPDEST PUSH0 DUP3 DUP3 SHL SWAP1 POP SWAP3 SWAP2 POP POP JUMP JUMPDEST PUSH0 PUSH1 0x8 DUP4 MUL PUSH2 0x904 PUSH32 0xFFFFFFFFFFFFFFFFFFFFFFFFFFFFFFFFFFFFFFFFFFFFFFFFFFFFFFFFFFFFFFFF DUP3 PUSH2 0x8C9 JUMP JUMPDEST PUSH2 0x90E DUP7 DUP4 PUSH2 0x8C9 JUMP JUMPDEST SWAP6 POP DUP1 NOT DUP5 AND SWAP4 POP DUP1 DUP7 AND DUP5 OR SWAP3 POP POP POP SWAP4 SWAP3 POP POP POP JUMP JUMPDEST PUSH0 DUP2 SWAP1 POP SWAP2 SWAP1 POP JUMP JUMPDEST PUSH0 PUSH2 0x949 PUSH2 0x944 PUSH2 0x93F DUP5 PUSH2 0x4E6 JUMP JUMPDEST PUSH2 0x926 JUMP JUMPDEST PUSH2 0x4E6 JUMP JUMPDEST SWAP1 POP SWAP2 SWAP1 POP JUMP JUMPDEST PUSH0 DUP2 SWAP1 POP SWAP2 SWAP1 POP JUMP JUMPDEST PUSH2 0x962 DUP4 PUSH2 0x92F JUMP JUMPDEST PUSH2 0x976 PUSH2 0x96E DUP3 PUSH2 0x950 JUMP JUMPDEST DUP5 DUP5 SLOAD PUSH2 0x8D5 JUMP JUMPDEST DUP3 SSTORE POP POP POP POP JUMP JUMPDEST PUSH0 PUSH0 SWAP1 POP SWAP1 JUMP JUMPDEST PUSH2 0x98D PUSH2 0x97E JUMP JUMPDEST PUSH2 0x998 DUP2 DUP5 DUP5 PUSH2 0x959 JUMP JUMPDEST POP POP POP JUMP JUMPDEST JUMPDEST DUP2 DUP2 LT ISZERO PUSH2 0x9BB JUMPI PUSH2 0x9B0 PUSH0 DUP3 PUSH2 0x985 JUMP JUMPDEST PUSH1 0x1 DUP2 ADD SWAP1 POP PUSH2 0x99E JUMP JUMPDEST POP POP JUMP JUMPDEST PUSH1 0x1F DUP3 GT ISZERO PUSH2 0xA00 JUMPI PUSH2 0x9D1 DUP2 PUSH2 0x8A8 JUMP JUMPDEST PUSH2 0x9DA DUP5 PUSH2 0x8BA JUMP JUMPDEST DUP2 ADD PUSH1 0x20 DUP6 LT ISZERO PUSH2 0x9E9 JUMPI DUP2 SWAP1 POP JUMPDEST PUSH2 0x9FD PUSH2 0x9F5 DUP6 PUSH2 0x8BA JUMP JUMPDEST DUP4 ADD DUP3 PUSH2 0x99D JUMP JUMPDEST POP POP JUMPDEST POP POP POP JUMP JUMPDEST PUSH0 DUP3 DUP3 SHR SWAP1 POP SWAP3 SWAP2 POP POP JUMP JUMPDEST PUSH0 PUSH2 0xA20 PUSH0 NOT DUP5 PUSH1 0x8 MUL PUSH2 0xA05 JUMP JUMPDEST NOT DUP1 DUP4 AND SWAP2 POP POP SWAP3 SWAP2 POP POP JUMP JUMPDEST PUSH0 PUSH2 0xA38 DUP4 DUP4 PUSH2 0xA11 JUMP JUMPDEST SWAP2 POP DUP3 PUSH1 0x2 MUL DUP3 OR SWAP1 POP SWAP3 SWAP2 POP POP JUMP JUMPDEST PUSH2 0xA51 DUP3 PUSH2 0x57D JUMP JUMPDEST PUSH8 0xFFFFFFFFFFFFFFFF DUP2 GT ISZERO PUSH2 0xA6A JUMPI PUSH2 0xA69 PUSH2 0x638 JUMP JUMPDEST JUMPDEST PUSH2 0xA74 DUP3 SLOAD PUSH2 0x878 JUMP JUMPDEST PUSH2 0xA7F DUP3 DUP3 DUP6 PUSH2 0x9BF JUMP JUMPDEST PUSH0 PUSH1 0x20 SWAP1 POP PUSH1 0x1F DUP4 GT PUSH1 0x1 DUP2 EQ PUSH2 0xAB0 JUMPI PUSH0 DUP5 ISZERO PUSH2 0xA9E JUMPI DUP3 DUP8 ADD MLOAD SWAP1 POP JUMPDEST PUSH2 0xAA8 DUP6 DUP3 PUSH2 0xA2D JUMP JUMPDEST DUP7 SSTORE POP PUSH2 0xB0F JUMP JUMPDEST PUSH1 0x1F NOT DUP5 AND PUSH2 0xABE DUP7 PUSH2 0x8A8 JUMP JUMPDEST PUSH0 JUMPDEST DUP3 DUP2 LT ISZERO PUSH2 0xAE5 JUMPI DUP5 DUP10 ADD MLOAD DUP3 SSTORE PUSH1 0x1 DUP3 ADD SWAP2 POP PUSH1 0x20 DUP6 ADD SWAP5 POP PUSH1 0x20 DUP2 ADD SWAP1 POP PUSH2 0xAC0 JUMP JUMPDEST DUP7 DUP4 LT ISZERO PUSH2 0xB02 JUMPI DUP5 DUP10 ADD MLOAD PUSH2 0xAFE PUSH1 0x1F DUP10 AND DUP3 PUSH2 0xA11 JUMP JUMPDEST DUP4 SSTORE POP JUMPDEST PUSH1 0x1 PUSH1 0x2 DUP9 MUL ADD DUP9 SSTORE POP POP POP JUMPDEST POP POP POP POP POP POP JUMP JUMPDEST PUSH0 DUP2 SWAP1 POP SWAP3 SWAP2 POP POP JUMP JUMPDEST PUSH0 PUSH2 0xB2B DUP3 PUSH2 0x57D JUMP JUMPDEST PUSH2 0xB35 DUP2 DUP6 PUSH2 0xB17 JUMP JUMPDEST SWAP4 POP PUSH2 0xB45 DUP2 DUP6 PUSH1 0x20 DUP7 ADD PUSH2 0x597 JUMP JUMPDEST DUP1 DUP5 ADD SWAP2 POP POP SWAP3 SWAP2 POP POP JUMP JUMPDEST PUSH0 PUSH2 0xB5C DUP3 DUP5 PUSH2 0xB21 JUMP JUMPDEST SWAP2 POP DUP2 SWAP1 POP SWAP3 SWAP2 POP POP JUMP INVALID LOG2 PUSH5 0x6970667358 0x22 SLT KECCAK256 0xEA DUP16 PUSH13 0x4ADF79E5D08678E73BBB69C816 0xD6 0x2B 0xBC SDIV EXTSTATICCALL MULMOD 0xBF STOP 0xBB 0xB1 PUSH24 0x9C5377FA9B64736F6C634300081F00330000000000000000 "
				},
				"gasEstimates": {
					"creation": {
						"codeDepositCost": "594600",
						"executionCost": "623",
						"totalCost": "595223"
					},
					"external": {
						"addPerson(string,uint256,string)": "infinite",
						"findNickName(string)": "infinite",
						"listOfPeople(uint256)": "infinite",
						"nameToFavNumber(string)": "infinite",
						"nickNameToFavNum(string)": "infinite",
						"retrieve()": "2432",
						"store(uint256)": "22536"
					}
				},
				"methodIdentifiers": {
					"addPerson(string,uint256,string)": "3861c1d6",
					"findNickName(string)": "e5cdfa80",
					"listOfPeople(uint256)": "2ebce631",
					"nameToFavNumber(string)": "43ec8f47",
					"nickNameToFavNum(string)": "fda3fd13",
					"retrieve()": "2e64cec1",
					"store(uint256)": "6057361d"
				}
			},
			"storageLayout": {
				"storage": [
					{
						"astId": 3,
						"contract": "Simple_Storage.sol:SimpleStorage",
						"label": "myFavNumber",
						"offset": 0,
						"slot": "0",
						"type": "t_uint256"
					},
					{
						"astId": 14,
						"contract": "Simple_Storage.sol:SimpleStorage",
						"label": "listOfPeople",
						"offset": 0,
						"slot": "1",
						"type": "t_array(t_struct(Person)10_storage)dyn_storage"
					},
					{
						"astId": 18,
						"contract": "Simple_Storage.sol:SimpleStorage",
						"label": "nameToFavNumber",
						"offset": 0,
						"slot": "2",
						"type": "t_mapping(t_string_memory_ptr,t_uint256)"
					},
					{
						"astId": 22,
						"contract": "Simple_Storage.sol:SimpleStorage",
						"label": "nickNameToFavNum",
						"offset": 0,
						"slot": "3",
						"type": "t_mapping(t_string_memory_ptr,t_uint256)"
					},
					{
						"astId": 26,
						"contract": "Simple_Storage.sol:SimpleStorage",
						"label": "findNickName",
						"offset": 0,
						"slot": "4",
						"type": "t_mapping(t_string_memory_ptr,t_string_storage)"
					}
				],
				"types": {
					"t_array(t_struct(Person)10_storage)dyn_storage": {
						"base": "t_struct(Person)10_storage",
						"encoding": "dynamic_array",
						"label": "struct SimpleStorage.Person[]",
						"numberOfBytes": "32"
					},
					"t_mapping(t_string_memory_ptr,t_string_storage)": {
						"encoding": "mapping",
						"key": "t_string_memory_ptr",
						"label": "mapping(string => string)",
						"numberOfBytes": "32",
						"value": "t_string_storage"
					},
					"t_mapping(t_string_memory_ptr,t_uint256)": {
						"encoding": "mapping",
						"key": "t_string_memory_ptr",
						"label": "mapping(string => uint256)",
						"numberOfBytes": "32",
						"value": "t_uint256"
					},
					"t_string_memory_ptr": {
						"encoding": "bytes",
						"label": "string",
						"numberOfBytes": "32"
					},
					"t_string_storage": {
						"encoding": "bytes",
						"label": "string",
						"numberOfBytes": "32"
					},
					"t_struct(Person)10_storage": {
						"encoding": "inplace",
						"label": "struct SimpleStorage.Person",
						"members": [
							{
								"astId": 5,
								"contract": "Simple_Storage.sol:SimpleStorage",
								"label": "favNumber",
								"offset": 0,
								"slot": "0",
								"type": "t_uint256"
							},
							{
								"astId": 7,
								"contract": "Simple_Storage.sol:SimpleStorage",
								"label": "name",
								"offset": 0,
								"slot": "1",
								"type": "t_string_storage"
							},
							{
								"astId": 9,
								"contract": "Simple_Storage.sol:SimpleStorage",
								"label": "nickName",
								"offset": 0,
								"slot": "2",
								"type": "t_string_storage"
							}
						],
						"numberOfBytes": "96"
					},
					"t_uint256": {
						"encoding": "inplace",
						"label": "uint256",
						"numberOfBytes": "32"
					}
				}
			},
			"userdoc": {
				"kind": "user",
				"methods": {},
				"version": 1
			}
		}
	}
}