{
	"data": {
		"bytecode": {
			"linkReferences": {},
			"object": "6080604052348015600e575f5ffd5b50610c098061001c5f395ff3fe608060405234801561000f575f5ffd5b506004361061007b575f3560e01c806343ec8f471161005957806343ec8f47146100eb5780636057361d1461011b578063e5cdfa8014610137578063fda3fd13146101675761007b565b80632e64cec11461007f5780632ebce6311461009d5780633861c1d6146100cf575b5f5ffd5b610087610197565b604051610094919061050a565b60405180910390f35b6100b760048036038101906100b2919061055e565b61019f565b6040516100c6939291906105f9565b60405180910390f35b6100e960048036038101906100e49190610768565b6102e0565b005b610105600480360381019061010091906107f0565b6103d0565b604051610112919061050a565b60405180910390f35b6101356004803603810190610130919061055e565b6103fd565b005b610151600480360381019061014c91906107f0565b610412565b60405161015e9190610837565b60405180910390f35b610181600480360381019061017c91906107f0565b6104c5565b60405161018e919061050a565b60405180910390f35b5f5f54905090565b600181815481106101ae575f80fd5b905f5260205f2090600302015f91509050805f0154908060010180546101d390610884565b80601f01602080910402602001604051908101604052809291908181526020018280546101ff90610884565b801561024a5780601f106102215761010080835404028352916020019161024a565b820191905f5260205f20905b81548152906001019060200180831161022d57829003601f168201915b50505050509080600201805461025f90610884565b80601f016020809104026020016040519081016040528092919081815260200182805461028b90610884565b80156102d65780601f106102ad576101008083540402835291602001916102d6565b820191905f5260205f20905b8154815290600101906020018083116102b957829003601f168201915b5050505050905083565b6001604051806060016040528084815260200185815260200183815250908060018154018082558091505060019003905f5260205f2090600302015f909190919091505f820151815f015560208201518160010190816103409190610a54565b5060408201518160020190816103569190610a54565b5050508160028460405161036a9190610b5d565b9081526020016040518091039020819055508160038260405161038d9190610b5d565b908152602001604051809103902081905550806004846040516103b09190610b5d565b908152602001604051809103902090816103ca9190610a54565b50505050565b6002818051602081018201805184825260208301602085012081835280955050505050505f915090505481565b600a8161040a9190610ba0565b5f8190555050565b6004818051602081018201805184825260208301602085012081835280955050505050505f91509050805461044690610884565b80601f016020809104026020016040519081016040528092919081815260200182805461047290610884565b80156104bd5780601f10610494576101008083540402835291602001916104bd565b820191905f5260205f20905b8154815290600101906020018083116104a057829003601f168201915b505050505081565b6003818051602081018201805184825260208301602085012081835280955050505050505f915090505481565b5f819050919050565b610504816104f2565b82525050565b5f60208201905061051d5f8301846104fb565b92915050565b5f604051905090565b5f5ffd5b5f5ffd5b61053d816104f2565b8114610547575f5ffd5b50565b5f8135905061055881610534565b92915050565b5f602082840312156105735761057261052c565b5b5f6105808482850161054a565b91505092915050565b5f81519050919050565b5f82825260208201905092915050565b8281835e5f83830152505050565b5f601f19601f8301169050919050565b5f6105cb82610589565b6105d58185610593565b93506105e58185602086016105a3565b6105ee816105b1565b840191505092915050565b5f60608201905061060c5f8301866104fb565b818103602083015261061e81856105c1565b9050818103604083015261063281846105c1565b9050949350505050565b5f5ffd5b5f5ffd5b7f4e487b71000000000000000000000000000000000000000000000000000000005f52604160045260245ffd5b61067a826105b1565b810181811067ffffffffffffffff8211171561069957610698610644565b5b80604052505050565b5f6106ab610523565b90506106b78282610671565b919050565b5f67ffffffffffffffff8211156106d6576106d5610644565b5b6106df826105b1565b9050602081019050919050565b828183375f83830152505050565b5f61070c610707846106bc565b6106a2565b90508281526020810184848401111561072857610727610640565b5b6107338482856106ec565b509392505050565b5f82601f83011261074f5761074e61063c565b5b813561075f8482602086016106fa565b91505092915050565b5f5f5f6060848603121561077f5761077e61052c565b5b5f84013567ffffffffffffffff81111561079c5761079b610530565b5b6107a88682870161073b565b93505060206107b98682870161054a565b925050604084013567ffffffffffffffff8111156107da576107d9610530565b5b6107e68682870161073b565b9150509250925092565b5f602082840312156108055761080461052c565b5b5f82013567ffffffffffffffff81111561082257610821610530565b5b61082e8482850161073b565b91505092915050565b5f6020820190508181035f83015261084f81846105c1565b905092915050565b7f4e487b71000000000000000000000000000000000000000000000000000000005f52602260045260245ffd5b5f600282049050600182168061089b57607f821691505b6020821081036108ae576108ad610857565b5b50919050565b5f819050815f5260205f209050919050565b5f6020601f8301049050919050565b5f82821b905092915050565b5f600883026109107fffffffffffffffffffffffffffffffffffffffffffffffffffffffffffffffff826108d5565b61091a86836108d5565b95508019841693508086168417925050509392505050565b5f819050919050565b5f61095561095061094b846104f2565b610932565b6104f2565b9050919050565b5f819050919050565b61096e8361093b565b61098261097a8261095c565b8484546108e1565b825550505050565b5f5f905090565b61099961098a565b6109a4818484610965565b505050565b5b818110156109c7576109bc5f82610991565b6001810190506109aa565b5050565b601f821115610a0c576109dd816108b4565b6109e6846108c6565b810160208510156109f5578190505b610a09610a01856108c6565b8301826109a9565b50505b505050565b5f82821c905092915050565b5f610a2c5f1984600802610a11565b1980831691505092915050565b5f610a448383610a1d565b9150826002028217905092915050565b610a5d82610589565b67ffffffffffffffff811115610a7657610a75610644565b5b610a808254610884565b610a8b8282856109cb565b5f60209050601f831160018114610abc575f8415610aaa578287015190505b610ab48582610a39565b865550610b1b565b601f198416610aca866108b4565b5f5b82811015610af157848901518255600182019150602085019450602081019050610acc565b86831015610b0e5784890151610b0a601f891682610a1d565b8355505b6001600288020188555050505b505050505050565b5f81905092915050565b5f610b3782610589565b610b418185610b23565b9350610b518185602086016105a3565b80840191505092915050565b5f610b688284610b2d565b915081905092915050565b7f4e487b71000000000000000000000000000000000000000000000000000000005f52601160045260245ffd5b5f610baa826104f2565b9150610bb5836104f2565b9250828201905080821115610bcd57610bcc610b73565b5b9291505056fea2646970667358221220705efbb3cc83e0f6d96e765c9d70a19461e01fc870926f93761def8d32a0290464736f6c634300081f0033",
			"opcodes": "PUSH1 0x80 PUSH1 0x40 MSTORE CALLVALUE DUP1 ISZERO PUSH1 0xE JUMPI PUSH0 PUSH0 REVERT JUMPDEST POP PUSH2 0xC09 DUP1 PUSH2 0x1C PUSH0 CODECOPY PUSH0 RETURN INVALID PUSH1 0x80 PUSH1 0x40 MSTORE CALLVALUE DUP1 ISZERO PUSH2 0xF JUMPI PUSH0 PUSH0 REVERT JUMPDEST POP PUSH1 0x4 CALLDATASIZE LT PUSH2 0x7B JUMPI PUSH0 CALLDATALOAD PUSH1 0xE0 SHR DUP1 PUSH4 0x43EC8F47 GT PUSH2 0x59 JUMPI DUP1 PUSH4 0x43EC8F47 EQ PUSH2 0xEB JUMPI DUP1 PUSH4 0x6057361D EQ PUSH2 0x11B JUMPI DUP1 PUSH4 0xE5CDFA80 EQ PUSH2 0x137 JUMPI DUP1 PUSH4 0xFDA3FD13 EQ PUSH2 0x167 JUMPI PUSH2 0x7B JUMP JUMPDEST DUP1 PUSH4 0x2E64CEC1 EQ PUSH2 0x7F JUMPI DUP1 PUSH4 0x2EBCE631 EQ PUSH2 0x9D JUMPI DUP1 PUSH4 0x3861C1D6 EQ PUSH2 0xCF JUMPI JUMPDEST PUSH0 PUSH0 REVERT JUMPDEST PUSH2 0x87 PUSH2 0x197 JUMP JUMPDEST PUSH1 0x40 MLOAD PUSH2 0x94 SWAP2 SWAP1 PUSH2 0x50A JUMP JUMPDEST PUSH1 0x40 MLOAD DUP1 SWAP2 SUB SWAP1 RETURN JUMPDEST PUSH2 0xB7 PUSH1 0x4 DUP1 CALLDATASIZE SUB DUP2 ADD SWAP1 PUSH2 0xB2 SWAP2 SWAP1 PUSH2 0x55E JUMP JUMPDEST PUSH2 0x19F JUMP JUMPDEST PUSH1 0x40 MLOAD PUSH2 0xC6 SWAP4 SWAP3 SWAP2 SWAP1 PUSH2 0x5F9 JUMP JUMPDEST PUSH1 0x40 MLOAD DUP1 SWAP2 SUB SWAP1 RETURN JUMPDEST PUSH2 0xE9 PUSH1 0x4 DUP1 CALLDATASIZE SUB DUP2 ADD SWAP1 PUSH2 0xE4 SWAP2 SWAP1 PUSH2 0x768 JUMP JUMPDEST PUSH2 0x2E0 JUMP JUMPDEST STOP JUMPDEST PUSH2 0x105 PUSH1 0x4 DUP1 CALLDATASIZE SUB DUP2 ADD SWAP1 PUSH2 0x100 SWAP2 SWAP1 PUSH2 0x7F0 JUMP JUMPDEST PUSH2 0x3D0 JUMP JUMPDEST PUSH1 0x40 MLOAD PUSH2 0x112 SWAP2 SWAP1 PUSH2 0x50A JUMP JUMPDEST PUSH1 0x40 MLOAD DUP1 SWAP2 SUB SWAP1 RETURN JUMPDEST PUSH2 0x135 PUSH1 0x4 DUP1 CALLDATASIZE SUB DUP2 ADD SWAP1 PUSH2 0x130 SWAP2 SWAP1 PUSH2 0x55E JUMP JUMPDEST PUSH2 0x3FD JUMP JUMPDEST STOP JUMPDEST PUSH2 0x151 PUSH1 0x4 DUP1 CALLDATASIZE SUB DUP2 ADD SWAP1 PUSH2 0x14C SWAP2 SWAP1 PUSH2 0x7F0 JUMP JUMPDEST PUSH2 0x412 JUMP JUMPDEST PUSH1 0x40 MLOAD PUSH2 0x15E SWAP2 SWAP1 PUSH2 0x837 JUMP JUMPDEST PUSH1 0x40 MLOAD DUP1 SWAP2 SUB SWAP1 RETURN JUMPDEST PUSH2 0x181 PUSH1 0x4 DUP1 CALLDATASIZE SUB DUP2 ADD SWAP1 PUSH2 0x17C SWAP2 SWAP1 PUSH2 0x7F0 JUMP JUMPDEST PUSH2 0x4C5 JUMP JUMPDEST PUSH1 0x40 MLOAD PUSH2 0x18E SWAP2 SWAP1 PUSH2 0x50A JUMP JUMPDEST PUSH1 0x40 MLOAD DUP1 SWAP2 SUB SWAP1 RETURN JUMPDEST PUSH0 PUSH0 SLOAD SWAP1 POP SWAP1 JUMP JUMPDEST PUSH1 0x1 DUP2 DUP2 SLOAD DUP2 LT PUSH2 0x1AE JUMPI PUSH0 DUP1 REVERT JUMPDEST SWAP1 PUSH0 MSTORE PUSH1 0x20 PUSH0 KECCAK256 SWAP1 PUSH1 0x3 MUL ADD PUSH0 SWAP2 POP SWAP1 POP DUP1 PUSH0 ADD SLOAD SWAP1 DUP1 PUSH1 0x1 ADD DUP1 SLOAD PUSH2 0x1D3 SWAP1 PUSH2 0x884 JUMP JUMPDEST DUP1 PUSH1 0x1F ADD PUSH1 0x20 DUP1 SWAP2 DIV MUL PUSH1 0x20 ADD PUSH1 0x40 MLOAD SWAP1 DUP2 ADD PUSH1 0x40 MSTORE DUP1 SWAP3 SWAP2 SWAP1 DUP2 DUP2 MSTORE PUSH1 0x20 ADD DUP3 DUP1 SLOAD PUSH2 0x1FF SWAP1 PUSH2 0x884 JUMP JUMPDEST DUP1 ISZERO PUSH2 0x24A JUMPI DUP1 PUSH1 0x1F LT PUSH2 0x221 JUMPI PUSH2 0x100 DUP1 DUP4 SLOAD DIV MUL DUP4 MSTORE SWAP2 PUSH1 0x20 ADD SWAP2 PUSH2 0x24A JUMP JUMPDEST DUP3 ADD SWAP2 SWAP1 PUSH0 MSTORE PUSH1 0x20 PUSH0 KECCAK256 SWAP1 JUMPDEST DUP2 SLOAD DUP2 MSTORE SWAP1 PUSH1 0x1 ADD SWAP1 PUSH1 0x20 ADD DUP1 DUP4 GT PUSH2 0x22D JUMPI DUP3 SWAP1 SUB PUSH1 0x1F AND DUP3 ADD SWAP2 JUMPDEST POP POP POP POP POP SWAP1 DUP1 PUSH1 0x2 ADD DUP1 SLOAD PUSH2 0x25F SWAP1 PUSH2 0x884 JUMP JUMPDEST DUP1 PUSH1 0x1F ADD PUSH1 0x20 DUP1 SWAP2 DIV MUL PUSH1 0x20 ADD PUSH1 0x40 MLOAD SWAP1 DUP2 ADD PUSH1 0x40 MSTORE DUP1 SWAP3 SWAP2 SWAP1 DUP2 DUP2 MSTORE PUSH1 0x20 ADD DUP3 DUP1 SLOAD PUSH2 0x28B SWAP1 PUSH2 0x884 JUMP JUMPDEST DUP1 ISZERO PUSH2 0x2D6 JUMPI DUP1 PUSH1 0x1F LT PUSH2 0x2AD JUMPI PUSH2 0x100 DUP1 DUP4 SLOAD DIV MUL DUP4 MSTORE SWAP2 PUSH1 0x20 ADD SWAP2 PUSH2 0x2D6 JUMP JUMPDEST DUP3 ADD SWAP2 SWAP1 PUSH0 MSTORE PUSH1 0x20 PUSH0 KECCAK256 SWAP1 JUMPDEST DUP2 SLOAD DUP2 MSTORE SWAP1 PUSH1 0x1 ADD SWAP1 PUSH1 0x20 ADD DUP1 DUP4 GT PUSH2 0x2B9 JUMPI DUP3 SWAP1 SUB PUSH1 0x1F AND DUP3 ADD SWAP2 JUMPDEST POP POP POP POP POP SWAP1 POP DUP4 JUMP JUMPDEST PUSH1 0x1 PUSH1 0x40 MLOAD DUP1 PUSH1 0x60 ADD PUSH1 0x40 MSTORE DUP1 DUP5 DUP2 MSTORE PUSH1 0x20 ADD DUP6 DUP2 MSTORE PUSH1 0x20 ADD DUP4 DUP2 MSTORE POP SWAP1 DUP1 PUSH1 0x1 DUP2 SLOAD ADD DUP1 DUP3 SSTORE DUP1 SWAP2 POP POP PUSH1 0x1 SWAP1 SUB SWAP1 PUSH0 MSTORE PUSH1 0x20 PUSH0 KECCAK256 SWAP1 PUSH1 0x3 MUL ADD PUSH0 SWAP1 SWAP2 SWAP1 SWAP2 SWAP1 SWAP2 POP PUSH0 DUP3 ADD MLOAD DUP2 PUSH0 ADD SSTORE PUSH1 0x20 DUP3 ADD MLOAD DUP2 PUSH1 0x1 ADD SWAP1 DUP2 PUSH2 0x340 SWAP2 SWAP1 PUSH2 0xA54 JUMP JUMPDEST POP PUSH1 0x40 DUP3 ADD MLOAD DUP2 PUSH1 0x2 ADD SWAP1 DUP2 PUSH2 0x356 SWAP2 SWAP1 PUSH2 0xA54 JUMP JUMPDEST POP POP POP DUP2 PUSH1 0x2 DUP5 PUSH1 0x40 MLOAD PUSH2 0x36A SWAP2 SWAP1 PUSH2 0xB5D JUMP JUMPDEST SWAP1 DUP2 MSTORE PUSH1 0x20 ADD PUSH1 0x40 MLOAD DUP1 SWAP2 SUB SWAP1 KECCAK256 DUP2 SWAP1 SSTORE POP DUP2 PUSH1 0x3 DUP3 PUSH1 0x40 MLOAD PUSH2 0x38D SWAP2 SWAP1 PUSH2 0xB5D JUMP JUMPDEST SWAP1 DUP2 MSTORE PUSH1 0x20 ADD PUSH1 0x40 MLOAD DUP1 SWAP2 SUB SWAP1 KECCAK256 DUP2 SWAP1 SSTORE POP DUP1 PUSH1 0x4 DUP5 PUSH1 0x40 MLOAD PUSH2 0x3B0 SWAP2 SWAP1 PUSH2 0xB5D JUMP JUMPDEST SWAP1 DUP2 MSTORE PUSH1 0x20 ADD PUSH1 0x40 MLOAD DUP1 SWAP2 SUB SWAP1 KECCAK256 SWAP1 DUP2 PUSH2 0x3CA SWAP2 SWAP1 PUSH2 0xA54 JUMP JUMPDEST POP POP POP POP JUMP JUMPDEST PUSH1 0x2 DUP2 DUP1 MLOAD PUSH1 0x20 DUP2 ADD DUP3 ADD DUP1 MLOAD DUP5 DUP3 MSTORE PUSH1 0x20 DUP4 ADD PUSH1 0x20 DUP6 ADD KECCAK256 DUP2 DUP4 MSTORE DUP1 SWAP6 POP POP POP POP POP POP PUSH0 SWAP2 POP SWAP1 POP SLOAD DUP2 JUMP JUMPDEST PUSH1 0xA DUP2 PUSH2 0x40A SWAP2 SWAP1 PUSH2 0xBA0 JUMP JUMPDEST PUSH0 DUP2 SWAP1 SSTORE POP POP JUMP JUMPDEST PUSH1 0x4 DUP2 DUP1 MLOAD PUSH1 0x20 DUP2 ADD DUP3 ADD DUP1 MLOAD DUP5 DUP3 MSTORE PUSH1 0x20 DUP4 ADD PUSH1 0x20 DUP6 ADD KECCAK256 DUP2 DUP4 MSTORE DUP1 SWAP6 POP POP POP POP POP POP PUSH0 SWAP2 POP SWAP1 POP DUP1 SLOAD PUSH2 0x446 SWAP1 PUSH2 0x884 JUMP JUMPDEST DUP1 PUSH1 0x1F ADD PUSH1 0x20 DUP1 SWAP2 DIV MUL PUSH1 0x20 ADD PUSH1 0x40 MLOAD SWAP1 DUP2 ADD PUSH1 0x40 MSTORE DUP1 SWAP3 SWAP2 SWAP1 DUP2 DUP2 MSTORE PUSH1 0x20 ADD DUP3 DUP1 SLOAD PUSH2 0x472 SWAP1 PUSH2 0x884 JUMP JUMPDEST DUP1 ISZERO PUSH2 0x4BD JUMPI DUP1 PUSH1 0x1F LT PUSH2 0x494 JUMPI PUSH2 0x100 DUP1 DUP4 SLOAD DIV MUL DUP4 MSTORE SWAP2 PUSH1 0x20 ADD SWAP2 PUSH2 0x4BD JUMP JUMPDEST DUP3 ADD SWAP2 SWAP1 PUSH0 MSTORE PUSH1 0x20 PUSH0 KECCAK256 SWAP1 JUMPDEST DUP2 SLOAD DUP2 MSTORE SWAP1 PUSH1 0x1 ADD SWAP1 PUSH1 0x20 ADD DUP1 DUP4 GT PUSH2 0x4A0 JUMPI DUP3 SWAP1 SUB PUSH1 0x1F AND DUP3 ADD SWAP2 JUMPDEST POP POP POP POP POP DUP2 JUMP JUMPDEST PUSH1 0x3 DUP2 DUP1 MLOAD PUSH1 0x20 DUP2 ADD DUP3 ADD DUP1 MLOAD DUP5 DUP3 MSTORE PUSH1 0x20 DUP4 ADD PUSH1 0x20 DUP6 ADD KECCAK256 DUP2 DUP4 MSTORE DUP1 SWAP6 POP POP POP POP POP POP PUSH0 SWAP2 POP SWAP1 POP SLOAD DUP2 JUMP JUMPDEST PUSH0 DUP2 SWAP1 POP SWAP2 SWAP1 POP JUMP JUMPDEST PUSH2 0x504 DUP2 PUSH2 0x4F2 JUMP JUMPDEST DUP3 MSTORE POP POP JUMP JUMPDEST PUSH0 PUSH1 0x20 DUP3 ADD SWAP1 POP PUSH2 0x51D PUSH0 DUP4 ADD DUP5 PUSH2 0x4FB JUMP JUMPDEST SWAP3 SWAP2 POP POP JUMP JUMPDEST PUSH0 PUSH1 0x40 MLOAD SWAP1 POP SWAP1 JUMP JUMPDEST PUSH0 PUSH0 REVERT JUMPDEST PUSH0 PUSH0 REVERT JUMPDEST PUSH2 0x53D DUP2 PUSH2 0x4F2 JUMP JUMPDEST DUP2 EQ PUSH2 0x547 JUMPI PUSH0 PUSH0 REVERT JUMPDEST POP JUMP JUMPDEST PUSH0 DUP2 CALLDATALOAD SWAP1 POP PUSH2 0x558 DUP2 PUSH2 0x534 JUMP JUMPDEST SWAP3 SWAP2 POP POP JUMP JUMPDEST PUSH0 PUSH1 0x20 DUP3 DUP5 SUB SLT ISZERO PUSH2 0x573 JUMPI PUSH2 0x572 PUSH2 0x52C JUMP JUMPDEST JUMPDEST PUSH0 PUSH2 0x580 DUP5 DUP3 DUP6 ADD PUSH2 0x54A JUMP JUMPDEST SWAP2 POP POP SWAP3 SWAP2 POP POP JUMP JUMPDEST PUSH0 DUP2 MLOAD SWAP1 POP SWAP2 SWAP1 POP JUMP JUMPDEST PUSH0 DUP3 DUP3 MSTORE PUSH1 0x20 DUP3 ADD SWAP1 POP SWAP3 SWAP2 POP POP JUMP JUMPDEST DUP3 DUP2 DUP4 MCOPY PUSH0 DUP4 DUP4 ADD MSTORE POP POP POP JUMP JUMPDEST PUSH0 PUSH1 0x1F NOT PUSH1 0x1F DUP4 ADD AND SWAP1 POP SWAP2 SWAP1 POP JUMP JUMPDEST PUSH0 PUSH2 0x5CB DUP3 PUSH2 0x589 JUMP JUMPDEST PUSH2 0x5D5 DUP2 DUP6 PUSH2 0x593 JUMP JUMPDEST SWAP4 POP PUSH2 0x5E5 DUP2 DUP6 PUSH1 0x20 DUP7 ADD PUSH2 0x5A3 JUMP JUMPDEST PUSH2 0x5EE DUP2 PUSH2 0x5B1 JUMP JUMPDEST DUP5 ADD SWAP2 POP POP SWAP3 SWAP2 POP POP JUMP JUMPDEST PUSH0 PUSH1 0x60 DUP3 ADD SWAP1 POP PUSH2 0x60C PUSH0 DUP4 ADD DUP7 PUSH2 0x4FB JUMP JUMPDEST DUP2 DUP2 SUB PUSH1 0x20 DUP4 ADD MSTORE PUSH2 0x61E DUP2 DUP6 PUSH2 0x5C1 JUMP JUMPDEST SWAP1 POP DUP2 DUP2 SUB PUSH1 0x40 DUP4 ADD MSTORE PUSH2 0x632 DUP2 DUP5 PUSH2 0x5C1 JUMP JUMPDEST SWAP1 POP SWAP5 SWAP4 POP POP POP POP JUMP JUMPDEST PUSH0 PUSH0 REVERT JUMPDEST PUSH0 PUSH0 REVERT JUMPDEST PUSH32 0x4E487B7100000000000000000000000000000000000000000000000000000000 PUSH0 MSTORE PUSH1 0x41 PUSH1 0x4 MSTORE PUSH1 0x24 PUSH0 REVERT JUMPDEST PUSH2 0x67A DUP3 PUSH2 0x5B1 JUMP JUMPDEST DUP2 ADD DUP2 DUP2 LT PUSH8 0xFFFFFFFFFFFFFFFF DUP3 GT OR ISZERO PUSH2 0x699 JUMPI PUSH2 0x698 PUSH2 0x644 JUMP JUMPDEST JUMPDEST DUP1 PUSH1 0x40 MSTORE POP POP POP JUMP JUMPDEST PUSH0 PUSH2 0x6AB PUSH2 0x523 JUMP JUMPDEST SWAP1 POP PUSH2 0x6B7 DUP3 DUP3 PUSH2 0x671 JUMP JUMPDEST SWAP2 SWAP1 POP JUMP JUMPDEST PUSH0 PUSH8 0xFFFFFFFFFFFFFFFF DUP3 GT ISZERO PUSH2 0x6D6 JUMPI PUSH2 0x6D5 PUSH2 0x644 JUMP JUMPDEST JUMPDEST PUSH2 0x6DF DUP3 PUSH2 0x5B1 JUMP JUMPDEST SWAP1 POP PUSH1 0x20 DUP2 ADD SWAP1 POP SWAP2 SWAP1 POP JUMP JUMPDEST DUP3 DUP2 DUP4 CALLDATACOPY PUSH0 DUP4 DUP4 ADD MSTORE POP POP POP JUMP JUMPDEST PUSH0 PUSH2 0x70C PUSH2 0x707 DUP5 PUSH2 0x6BC JUMP JUMPDEST PUSH2 0x6A2 JUMP JUMPDEST SWAP1 POP DUP3 DUP2 MSTORE PUSH1 0x20 DUP2 ADD DUP5 DUP5 DUP5 ADD GT ISZERO PUSH2 0x728 JUMPI PUSH2 0x727 PUSH2 0x640 JUMP JUMPDEST JUMPDEST PUSH2 0x733 DUP5 DUP3 DUP6 PUSH2 0x6EC JUMP JUMPDEST POP SWAP4 SWAP3 POP POP POP JUMP JUMPDEST PUSH0 DUP3 PUSH1 0x1F DUP4 ADD SLT PUSH2 0x74F JUMPI PUSH2 0x74E PUSH2 0x63C JUMP JUMPDEST JUMPDEST DUP2 CALLDATALOAD PUSH2 0x75F DUP5 DUP3 PUSH1 0x20 DUP7 ADD PUSH2 0x6FA JUMP JUMPDEST SWAP2 POP POP SWAP3 SWAP2 POP POP JUMP JUMPDEST PUSH0 PUSH0 PUSH0 PUSH1 0x60 DUP5 DUP7 SUB SLT ISZERO PUSH2 0x77F JUMPI PUSH2 0x77E PUSH2 0x52C JUMP JUMPDEST JUMPDEST PUSH0 DUP5 ADD CALLDATALOAD PUSH8 0xFFFFFFFFFFFFFFFF DUP2 GT ISZERO PUSH2 0x79C JUMPI PUSH2 0x79B PUSH2 0x530 JUMP JUMPDEST JUMPDEST PUSH2 0x7A8 DUP7 DUP3 DUP8 ADD PUSH2 0x73B JUMP JUMPDEST SWAP4 POP POP PUSH1 0x20 PUSH2 0x7B9 DUP7 DUP3 DUP8 ADD PUSH2 0x54A JUMP JUMPDEST SWAP3 POP POP PUSH1 0x40 DUP5 ADD CALLDATALOAD PUSH8 0xFFFFFFFFFFFFFFFF DUP2 GT ISZERO PUSH2 0x7DA JUMPI PUSH2 0x7D9 PUSH2 0x530 JUMP JUMPDEST JUMPDEST PUSH2 0x7E6 DUP7 DUP3 DUP8 ADD PUSH2 0x73B JUMP JUMPDEST SWAP2 POP POP SWAP3 POP SWAP3 POP SWAP3 JUMP JUMPDEST PUSH0 PUSH1 0x20 DUP3 DUP5 SUB SLT ISZERO PUSH2 0x805 JUMPI PUSH2 0x804 PUSH2 0x52C JUMP JUMPDEST JUMPDEST PUSH0 DUP3 ADD CALLDATALOAD PUSH8 0xFFFFFFFFFFFFFFFF DUP2 GT ISZERO PUSH2 0x822 JUMPI PUSH2 0x821 PUSH2 0x530 JUMP JUMPDEST JUMPDEST PUSH2 0x82E DUP5 DUP3 DUP6 ADD PUSH2 0x73B JUMP JUMPDEST SWAP2 POP POP SWAP3 SWAP2 POP POP JUMP JUMPDEST PUSH0 PUSH1 0x20 DUP3 ADD SWAP1 POP DUP2 DUP2 SUB PUSH0 DUP4 ADD MSTORE PUSH2 0x84F DUP2 DUP5 PUSH2 0x5C1 JUMP JUMPDEST SWAP1 POP SWAP3 SWAP2 POP POP JUMP JUMPDEST PUSH32 0x4E487B7100000000000000000000000000000000000000000000000000000000 PUSH0 MSTORE PUSH1 0x22 PUSH1 0x4 MSTORE PUSH1 0x24 PUSH0 REVERT JUMPDEST PUSH0 PUSH1 0x2 DUP3 DIV SWAP1 POP PUSH1 0x1 DUP3 AND DUP1 PUSH2 0x89B JUMPI PUSH1 0x7F DUP3 AND SWAP2 POP JUMPDEST PUSH1 0x20 DUP3 LT DUP2 SUB PUSH2 0x8AE JUMPI PUSH2 0x8AD PUSH2 0x857 JUMP JUMPDEST JUMPDEST POP SWAP2 SWAP1 POP JUMP JUMPDEST PUSH0 DUP2 SWAP1 POP DUP2 PUSH0 MSTORE PUSH1 0x20 PUSH0 KECCAK256 SWAP1 POP SWAP2 SWAP1 POP JUMP JUMPDEST PUSH0 PUSH1 0x20 PUSH1 0x1F DUP4 ADD DIV SWAP1 POP SWAP2 SWAP1 POP JUMP JUMPDEST PUSH0 DUP3 DUP3 SHL SWAP1 POP SWAP3 SWAP2 POP POP JUMP JUMPDEST PUSH0 PUSH1 0x8 DUP4 MUL PUSH2 0x910 PUSH32 0xFFFFFFFFFFFFFFFFFFFFFFFFFFFFFFFFFFFFFFFFFFFFFFFFFFFFFFFFFFFFFFFF DUP3 PUSH2 0x8D5 JUMP JUMPDEST PUSH2 0x91A DUP7 DUP4 PUSH2 0x8D5 JUMP JUMPDEST SWAP6 POP DUP1 NOT DUP5 AND SWAP4 POP DUP1 DUP7 AND DUP5 OR SWAP3 POP POP POP SWAP4 SWAP3 POP POP POP JUMP JUMPDEST PUSH0 DUP2 SWAP1 POP SWAP2 SWAP1 POP JUMP JUMPDEST PUSH0 PUSH2 0x955 PUSH2 0x950 PUSH2 0x94B DUP5 PUSH2 0x4F2 JUMP JUMPDEST PUSH2 0x932 JUMP JUMPDEST PUSH2 0x4F2 JUMP JUMPDEST SWAP1 POP SWAP2 SWAP1 POP JUMP JUMPDEST PUSH0 DUP2 SWAP1 POP SWAP2 SWAP1 POP JUMP JUMPDEST PUSH2 0x96E DUP4 PUSH2 0x93B JUMP JUMPDEST PUSH2 0x982 PUSH2 0x97A DUP3 PUSH2 0x95C JUMP JUMPDEST DUP5 DUP5 SLOAD PUSH2 0x8E1 JUMP JUMPDEST DUP3 SSTORE POP POP POP POP JUMP JUMPDEST PUSH0 PUSH0 SWAP1 POP SWAP1 JUMP JUMPDEST PUSH2 0x999 PUSH2 0x98A JUMP JUMPDEST PUSH2 0x9A4 DUP2 DUP5 DUP5 PUSH2 0x965 JUMP JUMPDEST POP POP POP JUMP JUMPDEST JUMPDEST DUP2 DUP2 LT ISZERO PUSH2 0x9C7 JUMPI PUSH2 0x9BC PUSH0 DUP3 PUSH2 0x991 JUMP JUMPDEST PUSH1 0x1 DUP2 ADD SWAP1 POP PUSH2 0x9AA JUMP JUMPDEST POP POP JUMP JUMPDEST PUSH1 0x1F DUP3 GT ISZERO PUSH2 0xA0C JUMPI PUSH2 0x9DD DUP2 PUSH2 0x8B4 JUMP JUMPDEST PUSH2 0x9E6 DUP5 PUSH2 0x8C6 JUMP JUMPDEST DUP2 ADD PUSH1 0x20 DUP6 LT ISZERO PUSH2 0x9F5 JUMPI DUP2 SWAP1 POP JUMPDEST PUSH2 0xA09 PUSH2 0xA01 DUP6 PUSH2 0x8C6 JUMP JUMPDEST DUP4 ADD DUP3 PUSH2 0x9A9 JUMP JUMPDEST POP POP JUMPDEST POP POP POP JUMP JUMPDEST PUSH0 DUP3 DUP3 SHR SWAP1 POP SWAP3 SWAP2 POP POP JUMP JUMPDEST PUSH0 PUSH2 0xA2C PUSH0 NOT DUP5 PUSH1 0x8 MUL PUSH2 0xA11 JUMP JUMPDEST NOT DUP1 DUP4 AND SWAP2 POP POP SWAP3 SWAP2 POP POP JUMP JUMPDEST PUSH0 PUSH2 0xA44 DUP4 DUP4 PUSH2 0xA1D JUMP JUMPDEST SWAP2 POP DUP3 PUSH1 0x2 MUL DUP3 OR SWAP1 POP SWAP3 SWAP2 POP POP JUMP JUMPDEST PUSH2 0xA5D DUP3 PUSH2 0x589 JUMP JUMPDEST PUSH8 0xFFFFFFFFFFFFFFFF DUP2 GT ISZERO PUSH2 0xA76 JUMPI PUSH2 0xA75 PUSH2 0x644 JUMP JUMPDEST JUMPDEST PUSH2 0xA80 DUP3 SLOAD PUSH2 0x884 JUMP JUMPDEST PUSH2 0xA8B DUP3 DUP3 DUP6 PUSH2 0x9CB JUMP JUMPDEST PUSH0 PUSH1 0x20 SWAP1 POP PUSH1 0x1F DUP4 GT PUSH1 0x1 DUP2 EQ PUSH2 0xABC JUMPI PUSH0 DUP5 ISZERO PUSH2 0xAAA JUMPI DUP3 DUP8 ADD MLOAD SWAP1 POP JUMPDEST PUSH2 0xAB4 DUP6 DUP3 PUSH2 0xA39 JUMP JUMPDEST DUP7 SSTORE POP PUSH2 0xB1B JUMP JUMPDEST PUSH1 0x1F NOT DUP5 AND PUSH2 0xACA DUP7 PUSH2 0x8B4 JUMP JUMPDEST PUSH0 JUMPDEST DUP3 DUP2 LT ISZERO PUSH2 0xAF1 JUMPI DUP5 DUP10 ADD MLOAD DUP3 SSTORE PUSH1 0x1 DUP3 ADD SWAP2 POP PUSH1 0x20 DUP6 ADD SWAP5 POP PUSH1 0x20 DUP2 ADD SWAP1 POP PUSH2 0xACC JUMP JUMPDEST DUP7 DUP4 LT ISZERO PUSH2 0xB0E JUMPI DUP5 DUP10 ADD MLOAD PUSH2 0xB0A PUSH1 0x1F DUP10 AND DUP3 PUSH2 0xA1D JUMP JUMPDEST DUP4 SSTORE POP JUMPDEST PUSH1 0x1 PUSH1 0x2 DUP9 MUL ADD DUP9 SSTORE POP POP POP JUMPDEST POP POP POP POP POP POP JUMP JUMPDEST PUSH0 DUP2 SWAP1 POP SWAP3 SWAP2 POP POP JUMP JUMPDEST PUSH0 PUSH2 0xB37 DUP3 PUSH2 0x589 JUMP JUMPDEST PUSH2 0xB41 DUP2 DUP6 PUSH2 0xB23 JUMP JUMPDEST SWAP4 POP PUSH2 0xB51 DUP2 DUP6 PUSH1 0x20 DUP7 ADD PUSH2 0x5A3 JUMP JUMPDEST DUP1 DUP5 ADD SWAP2 POP POP SWAP3 SWAP2 POP POP JUMP JUMPDEST PUSH0 PUSH2 0xB68 DUP3 DUP5 PUSH2 0xB2D JUMP JUMPDEST SWAP2 POP DUP2 SWAP1 POP SWAP3 SWAP2 POP POP JUMP JUMPDEST PUSH32 0x4E487B7100000000000000000000000000000000000000000000000000000000 PUSH0 MSTORE PUSH1 0x11 PUSH1 0x4 MSTORE PUSH1 0x24 PUSH0 REVERT JUMPDEST PUSH0 PUSH2 0xBAA DUP3 PUSH2 0x4F2 JUMP JUMPDEST SWAP2 POP PUSH2 0xBB5 DUP4 PUSH2 0x4F2 JUMP JUMPDEST SWAP3 POP DUP3 DUP3 ADD SWAP1 POP DUP1 DUP3 GT ISZERO PUSH2 0xBCD JUMPI PUSH2 0xBCC PUSH2 0xB73 JUMP JUMPDEST JUMPDEST SWAP3 SWAP2 POP POP JUMP INVALID LOG2 PUSH5 0x6970667358 0x22 SLT KECCAK256 PUSH17 0x5EFBB3CC83E0F6D96E765C9D70A19461E0 0x1F 0xC8 PUSH17 0x926F93761DEF8D32A0290464736F6C6343 STOP ADDMOD 0x1F STOP CALLER "
		},
		"gasEstimates": {
			"creation": {
				"codeDepositCost": "616200",
				"executionCost": "649",
				"totalCost": "616849"
			},
			"external": {
				"addPerson(string,uint256,string)": "infinite",
				"findNickName(string)": "infinite",
				"listOfPeople(uint256)": "infinite",
				"nameToFavNumber(string)": "infinite",
				"nickNameToFavNum(string)": "infinite",
				"retrieve()": "2432",
				"store(uint256)": "infinite"
			}
		},
		"methodIdentifiers": {
			"addPerson(string,uint256,string)": "3861c1d6",
			"findNickName(string)": "e5cdfa80",
			"listOfPeople(uint256)": "2ebce631",
			"nameToFavNumber(string)": "43ec8f47",
			"nickNameToFavNum(string)": "fda3fd13",
			"retrieve()": "2e64cec1",
			"store(uint256)": "6057361d"
		}
	},
	"abi": [
		{
			"inputs": [
				{
					"internalType": "string",
					"name": "_name",
					"type": "string"
				},
				{
					"internalType": "uint256",
					"name": "_favNumber",
					"type": "uint256"
				},
				{
					"internalType": "string",
					"name": "_nickName",
					"type": "string"
				}
			],
			"name": "addPerson",
			"outputs": [],
			"stateMutability": "nonpayable",
			"type": "function"
		},
		{
			"inputs": [
				{
					"internalType": "string",
					"name": "_name",
					"type": "string"
				}
			],
			"name": "findNickName",
			"outputs": [
				{
					"internalType": "string",
					"name": "_nickName",
					"type": "string"
				}
			],
			"stateMutability": "view",
			"type": "function"
		},
		{
			"inputs": [
				{
					"internalType": "uint256",
					"name": "",
					"type": "uint256"
				}
			],
			"name": "listOfPeople",
			"outputs": [
				{
					"internalType": "uint256",
					"name": "favNumber",
					"type": "uint256"
				},
				{
					"internalType": "string",
					"name": "name",
					"type": "string"
				},
				{
					"internalType": "string",
					"name": "nickName",
					"type": "string"
				}
			],
			"stateMutability": "view",
			"type": "function"
		},
		{
			"inputs": [
				{
					"internalType": "string",
					"name": "_name",
					"type": "string"
				}
			],
			"name": "nameToFavNumber",
			"outputs": [
				{
					"internalType": "uint256",
					"name": "",
					"type": "uint256"
				}
			],
			"stateMutability": "view",
			"type": "function"
		},
		{
			"inputs": [
				{
					"internalType": "string",
					"name": "_nickName",
					"type": "string"
				}
			],
			"name": "nickNameToFavNum",
			"outputs": [
				{
					"internalType": "uint256",
					"name": "",
					"type": "uint256"
				}
			],
			"stateMutability": "view",
			"type": "function"
		},
		{
			"inputs": [],
			"name": "retrieve",
			"outputs": [
				{
					"internalType": "uint256",
					"name": "",
					"type": "uint256"
				}
			],
			"stateMutability": "view",
			"type": "function"
		},
		{
			"inputs": [
				{
					"internalType": "uint256",
					"name": "_newNumber",
					"type": "uint256"
				}
			],
			"name": "store",
			"outputs": [],
			"stateMutability": "nonpayable",
			"type": "function"
		}
	]
}