{
	"data": {
		"bytecode": {
			"linkReferences": {},
			"object": "6080604052348015600e575f5ffd5b506107328061001c5f395ff3fe608060405234801561000f575f5ffd5b5060043610610034575f3560e01c8063277b00d6146100385780638756993814610054575b5f5ffd5b610052600480360381019061004d91906102d1565b610084565b005b61006e60048036038101906100699190610359565b610124565b60405161007b91906103af565b60405180910390f35b5f604051806060016040528085815260200184815260200183815250908060018154018082558091505060019003905f5260205f2090600302015f909190919091505f820151815f015560208201518160010190816100e391906105cf565b5060408201518160020190816100f991906105cf565b5050508260018360405161010d91906106e6565b908152602001604051809103902081905550505050565b6001818051602081018201805184825260208301602085012081835280955050505050505f915090505481565b5f604051905090565b5f5ffd5b5f5ffd5b5f819050919050565b61017481610162565b811461017e575f5ffd5b50565b5f8135905061018f8161016b565b92915050565b5f5ffd5b5f5ffd5b5f601f19601f8301169050919050565b7f4e487b71000000000000000000000000000000000000000000000000000000005f52604160045260245ffd5b6101e38261019d565b810181811067ffffffffffffffff82111715610202576102016101ad565b5b80604052505050565b5f610214610151565b905061022082826101da565b919050565b5f67ffffffffffffffff82111561023f5761023e6101ad565b5b6102488261019d565b9050602081019050919050565b828183375f83830152505050565b5f61027561027084610225565b61020b565b90508281526020810184848401111561029157610290610199565b5b61029c848285610255565b509392505050565b5f82601f8301126102b8576102b7610195565b5b81356102c8848260208601610263565b91505092915050565b5f5f5f606084860312156102e8576102e761015a565b5b5f6102f586828701610181565b935050602084013567ffffffffffffffff8111156103165761031561015e565b5b610322868287016102a4565b925050604084013567ffffffffffffffff8111156103435761034261015e565b5b61034f868287016102a4565b9150509250925092565b5f6020828403121561036e5761036d61015a565b5b5f82013567ffffffffffffffff81111561038b5761038a61015e565b5b610397848285016102a4565b91505092915050565b6103a981610162565b82525050565b5f6020820190506103c25f8301846103a0565b92915050565b5f81519050919050565b7f4e487b71000000000000000000000000000000000000000000000000000000005f52602260045260245ffd5b5f600282049050600182168061041657607f821691505b602082108103610429576104286103d2565b5b50919050565b5f819050815f5260205f209050919050565b5f6020601f8301049050919050565b5f82821b905092915050565b5f6008830261048b7fffffffffffffffffffffffffffffffffffffffffffffffffffffffffffffffff82610450565b6104958683610450565b95508019841693508086168417925050509392505050565b5f819050919050565b5f6104d06104cb6104c684610162565b6104ad565b610162565b9050919050565b5f819050919050565b6104e9836104b6565b6104fd6104f5826104d7565b84845461045c565b825550505050565b5f5f905090565b610514610505565b61051f8184846104e0565b505050565b5b81811015610542576105375f8261050c565b600181019050610525565b5050565b601f821115610587576105588161042f565b61056184610441565b81016020851015610570578190505b61058461057c85610441565b830182610524565b50505b505050565b5f82821c905092915050565b5f6105a75f198460080261058c565b1980831691505092915050565b5f6105bf8383610598565b9150826002028217905092915050565b6105d8826103c8565b67ffffffffffffffff8111156105f1576105f06101ad565b5b6105fb82546103ff565b610606828285610546565b5f60209050601f831160018114610637575f8415610625578287015190505b61062f85826105b4565b865550610696565b601f1984166106458661042f565b5f5b8281101561066c57848901518255600182019150602085019450602081019050610647565b868310156106895784890151610685601f891682610598565b8355505b6001600288020188555050505b505050505050565b5f81905092915050565b8281835e5f83830152505050565b5f6106c0826103c8565b6106ca818561069e565b93506106da8185602086016106a8565b80840191505092915050565b5f6106f182846106b6565b91508190509291505056fea2646970667358221220c3741ef5cbfd08ede607ca9a2b2b3b4e6dfa415e0951f565345123c8a46feb0e64736f6c634300081f0033",
			"opcodes": "PUSH1 0x80 PUSH1 0x40 MSTORE CALLVALUE DUP1 ISZERO PUSH1 0xE JUMPI PUSH0 PUSH0 REVERT JUMPDEST POP PUSH2 0x732 DUP1 PUSH2 0x1C PUSH0 CODECOPY PUSH0 RETURN INVALID PUSH1 0x80 PUSH1 0x40 MSTORE CALLVALUE DUP1 ISZERO PUSH2 0xF JUMPI PUSH0 PUSH0 REVERT JUMPDEST POP PUSH1 0x4 CALLDATASIZE LT PUSH2 0x34 JUMPI PUSH0 CALLDATALOAD PUSH1 0xE0 SHR DUP1 PUSH4 0x277B00D6 EQ PUSH2 0x38 JUMPI DUP1 PUSH4 0x87569938 EQ PUSH2 0x54 JUMPI JUMPDEST PUSH0 PUSH0 REVERT JUMPDEST PUSH2 0x52 PUSH1 0x4 DUP1 CALLDATASIZE SUB DUP2 ADD SWAP1 PUSH2 0x4D SWAP2 SWAP1 PUSH2 0x2D1 JUMP JUMPDEST PUSH2 0x84 JUMP JUMPDEST STOP JUMPDEST PUSH2 0x6E PUSH1 0x4 DUP1 CALLDATASIZE SUB DUP2 ADD SWAP1 PUSH2 0x69 SWAP2 SWAP1 PUSH2 0x359 JUMP JUMPDEST PUSH2 0x124 JUMP JUMPDEST PUSH1 0x40 MLOAD PUSH2 0x7B SWAP2 SWAP1 PUSH2 0x3AF JUMP JUMPDEST PUSH1 0x40 MLOAD DUP1 SWAP2 SUB SWAP1 RETURN JUMPDEST PUSH0 PUSH1 0x40 MLOAD DUP1 PUSH1 0x60 ADD PUSH1 0x40 MSTORE DUP1 DUP6 DUP2 MSTORE PUSH1 0x20 ADD DUP5 DUP2 MSTORE PUSH1 0x20 ADD DUP4 DUP2 MSTORE POP SWAP1 DUP1 PUSH1 0x1 DUP2 SLOAD ADD DUP1 DUP3 SSTORE DUP1 SWAP2 POP POP PUSH1 0x1 SWAP1 SUB SWAP1 PUSH0 MSTORE PUSH1 0x20 PUSH0 KECCAK256 SWAP1 PUSH1 0x3 MUL ADD PUSH0 SWAP1 SWAP2 SWAP1 SWAP2 SWAP1 SWAP2 POP PUSH0 DUP3 ADD MLOAD DUP2 PUSH0 ADD SSTORE PUSH1 0x20 DUP3 ADD MLOAD DUP2 PUSH1 0x1 ADD SWAP1 DUP2 PUSH2 0xE3 SWAP2 SWAP1 PUSH2 0x5CF JUMP JUMPDEST POP PUSH1 0x40 DUP3 ADD MLOAD DUP2 PUSH1 0x2 ADD SWAP1 DUP2 PUSH2 0xF9 SWAP2 SWAP1 PUSH2 0x5CF JUMP JUMPDEST POP POP POP DUP3 PUSH1 0x1 DUP4 PUSH1 0x40 MLOAD PUSH2 0x10D SWAP2 SWAP1 PUSH2 0x6E6 JUMP JUMPDEST SWAP1 DUP2 MSTORE PUSH1 0x20 ADD PUSH1 0x40 MLOAD DUP1 SWAP2 SUB SWAP1 KECCAK256 DUP2 SWAP1 SSTORE POP POP POP POP JUMP JUMPDEST PUSH1 0x1 DUP2 DUP1 MLOAD PUSH1 0x20 DUP2 ADD DUP3 ADD DUP1 MLOAD DUP5 DUP3 MSTORE PUSH1 0x20 DUP4 ADD PUSH1 0x20 DUP6 ADD KECCAK256 DUP2 DUP4 MSTORE DUP1 SWAP6 POP POP POP POP POP POP PUSH0 SWAP2 POP SWAP1 POP SLOAD DUP2 JUMP JUMPDEST PUSH0 PUSH1 0x40 MLOAD SWAP1 POP SWAP1 JUMP JUMPDEST PUSH0 PUSH0 REVERT JUMPDEST PUSH0 PUSH0 REVERT JUMPDEST PUSH0 DUP2 SWAP1 POP SWAP2 SWAP1 POP JUMP JUMPDEST PUSH2 0x174 DUP2 PUSH2 0x162 JUMP JUMPDEST DUP2 EQ PUSH2 0x17E JUMPI PUSH0 PUSH0 REVERT JUMPDEST POP JUMP JUMPDEST PUSH0 DUP2 CALLDATALOAD SWAP1 POP PUSH2 0x18F DUP2 PUSH2 0x16B JUMP JUMPDEST SWAP3 SWAP2 POP POP JUMP JUMPDEST PUSH0 PUSH0 REVERT JUMPDEST PUSH0 PUSH0 REVERT JUMPDEST PUSH0 PUSH1 0x1F NOT PUSH1 0x1F DUP4 ADD AND SWAP1 POP SWAP2 SWAP1 POP JUMP JUMPDEST PUSH32 0x4E487B7100000000000000000000000000000000000000000000000000000000 PUSH0 MSTORE PUSH1 0x41 PUSH1 0x4 MSTORE PUSH1 0x24 PUSH0 REVERT JUMPDEST PUSH2 0x1E3 DUP3 PUSH2 0x19D JUMP JUMPDEST DUP2 ADD DUP2 DUP2 LT PUSH8 0xFFFFFFFFFFFFFFFF DUP3 GT OR ISZERO PUSH2 0x202 JUMPI PUSH2 0x201 PUSH2 0x1AD JUMP JUMPDEST JUMPDEST DUP1 PUSH1 0x40 MSTORE POP POP POP JUMP JUMPDEST PUSH0 PUSH2 0x214 PUSH2 0x151 JUMP JUMPDEST SWAP1 POP PUSH2 0x220 DUP3 DUP3 PUSH2 0x1DA JUMP JUMPDEST SWAP2 SWAP1 POP JUMP JUMPDEST PUSH0 PUSH8 0xFFFFFFFFFFFFFFFF DUP3 GT ISZERO PUSH2 0x23F JUMPI PUSH2 0x23E PUSH2 0x1AD JUMP JUMPDEST JUMPDEST PUSH2 0x248 DUP3 PUSH2 0x19D JUMP JUMPDEST SWAP1 POP PUSH1 0x20 DUP2 ADD SWAP1 POP SWAP2 SWAP1 POP JUMP JUMPDEST DUP3 DUP2 DUP4 CALLDATACOPY PUSH0 DUP4 DUP4 ADD MSTORE POP POP POP JUMP JUMPDEST PUSH0 PUSH2 0x275 PUSH2 0x270 DUP5 PUSH2 0x225 JUMP JUMPDEST PUSH2 0x20B JUMP JUMPDEST SWAP1 POP DUP3 DUP2 MSTORE PUSH1 0x20 DUP2 ADD DUP5 DUP5 DUP5 ADD GT ISZERO PUSH2 0x291 JUMPI PUSH2 0x290 PUSH2 0x199 JUMP JUMPDEST JUMPDEST PUSH2 0x29C DUP5 DUP3 DUP6 PUSH2 0x255 JUMP JUMPDEST POP SWAP4 SWAP3 POP POP POP JUMP JUMPDEST PUSH0 DUP3 PUSH1 0x1F DUP4 ADD SLT PUSH2 0x2B8 JUMPI PUSH2 0x2B7 PUSH2 0x195 JUMP JUMPDEST JUMPDEST DUP2 CALLDATALOAD PUSH2 0x2C8 DUP5 DUP3 PUSH1 0x20 DUP7 ADD PUSH2 0x263 JUMP JUMPDEST SWAP2 POP POP SWAP3 SWAP2 POP POP JUMP JUMPDEST PUSH0 PUSH0 PUSH0 PUSH1 0x60 DUP5 DUP7 SUB SLT ISZERO PUSH2 0x2E8 JUMPI PUSH2 0x2E7 PUSH2 0x15A JUMP JUMPDEST JUMPDEST PUSH0 PUSH2 0x2F5 DUP7 DUP3 DUP8 ADD PUSH2 0x181 JUMP JUMPDEST SWAP4 POP POP PUSH1 0x20 DUP5 ADD CALLDATALOAD PUSH8 0xFFFFFFFFFFFFFFFF DUP2 GT ISZERO PUSH2 0x316 JUMPI PUSH2 0x315 PUSH2 0x15E JUMP JUMPDEST JUMPDEST PUSH2 0x322 DUP7 DUP3 DUP8 ADD PUSH2 0x2A4 JUMP JUMPDEST SWAP3 POP POP PUSH1 0x40 DUP5 ADD CALLDATALOAD PUSH8 0xFFFFFFFFFFFFFFFF DUP2 GT ISZERO PUSH2 0x343 JUMPI PUSH2 0x342 PUSH2 0x15E JUMP JUMPDEST JUMPDEST PUSH2 0x34F DUP7 DUP3 DUP8 ADD PUSH2 0x2A4 JUMP JUMPDEST SWAP2 POP POP SWAP3 POP SWAP3 POP SWAP3 JUMP JUMPDEST PUSH0 PUSH1 0x20 DUP3 DUP5 SUB SLT ISZERO PUSH2 0x36E JUMPI PUSH2 0x36D PUSH2 0x15A JUMP JUMPDEST JUMPDEST PUSH0 DUP3 ADD CALLDATALOAD PUSH8 0xFFFFFFFFFFFFFFFF DUP2 GT ISZERO PUSH2 0x38B JUMPI PUSH2 0x38A PUSH2 0x15E JUMP JUMPDEST JUMPDEST PUSH2 0x397 DUP5 DUP3 DUP6 ADD PUSH2 0x2A4 JUMP JUMPDEST SWAP2 POP POP SWAP3 SWAP2 POP POP JUMP JUMPDEST PUSH2 0x3A9 DUP2 PUSH2 0x162 JUMP JUMPDEST DUP3 MSTORE POP POP JUMP JUMPDEST PUSH0 PUSH1 0x20 DUP3 ADD SWAP1 POP PUSH2 0x3C2 PUSH0 DUP4 ADD DUP5 PUSH2 0x3A0 JUMP JUMPDEST SWAP3 SWAP2 POP POP JUMP JUMPDEST PUSH0 DUP2 MLOAD SWAP1 POP SWAP2 SWAP1 POP JUMP JUMPDEST PUSH32 0x4E487B7100000000000000000000000000000000000000000000000000000000 PUSH0 MSTORE PUSH1 0x22 PUSH1 0x4 MSTORE PUSH1 0x24 PUSH0 REVERT JUMPDEST PUSH0 PUSH1 0x2 DUP3 DIV SWAP1 POP PUSH1 0x1 DUP3 AND DUP1 PUSH2 0x416 JUMPI PUSH1 0x7F DUP3 AND SWAP2 POP JUMPDEST PUSH1 0x20 DUP3 LT DUP2 SUB PUSH2 0x429 JUMPI PUSH2 0x428 PUSH2 0x3D2 JUMP JUMPDEST JUMPDEST POP SWAP2 SWAP1 POP JUMP JUMPDEST PUSH0 DUP2 SWAP1 POP DUP2 PUSH0 MSTORE PUSH1 0x20 PUSH0 KECCAK256 SWAP1 POP SWAP2 SWAP1 POP JUMP JUMPDEST PUSH0 PUSH1 0x20 PUSH1 0x1F DUP4 ADD DIV SWAP1 POP SWAP2 SWAP1 POP JUMP JUMPDEST PUSH0 DUP3 DUP3 SHL SWAP1 POP SWAP3 SWAP2 POP POP JUMP JUMPDEST PUSH0 PUSH1 0x8 DUP4 MUL PUSH2 0x48B PUSH32 0xFFFFFFFFFFFFFFFFFFFFFFFFFFFFFFFFFFFFFFFFFFFFFFFFFFFFFFFFFFFFFFFF DUP3 PUSH2 0x450 JUMP JUMPDEST PUSH2 0x495 DUP7 DUP4 PUSH2 0x450 JUMP JUMPDEST SWAP6 POP DUP1 NOT DUP5 AND SWAP4 POP DUP1 DUP7 AND DUP5 OR SWAP3 POP POP POP SWAP4 SWAP3 POP POP POP JUMP JUMPDEST PUSH0 DUP2 SWAP1 POP SWAP2 SWAP1 POP JUMP JUMPDEST PUSH0 PUSH2 0x4D0 PUSH2 0x4CB PUSH2 0x4C6 DUP5 PUSH2 0x162 JUMP JUMPDEST PUSH2 0x4AD JUMP JUMPDEST PUSH2 0x162 JUMP JUMPDEST SWAP1 POP SWAP2 SWAP1 POP JUMP JUMPDEST PUSH0 DUP2 SWAP1 POP SWAP2 SWAP1 POP JUMP JUMPDEST PUSH2 0x4E9 DUP4 PUSH2 0x4B6 JUMP JUMPDEST PUSH2 0x4FD PUSH2 0x4F5 DUP3 PUSH2 0x4D7 JUMP JUMPDEST DUP5 DUP5 SLOAD PUSH2 0x45C JUMP JUMPDEST DUP3 SSTORE POP POP POP POP JUMP JUMPDEST PUSH0 PUSH0 SWAP1 POP SWAP1 JUMP JUMPDEST PUSH2 0x514 PUSH2 0x505 JUMP JUMPDEST PUSH2 0x51F DUP2 DUP5 DUP5 PUSH2 0x4E0 JUMP JUMPDEST POP POP POP JUMP JUMPDEST JUMPDEST DUP2 DUP2 LT ISZERO PUSH2 0x542 JUMPI PUSH2 0x537 PUSH0 DUP3 PUSH2 0x50C JUMP JUMPDEST PUSH1 0x1 DUP2 ADD SWAP1 POP PUSH2 0x525 JUMP JUMPDEST POP POP JUMP JUMPDEST PUSH1 0x1F DUP3 GT ISZERO PUSH2 0x587 JUMPI PUSH2 0x558 DUP2 PUSH2 0x42F JUMP JUMPDEST PUSH2 0x561 DUP5 PUSH2 0x441 JUMP JUMPDEST DUP2 ADD PUSH1 0x20 DUP6 LT ISZERO PUSH2 0x570 JUMPI DUP2 SWAP1 POP JUMPDEST PUSH2 0x584 PUSH2 0x57C DUP6 PUSH2 0x441 JUMP JUMPDEST DUP4 ADD DUP3 PUSH2 0x524 JUMP JUMPDEST POP POP JUMPDEST POP POP POP JUMP JUMPDEST PUSH0 DUP3 DUP3 SHR SWAP1 POP SWAP3 SWAP2 POP POP JUMP JUMPDEST PUSH0 PUSH2 0x5A7 PUSH0 NOT DUP5 PUSH1 0x8 MUL PUSH2 0x58C JUMP JUMPDEST NOT DUP1 DUP4 AND SWAP2 POP POP SWAP3 SWAP2 POP POP JUMP JUMPDEST PUSH0 PUSH2 0x5BF DUP4 DUP4 PUSH2 0x598 JUMP JUMPDEST SWAP2 POP DUP3 PUSH1 0x2 MUL DUP3 OR SWAP1 POP SWAP3 SWAP2 POP POP JUMP JUMPDEST PUSH2 0x5D8 DUP3 PUSH2 0x3C8 JUMP JUMPDEST PUSH8 0xFFFFFFFFFFFFFFFF DUP2 GT ISZERO PUSH2 0x5F1 JUMPI PUSH2 0x5F0 PUSH2 0x1AD JUMP JUMPDEST JUMPDEST PUSH2 0x5FB DUP3 SLOAD PUSH2 0x3FF JUMP JUMPDEST PUSH2 0x606 DUP3 DUP3 DUP6 PUSH2 0x546 JUMP JUMPDEST PUSH0 PUSH1 0x20 SWAP1 POP PUSH1 0x1F DUP4 GT PUSH1 0x1 DUP2 EQ PUSH2 0x637 JUMPI PUSH0 DUP5 ISZERO PUSH2 0x625 JUMPI DUP3 DUP8 ADD MLOAD SWAP1 POP JUMPDEST PUSH2 0x62F DUP6 DUP3 PUSH2 0x5B4 JUMP JUMPDEST DUP7 SSTORE POP PUSH2 0x696 JUMP JUMPDEST PUSH1 0x1F NOT DUP5 AND PUSH2 0x645 DUP7 PUSH2 0x42F JUMP JUMPDEST PUSH0 JUMPDEST DUP3 DUP2 LT ISZERO PUSH2 0x66C JUMPI DUP5 DUP10 ADD MLOAD DUP3 SSTORE PUSH1 0x1 DUP3 ADD SWAP2 POP PUSH1 0x20 DUP6 ADD SWAP5 POP PUSH1 0x20 DUP2 ADD SWAP1 POP PUSH2 0x647 JUMP JUMPDEST DUP7 DUP4 LT ISZERO PUSH2 0x689 JUMPI DUP5 DUP10 ADD MLOAD PUSH2 0x685 PUSH1 0x1F DUP10 AND DUP3 PUSH2 0x598 JUMP JUMPDEST DUP4 SSTORE POP JUMPDEST PUSH1 0x1 PUSH1 0x2 DUP9 MUL ADD DUP9 SSTORE POP POP POP JUMPDEST POP POP POP POP POP POP JUMP JUMPDEST PUSH0 DUP2 SWAP1 POP SWAP3 SWAP2 POP POP JUMP JUMPDEST DUP3 DUP2 DUP4 MCOPY PUSH0 DUP4 DUP4 ADD MSTORE POP POP POP JUMP JUMPDEST PUSH0 PUSH2 0x6C0 DUP3 PUSH2 0x3C8 JUMP JUMPDEST PUSH2 0x6CA DUP2 DUP6 PUSH2 0x69E JUMP JUMPDEST SWAP4 POP PUSH2 0x6DA DUP2 DUP6 PUSH1 0x20 DUP7 ADD PUSH2 0x6A8 JUMP JUMPDEST DUP1 DUP5 ADD SWAP2 POP POP SWAP3 SWAP2 POP POP JUMP JUMPDEST PUSH0 PUSH2 0x6F1 DUP3 DUP5 PUSH2 0x6B6 JUMP JUMPDEST SWAP2 POP DUP2 SWAP1 POP SWAP3 SWAP2 POP POP JUMP INVALID LOG2 PUSH5 0x6970667358 0x22 SLT KECCAK256 0xC3 PUSH21 0x1EF5CBFD08EDE607CA9A2B2B3B4E6DFA415E0951F5 PUSH6 0x345123C8A46F 0xEB 0xE PUSH5 0x736F6C6343 STOP ADDMOD 0x1F STOP CALLER "
		},
		"gasEstimates": {
			"creation": {
				"codeDepositCost": "368400",
				"executionCost": "403",
				"totalCost": "368803"
			},
			"external": {
				"addToContacts(uint256,string,string)": "infinite",
				"findNumByName(string)": "infinite"
			}
		},
		"methodIdentifiers": {
			"addToContacts(uint256,string,string)": "277b00d6",
			"findNumByName(string)": "87569938"
		}
	},
	"abi": [
		{
			"inputs": [
				{
					"internalType": "uint256",
					"name": "_num",
					"type": "uint256"
				},
				{
					"internalType": "string",
					"name": "_name",
					"type": "string"
				},
				{
					"internalType": "string",
					"name": "_nickName",
					"type": "string"
				}
			],
			"name": "addToContacts",
			"outputs": [],
			"stateMutability": "nonpayable",
			"type": "function"
		},
		{
			"inputs": [
				{
					"internalType": "string",
					"name": "",
					"type": "string"
				}
			],
			"name": "findNumByName",
			"outputs": [
				{
					"internalType": "uint256",
					"name": "",
					"type": "uint256"
				}
			],
			"stateMutability": "view",
			"type": "function"
		}
	]
}